{"contracts/MintNFT_ERC1155.sol":{"MintNFT_ERC1155":{"abi":[{"inputs":[],"stateMutability":"nonpayable","type":"constructor"},{"anonymous":false,"inputs":[{"indexed":true,"internalType":"address","name":"account","type":"address"},{"indexed":true,"internalType":"address","name":"operator","type":"address"},{"indexed":false,"internalType":"bool","name":"approved","type":"bool"}],"name":"ApprovalForAll","type":"event"},{"anonymous":false,"inputs":[{"indexed":true,"internalType":"address","name":"previousOwner","type":"address"},{"indexed":true,"internalType":"address","name":"newOwner","type":"address"}],"name":"OwnershipTransferred","type":"event"},{"anonymous":false,"inputs":[{"indexed":true,"internalType":"address","name":"operator","type":"address"},{"indexed":true,"internalType":"address","name":"from","type":"address"},{"indexed":true,"internalType":"address","name":"to","type":"address"},{"indexed":false,"internalType":"uint256[]","name":"ids","type":"uint256[]"},{"indexed":false,"internalType":"uint256[]","name":"values","type":"uint256[]"}],"name":"TransferBatch","type":"event"},{"anonymous":false,"inputs":[{"indexed":true,"internalType":"address","name":"operator","type":"address"},{"indexed":true,"internalType":"address","name":"from","type":"address"},{"indexed":true,"internalType":"address","name":"to","type":"address"},{"indexed":false,"internalType":"uint256","name":"id","type":"uint256"},{"indexed":false,"internalType":"uint256","name":"value","type":"uint256"}],"name":"TransferSingle","type":"event"},{"anonymous":false,"inputs":[{"indexed":false,"internalType":"string","name":"value","type":"string"},{"indexed":true,"internalType":"uint256","name":"id","type":"uint256"}],"name":"URI","type":"event"},{"inputs":[{"internalType":"address","name":"account","type":"address"},{"internalType":"uint256","name":"id","type":"uint256"}],"name":"balanceOf","outputs":[{"internalType":"uint256","name":"","type":"uint256"}],"stateMutability":"view","type":"function"},{"inputs":[{"internalType":"address[]","name":"accounts","type":"address[]"},{"internalType":"uint256[]","name":"ids","type":"uint256[]"}],"name":"balanceOfBatch","outputs":[{"internalType":"uint256[]","name":"","type":"uint256[]"}],"stateMutability":"view","type":"function"},{"inputs":[{"internalType":"address","name":"account","type":"address"},{"internalType":"address","name":"operator","type":"address"}],"name":"isApprovedForAll","outputs":[{"internalType":"bool","name":"","type":"bool"}],"stateMutability":"view","type":"function"},{"inputs":[{"internalType":"uint256","name":"id","type":"uint256"},{"internalType":"uint256","name":"amount","type":"uint256"}],"name":"mint","outputs":[],"stateMutability":"payable","type":"function"},{"inputs":[],"name":"mintRate","outputs":[{"internalType":"uint256","name":"","type":"uint256"}],"stateMutability":"view","type":"function"},{"inputs":[],"name":"minted","outputs":[{"internalType":"uint256","name":"","type":"uint256"}],"stateMutability":"view","type":"function"},{"inputs":[],"name":"owner","outputs":[{"internalType":"address","name":"","type":"address"}],"stateMutability":"view","type":"function"},{"inputs":[],"name":"renounceOwnership","outputs":[],"stateMutability":"nonpayable","type":"function"},{"inputs":[{"internalType":"address","name":"from","type":"address"},{"internalType":"address","name":"to","type":"address"},{"internalType":"uint256[]","name":"ids","type":"uint256[]"},{"internalType":"uint256[]","name":"amounts","type":"uint256[]"},{"internalType":"bytes","name":"data","type":"bytes"}],"name":"safeBatchTransferFrom","outputs":[],"stateMutability":"nonpayable","type":"function"},{"inputs":[{"internalType":"address","name":"from","type":"address"},{"internalType":"address","name":"to","type":"address"},{"internalType":"uint256","name":"id","type":"uint256"},{"internalType":"uint256","name":"amount","type":"uint256"},{"internalType":"bytes","name":"data","type":"bytes"}],"name":"safeTransferFrom","outputs":[],"stateMutability":"nonpayable","type":"function"},{"inputs":[{"internalType":"address","name":"operator","type":"address"},{"internalType":"bool","name":"approved","type":"bool"}],"name":"setApprovalForAll","outputs":[],"stateMutability":"nonpayable","type":"function"},{"inputs":[{"internalType":"string","name":"newuri","type":"string"}],"name":"setURI","outputs":[],"stateMutability":"nonpayable","type":"function"},{"inputs":[],"name":"supplies","outputs":[{"internalType":"uint256","name":"","type":"uint256"}],"stateMutability":"view","type":"function"},{"inputs":[{"internalType":"bytes4","name":"interfaceId","type":"bytes4"}],"name":"supportsInterface","outputs":[{"internalType":"bool","name":"","type":"bool"}],"stateMutability":"view","type":"function"},{"inputs":[{"internalType":"uint256","name":"","type":"uint256"}],"name":"tokenId","outputs":[{"internalType":"uint256","name":"","type":"uint256"}],"stateMutability":"view","type":"function"},{"inputs":[{"internalType":"address","name":"newOwner","type":"address"}],"name":"transferOwnership","outputs":[],"stateMutability":"nonpayable","type":"function"},{"inputs":[{"internalType":"uint256","name":"","type":"uint256"}],"name":"uri","outputs":[{"internalType":"string","name":"","type":"string"}],"stateMutability":"view","type":"function"}],"evm":{"bytecode":{"linkReferences":{},"object":"6080604052670de0b6b3a764000060045560016005556040518060600160405280600160ff168152602001600260ff168152602001600360ff1681525060069060036200004e9291906200018d565b5060026007553480156200006157600080fd5b50604051806020016040528060008152506200008381620000aa60201b60201c565b50620000a462000098620000bf60201b60201c565b620000c760201b60201c565b62000564565b8060029081620000bb91906200047d565b5050565b600033905090565b6000600360009054906101000a900473ffffffffffffffffffffffffffffffffffffffff16905081600360006101000a81548173ffffffffffffffffffffffffffffffffffffffff021916908373ffffffffffffffffffffffffffffffffffffffff1602179055508173ffffffffffffffffffffffffffffffffffffffff168173ffffffffffffffffffffffffffffffffffffffff167f8be0079c531659141344cd1fd0a4f28419497f9722a3daafe3b4186f6b6457e060405160405180910390a35050565b828054828255906000526020600020908101928215620001d1579160200282015b82811115620001d0578251829060ff16905591602001919060010190620001ae565b5b509050620001e09190620001e4565b5090565b5b80821115620001ff576000816000905550600101620001e5565b5090565b600081519050919050565b7f4e487b7100000000000000000000000000000000000000000000000000000000600052604160045260246000fd5b7f4e487b7100000000000000000000000000000000000000000000000000000000600052602260045260246000fd5b600060028204905060018216806200028557607f821691505b6020821081036200029b576200029a6200023d565b5b50919050565b60008190508160005260206000209050919050565b60006020601f8301049050919050565b600082821b905092915050565b600060088302620003057fffffffffffffffffffffffffffffffffffffffffffffffffffffffffffffffff82620002c6565b620003118683620002c6565b95508019841693508086168417925050509392505050565b6000819050919050565b6000819050919050565b60006200035e62000358620003528462000329565b62000333565b62000329565b9050919050565b6000819050919050565b6200037a836200033d565b62000392620003898262000365565b848454620002d3565b825550505050565b600090565b620003a96200039a565b620003b68184846200036f565b505050565b5b81811015620003de57620003d26000826200039f565b600181019050620003bc565b5050565b601f8211156200042d57620003f781620002a1565b6200040284620002b6565b8101602085101562000412578190505b6200042a6200042185620002b6565b830182620003bb565b50505b505050565b600082821c905092915050565b6000620004526000198460080262000432565b1980831691505092915050565b60006200046d83836200043f565b9150826002028217905092915050565b620004888262000203565b67ffffffffffffffff811115620004a457620004a36200020e565b5b620004b082546200026c565b620004bd828285620003e2565b600060209050601f831160018114620004f55760008415620004e0578287015190505b620004ec85826200045f565b8655506200055c565b601f1984166200050586620002a1565b60005b828110156200052f5784890151825560018201915060208501945060208101905062000508565b868310156200054f57848901516200054b601f8916826200043f565b8355505b6001600288020188555050505b505050505050565b6133e780620005746000396000f3fe6080604052600436106100fd5760003560e01c8063715018a611610095578063a22cb46511610064578063a22cb46514610339578063ca0dcf1614610362578063e985e9c51461038d578063f242432a146103ca578063f2fde38b146103f3576100fd565b8063715018a61461028f5780637dcb0e5f146102a65780638da5cb5b146102e35780638efa88741461030e576100fd565b80631b2ef1ca116100d15780631b2ef1ca146101e25780632eb2c2d6146101fe5780634e1273f4146102275780634f02c42014610264576100fd565b8062fdd58e1461010257806301ffc9a71461013f57806302fe53051461017c5780630e89341c146101a5575b600080fd5b34801561010e57600080fd5b5061012960048036038101906101249190611b66565b61041c565b6040516101369190611bb5565b60405180910390f35b34801561014b57600080fd5b5061016660048036038101906101619190611c28565b6104e4565b6040516101739190611c70565b60405180910390f35b34801561018857600080fd5b506101a3600480360381019061019e9190611dd1565b6105c6565b005b3480156101b157600080fd5b506101cc60048036038101906101c79190611e1a565b6105da565b6040516101d99190611ec6565b60405180910390f35b6101fc60048036038101906101f79190611ee8565b61066e565b005b34801561020a57600080fd5b5061022560048036038101906102209190612091565b6107c6565b005b34801561023357600080fd5b5061024e60048036038101906102499190612223565b610867565b60405161025b9190612359565b60405180910390f35b34801561027057600080fd5b50610279610980565b6040516102869190611bb5565b60405180910390f35b34801561029b57600080fd5b506102a4610986565b005b3480156102b257600080fd5b506102cd60048036038101906102c89190611e1a565b61099a565b6040516102da9190611bb5565b60405180910390f35b3480156102ef57600080fd5b506102f86109be565b604051610305919061238a565b60405180910390f35b34801561031a57600080fd5b506103236109e8565b6040516103309190611bb5565b60405180910390f35b34801561034557600080fd5b50610360600480360381019061035b91906123d1565b6109ee565b005b34801561036e57600080fd5b50610377610a04565b6040516103849190611bb5565b60405180910390f35b34801561039957600080fd5b506103b460048036038101906103af9190612411565b610a0a565b6040516103c19190611c70565b60405180910390f35b3480156103d657600080fd5b506103f160048036038101906103ec9190612451565b610a9e565b005b3480156103ff57600080fd5b5061041a600480360381019061041591906124e8565b610b3f565b005b60008073ffffffffffffffffffffffffffffffffffffffff168373ffffffffffffffffffffffffffffffffffffffff160361048c576040517f08c379a000000000000000000000000000000000000000000000000000000000815260040161048390612587565b60405180910390fd5b60008083815260200190815260200160002060008473ffffffffffffffffffffffffffffffffffffffff1673ffffffffffffffffffffffffffffffffffffffff16815260200190815260200160002054905092915050565b60007fd9b67a26000000000000000000000000000000000000000000000000000000007bffffffffffffffffffffffffffffffffffffffffffffffffffffffff1916827bffffffffffffffffffffffffffffffffffffffffffffffffffffffff191614806105af57507f0e89341c000000000000000000000000000000000000000000000000000000007bffffffffffffffffffffffffffffffffffffffffffffffffffffffff1916827bffffffffffffffffffffffffffffffffffffffffffffffffffffffff1916145b806105bf57506105be82610bc2565b5b9050919050565b6105ce610c2c565b6105d781610caa565b50565b6060600280546105e9906125d6565b80601f0160208091040260200160405190810160405280929190818152602001828054610615906125d6565b80156106625780601f1061063757610100808354040283529160200191610662565b820191906000526020600020905b81548152906001019060200180831161064557829003601f168201915b50505050509050919050565b6006805490508211156106b6576040517f08c379a00000000000000000000000000000000000000000000000000000000081526004016106ad90612653565b60405180910390fd5b600082116106f9576040517f08c379a00000000000000000000000000000000000000000000000000000000081526004016106f090612653565b60405180910390fd5b6004548161070791906126a2565b341015610749576040517f08c379a000000000000000000000000000000000000000000000000000000000815260040161074090612730565b60405180910390fd5b60075481600160055461075c9190612750565b6107669190612784565b11156107a7576040517f08c379a000000000000000000000000000000000000000000000000000000000815260040161079e90612804565b60405180910390fd5b6107c233838360405180602001604052806000815250610cbd565b5050565b6107ce610e6d565b73ffffffffffffffffffffffffffffffffffffffff168573ffffffffffffffffffffffffffffffffffffffff16148061081457506108138561080e610e6d565b610a0a565b5b610853576040517f08c379a000000000000000000000000000000000000000000000000000000000815260040161084a90612896565b60405180910390fd5b6108608585858585610e75565b5050505050565b606081518351146108ad576040517f08c379a00000000000000000000000000000000000000000000000000000000081526004016108a490612928565b60405180910390fd5b6000835167ffffffffffffffff8111156108ca576108c9611ca6565b5b6040519080825280602002602001820160405280156108f85781602001602082028036833780820191505090505b50905060005b84518110156109755761094585828151811061091d5761091c612948565b5b602002602001015185838151811061093857610937612948565b5b602002602001015161041c565b82828151811061095857610957612948565b5b6020026020010181815250508061096e90612977565b90506108fe565b508091505092915050565b60055481565b61098e610c2c565b6109986000611196565b565b600681815481106109aa57600080fd5b906000526020600020016000915090505481565b6000600360009054906101000a900473ffffffffffffffffffffffffffffffffffffffff16905090565b60075481565b610a006109f9610e6d565b838361125c565b5050565b60045481565b6000600160008473ffffffffffffffffffffffffffffffffffffffff1673ffffffffffffffffffffffffffffffffffffffff16815260200190815260200160002060008373ffffffffffffffffffffffffffffffffffffffff1673ffffffffffffffffffffffffffffffffffffffff16815260200190815260200160002060009054906101000a900460ff16905092915050565b610aa6610e6d565b73ffffffffffffffffffffffffffffffffffffffff168573ffffffffffffffffffffffffffffffffffffffff161480610aec5750610aeb85610ae6610e6d565b610a0a565b5b610b2b576040517f08c379a0000000000000000000000000000000000000000000000000000000008152600401610b2290612896565b60405180910390fd5b610b3885858585856113c8565b5050505050565b610b47610c2c565b600073ffffffffffffffffffffffffffffffffffffffff168173ffffffffffffffffffffffffffffffffffffffff1603610bb6576040517f08c379a0000000000000000000000000000000000000000000000000000000008152600401610bad90612a31565b60405180910390fd5b610bbf81611196565b50565b60007f01ffc9a7000000000000000000000000000000000000000000000000000000007bffffffffffffffffffffffffffffffffffffffffffffffffffffffff1916827bffffffffffffffffffffffffffffffffffffffffffffffffffffffff1916149050919050565b610c34610e6d565b73ffffffffffffffffffffffffffffffffffffffff16610c526109be565b73ffffffffffffffffffffffffffffffffffffffff1614610ca8576040517f08c379a0000000000000000000000000000000000000000000000000000000008152600401610c9f90612a9d565b60405180910390fd5b565b8060029081610cb99190612c69565b5050565b600073ffffffffffffffffffffffffffffffffffffffff168473ffffffffffffffffffffffffffffffffffffffff1603610d2c576040517f08c379a0000000000000000000000000000000000000000000000000000000008152600401610d2390612dad565b60405180910390fd5b6000610d36610e6d565b90506000610d4385611663565b90506000610d5085611663565b9050610d61836000898585896116dd565b8460008088815260200190815260200160002060008973ffffffffffffffffffffffffffffffffffffffff1673ffffffffffffffffffffffffffffffffffffffff1681526020019081526020016000206000828254610dc09190612784565b925050819055508673ffffffffffffffffffffffffffffffffffffffff16600073ffffffffffffffffffffffffffffffffffffffff168473ffffffffffffffffffffffffffffffffffffffff167fc3d58168c5ae7397731d063d5bbf3d657854427343f4c083240f7aacaa2d0f628989604051610e3e929190612dcd565b60405180910390a4610e55836000898585896116e5565b610e64836000898989896116ed565b50505050505050565b600033905090565b8151835114610eb9576040517f08c379a0000000000000000000000000000000000000000000000000000000008152600401610eb090612e68565b60405180910390fd5b600073ffffffffffffffffffffffffffffffffffffffff168473ffffffffffffffffffffffffffffffffffffffff1603610f28576040517f08c379a0000000000000000000000000000000000000000000000000000000008152600401610f1f90612efa565b60405180910390fd5b6000610f32610e6d565b9050610f428187878787876116dd565b60005b84518110156110f3576000858281518110610f6357610f62612948565b5b602002602001015190506000858381518110610f8257610f81612948565b5b60200260200101519050600080600084815260200190815260200160002060008b73ffffffffffffffffffffffffffffffffffffffff1673ffffffffffffffffffffffffffffffffffffffff16815260200190815260200160002054905081811015611023576040517f08c379a000000000000000000000000000000000000000000000000000000000815260040161101a90612f8c565b60405180910390fd5b81810360008085815260200190815260200160002060008c73ffffffffffffffffffffffffffffffffffffffff1673ffffffffffffffffffffffffffffffffffffffff168152602001908152602001600020819055508160008085815260200190815260200160002060008b73ffffffffffffffffffffffffffffffffffffffff1673ffffffffffffffffffffffffffffffffffffffff16815260200190815260200160002060008282546110d89190612784565b92505081905550505050806110ec90612977565b9050610f45565b508473ffffffffffffffffffffffffffffffffffffffff168673ffffffffffffffffffffffffffffffffffffffff168273ffffffffffffffffffffffffffffffffffffffff167f4a39dc06d4c0dbc64b70af90fd698a233a518aa5d07e595d983b8c0526c8f7fb878760405161116a929190612fac565b60405180910390a46111808187878787876116e5565b61118e8187878787876118c4565b505050505050565b6000600360009054906101000a900473ffffffffffffffffffffffffffffffffffffffff16905081600360006101000a81548173ffffffffffffffffffffffffffffffffffffffff021916908373ffffffffffffffffffffffffffffffffffffffff1602179055508173ffffffffffffffffffffffffffffffffffffffff168173ffffffffffffffffffffffffffffffffffffffff167f8be0079c531659141344cd1fd0a4f28419497f9722a3daafe3b4186f6b6457e060405160405180910390a35050565b8173ffffffffffffffffffffffffffffffffffffffff168373ffffffffffffffffffffffffffffffffffffffff16036112ca576040517f08c379a00000000000000000000000000000000000000000000000000000000081526004016112c190613055565b60405180910390fd5b80600160008573ffffffffffffffffffffffffffffffffffffffff1673ffffffffffffffffffffffffffffffffffffffff16815260200190815260200160002060008473ffffffffffffffffffffffffffffffffffffffff1673ffffffffffffffffffffffffffffffffffffffff16815260200190815260200160002060006101000a81548160ff0219169083151502179055508173ffffffffffffffffffffffffffffffffffffffff168373ffffffffffffffffffffffffffffffffffffffff167f17307eab39ab6107e8899845ad3d59bd9653f200f220920489ca2b5937696c31836040516113bb9190611c70565b60405180910390a3505050565b600073ffffffffffffffffffffffffffffffffffffffff168473ffffffffffffffffffffffffffffffffffffffff1603611437576040517f08c379a000000000000000000000000000000000000000000000000000000000815260040161142e90612efa565b60405180910390fd5b6000611441610e6d565b9050600061144e85611663565b9050600061145b85611663565b905061146b8389898585896116dd565b600080600088815260200190815260200160002060008a73ffffffffffffffffffffffffffffffffffffffff1673ffffffffffffffffffffffffffffffffffffffff16815260200190815260200160002054905085811015611502576040517f08c379a00000000000000000000000000000000000000000000000000000000081526004016114f990612f8c565b60405180910390fd5b85810360008089815260200190815260200160002060008b73ffffffffffffffffffffffffffffffffffffffff1673ffffffffffffffffffffffffffffffffffffffff168152602001908152602001600020819055508560008089815260200190815260200160002060008a73ffffffffffffffffffffffffffffffffffffffff1673ffffffffffffffffffffffffffffffffffffffff16815260200190815260200160002060008282546115b79190612784565b925050819055508773ffffffffffffffffffffffffffffffffffffffff168973ffffffffffffffffffffffffffffffffffffffff168573ffffffffffffffffffffffffffffffffffffffff167fc3d58168c5ae7397731d063d5bbf3d657854427343f4c083240f7aacaa2d0f628a8a604051611634929190612dcd565b60405180910390a461164a848a8a86868a6116e5565b611658848a8a8a8a8a6116ed565b505050505050505050565b60606000600167ffffffffffffffff81111561168257611681611ca6565b5b6040519080825280602002602001820160405280156116b05781602001602082028036833780820191505090505b50905082816000815181106116c8576116c7612948565b5b60200260200101818152505080915050919050565b505050505050565b505050505050565b61170c8473ffffffffffffffffffffffffffffffffffffffff16611a9b565b156118bc578373ffffffffffffffffffffffffffffffffffffffff1663f23a6e6187878686866040518663ffffffff1660e01b81526004016117529594939291906130ca565b6020604051808303816000875af192505050801561178e57506040513d601f19601f8201168201806040525081019061178b9190613139565b60015b6118335761179a613173565b806308c379a0036117f657506117ae613195565b806117b957506117f8565b806040517f08c379a00000000000000000000000000000000000000000000000000000000081526004016117ed9190611ec6565b60405180910390fd5b505b6040517f08c379a000000000000000000000000000000000000000000000000000000000815260040161182a90613297565b60405180910390fd5b63f23a6e6160e01b7bffffffffffffffffffffffffffffffffffffffffffffffffffffffff1916817bffffffffffffffffffffffffffffffffffffffffffffffffffffffff1916146118ba576040517f08c379a00000000000000000000000000000000000000000000000000000000081526004016118b190613329565b60405180910390fd5b505b505050505050565b6118e38473ffffffffffffffffffffffffffffffffffffffff16611a9b565b15611a93578373ffffffffffffffffffffffffffffffffffffffff1663bc197c8187878686866040518663ffffffff1660e01b8152600401611929959493929190613349565b6020604051808303816000875af192505050801561196557506040513d601f19601f820116820180604052508101906119629190613139565b60015b611a0a57611971613173565b806308c379a0036119cd5750611985613195565b8061199057506119cf565b806040517f08c379a00000000000000000000000000000000000000000000000000000000081526004016119c49190611ec6565b60405180910390fd5b505b6040517f08c379a0000000000000000000000000000000000000000000000000000000008152600401611a0190613297565b60405180910390fd5b63bc197c8160e01b7bffffffffffffffffffffffffffffffffffffffffffffffffffffffff1916817bffffffffffffffffffffffffffffffffffffffffffffffffffffffff191614611a91576040517f08c379a0000000000000000000000000000000000000000000000000000000008152600401611a8890613329565b60405180910390fd5b505b505050505050565b6000808273ffffffffffffffffffffffffffffffffffffffff163b119050919050565b6000604051905090565b600080fd5b600080fd5b600073ffffffffffffffffffffffffffffffffffffffff82169050919050565b6000611afd82611ad2565b9050919050565b611b0d81611af2565b8114611b1857600080fd5b50565b600081359050611b2a81611b04565b92915050565b6000819050919050565b611b4381611b30565b8114611b4e57600080fd5b50565b600081359050611b6081611b3a565b92915050565b60008060408385031215611b7d57611b7c611ac8565b5b6000611b8b85828601611b1b565b9250506020611b9c85828601611b51565b9150509250929050565b611baf81611b30565b82525050565b6000602082019050611bca6000830184611ba6565b92915050565b60007fffffffff0000000000000000000000000000000000000000000000000000000082169050919050565b611c0581611bd0565b8114611c1057600080fd5b50565b600081359050611c2281611bfc565b92915050565b600060208284031215611c3e57611c3d611ac8565b5b6000611c4c84828501611c13565b91505092915050565b60008115159050919050565b611c6a81611c55565b82525050565b6000602082019050611c856000830184611c61565b92915050565b600080fd5b600080fd5b6000601f19601f8301169050919050565b7f4e487b7100000000000000000000000000000000000000000000000000000000600052604160045260246000fd5b611cde82611c95565b810181811067ffffffffffffffff82111715611cfd57611cfc611ca6565b5b80604052505050565b6000611d10611abe565b9050611d1c8282611cd5565b919050565b600067ffffffffffffffff821115611d3c57611d3b611ca6565b5b611d4582611c95565b9050602081019050919050565b82818337600083830152505050565b6000611d74611d6f84611d21565b611d06565b905082815260208101848484011115611d9057611d8f611c90565b5b611d9b848285611d52565b509392505050565b600082601f830112611db857611db7611c8b565b5b8135611dc8848260208601611d61565b91505092915050565b600060208284031215611de757611de6611ac8565b5b600082013567ffffffffffffffff811115611e0557611e04611acd565b5b611e1184828501611da3565b91505092915050565b600060208284031215611e3057611e2f611ac8565b5b6000611e3e84828501611b51565b91505092915050565b600081519050919050565b600082825260208201905092915050565b60005b83811015611e81578082015181840152602081019050611e66565b60008484015250505050565b6000611e9882611e47565b611ea28185611e52565b9350611eb2818560208601611e63565b611ebb81611c95565b840191505092915050565b60006020820190508181036000830152611ee08184611e8d565b905092915050565b60008060408385031215611eff57611efe611ac8565b5b6000611f0d85828601611b51565b9250506020611f1e85828601611b51565b9150509250929050565b600067ffffffffffffffff821115611f4357611f42611ca6565b5b602082029050602081019050919050565b600080fd5b6000611f6c611f6784611f28565b611d06565b90508083825260208201905060208402830185811115611f8f57611f8e611f54565b5b835b81811015611fb85780611fa48882611b51565b845260208401935050602081019050611f91565b5050509392505050565b600082601f830112611fd757611fd6611c8b565b5b8135611fe7848260208601611f59565b91505092915050565b600067ffffffffffffffff82111561200b5761200a611ca6565b5b61201482611c95565b9050602081019050919050565b600061203461202f84611ff0565b611d06565b9050828152602081018484840111156120505761204f611c90565b5b61205b848285611d52565b509392505050565b600082601f83011261207857612077611c8b565b5b8135612088848260208601612021565b91505092915050565b600080600080600060a086880312156120ad576120ac611ac8565b5b60006120bb88828901611b1b565b95505060206120cc88828901611b1b565b945050604086013567ffffffffffffffff8111156120ed576120ec611acd565b5b6120f988828901611fc2565b935050606086013567ffffffffffffffff81111561211a57612119611acd565b5b61212688828901611fc2565b925050608086013567ffffffffffffffff81111561214757612146611acd565b5b61215388828901612063565b9150509295509295909350565b600067ffffffffffffffff82111561217b5761217a611ca6565b5b602082029050602081019050919050565b600061219f61219a84612160565b611d06565b905080838252602082019050602084028301858111156121c2576121c1611f54565b5b835b818110156121eb57806121d78882611b1b565b8452602084019350506020810190506121c4565b5050509392505050565b600082601f83011261220a57612209611c8b565b5b813561221a84826020860161218c565b91505092915050565b6000806040838503121561223a57612239611ac8565b5b600083013567ffffffffffffffff81111561225857612257611acd565b5b612264858286016121f5565b925050602083013567ffffffffffffffff81111561228557612284611acd565b5b61229185828601611fc2565b9150509250929050565b600081519050919050565b600082825260208201905092915050565b6000819050602082019050919050565b6122d081611b30565b82525050565b60006122e283836122c7565b60208301905092915050565b6000602082019050919050565b60006123068261229b565b61231081856122a6565b935061231b836122b7565b8060005b8381101561234c57815161233388826122d6565b975061233e836122ee565b92505060018101905061231f565b5085935050505092915050565b6000602082019050818103600083015261237381846122fb565b905092915050565b61238481611af2565b82525050565b600060208201905061239f600083018461237b565b92915050565b6123ae81611c55565b81146123b957600080fd5b50565b6000813590506123cb816123a5565b92915050565b600080604083850312156123e8576123e7611ac8565b5b60006123f685828601611b1b565b9250506020612407858286016123bc565b9150509250929050565b6000806040838503121561242857612427611ac8565b5b600061243685828601611b1b565b925050602061244785828601611b1b565b9150509250929050565b600080600080600060a0868803121561246d5761246c611ac8565b5b600061247b88828901611b1b565b955050602061248c88828901611b1b565b945050604061249d88828901611b51565b93505060606124ae88828901611b51565b925050608086013567ffffffffffffffff8111156124cf576124ce611acd565b5b6124db88828901612063565b9150509295509295909350565b6000602082840312156124fe576124fd611ac8565b5b600061250c84828501611b1b565b91505092915050565b7f455243313135353a2061646472657373207a65726f206973206e6f742061207660008201527f616c6964206f776e657200000000000000000000000000000000000000000000602082015250565b6000612571602a83611e52565b915061257c82612515565b604082019050919050565b600060208201905081810360008301526125a081612564565b9050919050565b7f4e487b7100000000000000000000000000000000000000000000000000000000600052602260045260246000fd5b600060028204905060018216806125ee57607f821691505b602082108103612601576126006125a7565b5b50919050565b7f546f6b656e20646f65736e277420657869737400000000000000000000000000600082015250565b600061263d601383611e52565b915061264882612607565b602082019050919050565b6000602082019050818103600083015261266c81612630565b9050919050565b7f4e487b7100000000000000000000000000000000000000000000000000000000600052601160045260246000fd5b60006126ad82611b30565b91506126b883611b30565b92508282026126c681611b30565b915082820484148315176126dd576126dc612673565b5b5092915050565b7f4e6f7420656e6f7567682065746865722073656e740000000000000000000000600082015250565b600061271a601583611e52565b9150612725826126e4565b602082019050919050565b600060208201905081810360008301526127498161270d565b9050919050565b600061275b82611b30565b915061276683611b30565b925082820390508181111561277e5761277d612673565b5b92915050565b600061278f82611b30565b915061279a83611b30565b92508282019050808211156127b2576127b1612673565b5b92915050565b7f6e6f7420656e6f7567687420737570706c79206c656674000000000000000000600082015250565b60006127ee601783611e52565b91506127f9826127b8565b602082019050919050565b6000602082019050818103600083015261281d816127e1565b9050919050565b7f455243313135353a2063616c6c6572206973206e6f7420746f6b656e206f776e60008201527f6572206f7220617070726f766564000000000000000000000000000000000000602082015250565b6000612880602e83611e52565b915061288b82612824565b604082019050919050565b600060208201905081810360008301526128af81612873565b9050919050565b7f455243313135353a206163636f756e747320616e6420696473206c656e67746860008201527f206d69736d617463680000000000000000000000000000000000000000000000602082015250565b6000612912602983611e52565b915061291d826128b6565b604082019050919050565b6000602082019050818103600083015261294181612905565b9050919050565b7f4e487b7100000000000000000000000000000000000000000000000000000000600052603260045260246000fd5b600061298282611b30565b91507fffffffffffffffffffffffffffffffffffffffffffffffffffffffffffffffff82036129b4576129b3612673565b5b600182019050919050565b7f4f776e61626c653a206e6577206f776e657220697320746865207a65726f206160008201527f6464726573730000000000000000000000000000000000000000000000000000602082015250565b6000612a1b602683611e52565b9150612a26826129bf565b604082019050919050565b60006020820190508181036000830152612a4a81612a0e565b9050919050565b7f4f776e61626c653a2063616c6c6572206973206e6f7420746865206f776e6572600082015250565b6000612a87602083611e52565b9150612a9282612a51565b602082019050919050565b60006020820190508181036000830152612ab681612a7a565b9050919050565b60008190508160005260206000209050919050565b60006020601f8301049050919050565b600082821b905092915050565b600060088302612b1f7fffffffffffffffffffffffffffffffffffffffffffffffffffffffffffffffff82612ae2565b612b298683612ae2565b95508019841693508086168417925050509392505050565b6000819050919050565b6000612b66612b61612b5c84611b30565b612b41565b611b30565b9050919050565b6000819050919050565b612b8083612b4b565b612b94612b8c82612b6d565b848454612aef565b825550505050565b600090565b612ba9612b9c565b612bb4818484612b77565b505050565b5b81811015612bd857612bcd600082612ba1565b600181019050612bba565b5050565b601f821115612c1d57612bee81612abd565b612bf784612ad2565b81016020851015612c06578190505b612c1a612c1285612ad2565b830182612bb9565b50505b505050565b600082821c905092915050565b6000612c4060001984600802612c22565b1980831691505092915050565b6000612c598383612c2f565b9150826002028217905092915050565b612c7282611e47565b67ffffffffffffffff811115612c8b57612c8a611ca6565b5b612c9582546125d6565b612ca0828285612bdc565b600060209050601f831160018114612cd35760008415612cc1578287015190505b612ccb8582612c4d565b865550612d33565b601f198416612ce186612abd565b60005b82811015612d0957848901518255600182019150602085019450602081019050612ce4565b86831015612d265784890151612d22601f891682612c2f565b8355505b6001600288020188555050505b505050505050565b7f455243313135353a206d696e7420746f20746865207a65726f2061646472657360008201527f7300000000000000000000000000000000000000000000000000000000000000602082015250565b6000612d97602183611e52565b9150612da282612d3b565b604082019050919050565b60006020820190508181036000830152612dc681612d8a565b9050919050565b6000604082019050612de26000830185611ba6565b612def6020830184611ba6565b9392505050565b7f455243313135353a2069647320616e6420616d6f756e7473206c656e6774682060008201527f6d69736d61746368000000000000000000000000000000000000000000000000602082015250565b6000612e52602883611e52565b9150612e5d82612df6565b604082019050919050565b60006020820190508181036000830152612e8181612e45565b9050919050565b7f455243313135353a207472616e7366657220746f20746865207a65726f20616460008201527f6472657373000000000000000000000000000000000000000000000000000000602082015250565b6000612ee4602583611e52565b9150612eef82612e88565b604082019050919050565b60006020820190508181036000830152612f1381612ed7565b9050919050565b7f455243313135353a20696e73756666696369656e742062616c616e636520666f60008201527f72207472616e7366657200000000000000000000000000000000000000000000602082015250565b6000612f76602a83611e52565b9150612f8182612f1a565b604082019050919050565b60006020820190508181036000830152612fa581612f69565b9050919050565b60006040820190508181036000830152612fc681856122fb565b90508181036020830152612fda81846122fb565b90509392505050565b7f455243313135353a2073657474696e6720617070726f76616c2073746174757360008201527f20666f722073656c660000000000000000000000000000000000000000000000602082015250565b600061303f602983611e52565b915061304a82612fe3565b604082019050919050565b6000602082019050818103600083015261306e81613032565b9050919050565b600081519050919050565b600082825260208201905092915050565b600061309c82613075565b6130a68185613080565b93506130b6818560208601611e63565b6130bf81611c95565b840191505092915050565b600060a0820190506130df600083018861237b565b6130ec602083018761237b565b6130f96040830186611ba6565b6131066060830185611ba6565b81810360808301526131188184613091565b90509695505050505050565b60008151905061313381611bfc565b92915050565b60006020828403121561314f5761314e611ac8565b5b600061315d84828501613124565b91505092915050565b60008160e01c9050919050565b600060033d11156131925760046000803e61318f600051613166565b90505b90565b600060443d10613222576131a7611abe565b60043d036004823e80513d602482011167ffffffffffffffff821117156131cf575050613222565b808201805167ffffffffffffffff8111156131ed5750505050613222565b80602083010160043d03850181111561320a575050505050613222565b61321982602001850186611cd5565b82955050505050505b90565b7f455243313135353a207472616e7366657220746f206e6f6e2d4552433131353560008201527f526563656976657220696d706c656d656e746572000000000000000000000000602082015250565b6000613281603483611e52565b915061328c82613225565b604082019050919050565b600060208201905081810360008301526132b081613274565b9050919050565b7f455243313135353a204552433131353552656365697665722072656a6563746560008201527f6420746f6b656e73000000000000000000000000000000000000000000000000602082015250565b6000613313602883611e52565b915061331e826132b7565b604082019050919050565b6000602082019050818103600083015261334281613306565b9050919050565b600060a08201905061335e600083018861237b565b61336b602083018761237b565b818103604083015261337d81866122fb565b9050818103606083015261339181856122fb565b905081810360808301526133a58184613091565b9050969550505050505056fea2646970667358221220b69c6c2da91cba9342cb65762586b4ef9c341fc0481559aa888a25b001e6a42f64736f6c63430008110033","opcodes":"PUSH1 0x80 PUSH1 0x40 MSTORE PUSH8 0xDE0B6B3A7640000 PUSH1 0x4 SSTORE PUSH1 0x1 PUSH1 0x5 SSTORE PUSH1 0x40 MLOAD DUP1 PUSH1 0x60 ADD PUSH1 0x40 MSTORE DUP1 PUSH1 0x1 PUSH1 0xFF AND DUP2 MSTORE PUSH1 0x20 ADD PUSH1 0x2 PUSH1 0xFF AND DUP2 MSTORE PUSH1 0x20 ADD PUSH1 0x3 PUSH1 0xFF AND DUP2 MSTORE POP PUSH1 0x6 SWAP1 PUSH1 0x3 PUSH3 0x4E SWAP3 SWAP2 SWAP1 PUSH3 0x18D JUMP JUMPDEST POP PUSH1 0x2 PUSH1 0x7 SSTORE CALLVALUE DUP1 ISZERO PUSH3 0x61 JUMPI PUSH1 0x0 DUP1 REVERT JUMPDEST POP PUSH1 0x40 MLOAD DUP1 PUSH1 0x20 ADD PUSH1 0x40 MSTORE DUP1 PUSH1 0x0 DUP2 MSTORE POP PUSH3 0x83 DUP2 PUSH3 0xAA PUSH1 0x20 SHL PUSH1 0x20 SHR JUMP JUMPDEST POP PUSH3 0xA4 PUSH3 0x98 PUSH3 0xBF PUSH1 0x20 SHL PUSH1 0x20 SHR JUMP JUMPDEST PUSH3 0xC7 PUSH1 0x20 SHL PUSH1 0x20 SHR JUMP JUMPDEST PUSH3 0x564 JUMP JUMPDEST DUP1 PUSH1 0x2 SWAP1 DUP2 PUSH3 0xBB SWAP2 SWAP1 PUSH3 0x47D JUMP JUMPDEST POP POP JUMP JUMPDEST PUSH1 0x0 CALLER SWAP1 POP SWAP1 JUMP JUMPDEST PUSH1 0x0 PUSH1 0x3 PUSH1 0x0 SWAP1 SLOAD SWAP1 PUSH2 0x100 EXP SWAP1 DIV PUSH20 0xFFFFFFFFFFFFFFFFFFFFFFFFFFFFFFFFFFFFFFFF AND SWAP1 POP DUP2 PUSH1 0x3 PUSH1 0x0 PUSH2 0x100 EXP DUP2 SLOAD DUP2 PUSH20 0xFFFFFFFFFFFFFFFFFFFFFFFFFFFFFFFFFFFFFFFF MUL NOT AND SWAP1 DUP4 PUSH20 0xFFFFFFFFFFFFFFFFFFFFFFFFFFFFFFFFFFFFFFFF AND MUL OR SWAP1 SSTORE POP DUP2 PUSH20 0xFFFFFFFFFFFFFFFFFFFFFFFFFFFFFFFFFFFFFFFF AND DUP2 PUSH20 0xFFFFFFFFFFFFFFFFFFFFFFFFFFFFFFFFFFFFFFFF AND PUSH32 0x8BE0079C531659141344CD1FD0A4F28419497F9722A3DAAFE3B4186F6B6457E0 PUSH1 0x40 MLOAD PUSH1 0x40 MLOAD DUP1 SWAP2 SUB SWAP1 LOG3 POP POP JUMP JUMPDEST DUP3 DUP1 SLOAD DUP3 DUP3 SSTORE SWAP1 PUSH1 0x0 MSTORE PUSH1 0x20 PUSH1 0x0 KECCAK256 SWAP1 DUP2 ADD SWAP3 DUP3 ISZERO PUSH3 0x1D1 JUMPI SWAP2 PUSH1 0x20 MUL DUP3 ADD JUMPDEST DUP3 DUP2 GT ISZERO PUSH3 0x1D0 JUMPI DUP3 MLOAD DUP3 SWAP1 PUSH1 0xFF AND SWAP1 SSTORE SWAP2 PUSH1 0x20 ADD SWAP2 SWAP1 PUSH1 0x1 ADD SWAP1 PUSH3 0x1AE JUMP JUMPDEST JUMPDEST POP SWAP1 POP PUSH3 0x1E0 SWAP2 SWAP1 PUSH3 0x1E4 JUMP JUMPDEST POP SWAP1 JUMP JUMPDEST JUMPDEST DUP1 DUP3 GT ISZERO PUSH3 0x1FF JUMPI PUSH1 0x0 DUP2 PUSH1 0x0 SWAP1 SSTORE POP PUSH1 0x1 ADD PUSH3 0x1E5 JUMP JUMPDEST POP SWAP1 JUMP JUMPDEST PUSH1 0x0 DUP2 MLOAD SWAP1 POP SWAP2 SWAP1 POP JUMP JUMPDEST PUSH32 0x4E487B7100000000000000000000000000000000000000000000000000000000 PUSH1 0x0 MSTORE PUSH1 0x41 PUSH1 0x4 MSTORE PUSH1 0x24 PUSH1 0x0 REVERT JUMPDEST PUSH32 0x4E487B7100000000000000000000000000000000000000000000000000000000 PUSH1 0x0 MSTORE PUSH1 0x22 PUSH1 0x4 MSTORE PUSH1 0x24 PUSH1 0x0 REVERT JUMPDEST PUSH1 0x0 PUSH1 0x2 DUP3 DIV SWAP1 POP PUSH1 0x1 DUP3 AND DUP1 PUSH3 0x285 JUMPI PUSH1 0x7F DUP3 AND SWAP2 POP JUMPDEST PUSH1 0x20 DUP3 LT DUP2 SUB PUSH3 0x29B JUMPI PUSH3 0x29A PUSH3 0x23D JUMP JUMPDEST JUMPDEST POP SWAP2 SWAP1 POP JUMP JUMPDEST PUSH1 0x0 DUP2 SWAP1 POP DUP2 PUSH1 0x0 MSTORE PUSH1 0x20 PUSH1 0x0 KECCAK256 SWAP1 POP SWAP2 SWAP1 POP JUMP JUMPDEST PUSH1 0x0 PUSH1 0x20 PUSH1 0x1F DUP4 ADD DIV SWAP1 POP SWAP2 SWAP1 POP JUMP JUMPDEST PUSH1 0x0 DUP3 DUP3 SHL SWAP1 POP SWAP3 SWAP2 POP POP JUMP JUMPDEST PUSH1 0x0 PUSH1 0x8 DUP4 MUL PUSH3 0x305 PUSH32 0xFFFFFFFFFFFFFFFFFFFFFFFFFFFFFFFFFFFFFFFFFFFFFFFFFFFFFFFFFFFFFFFF DUP3 PUSH3 0x2C6 JUMP JUMPDEST PUSH3 0x311 DUP7 DUP4 PUSH3 0x2C6 JUMP JUMPDEST SWAP6 POP DUP1 NOT DUP5 AND SWAP4 POP DUP1 DUP7 AND DUP5 OR SWAP3 POP POP POP SWAP4 SWAP3 POP POP POP JUMP JUMPDEST PUSH1 0x0 DUP2 SWAP1 POP SWAP2 SWAP1 POP JUMP JUMPDEST PUSH1 0x0 DUP2 SWAP1 POP SWAP2 SWAP1 POP JUMP JUMPDEST PUSH1 0x0 PUSH3 0x35E PUSH3 0x358 PUSH3 0x352 DUP5 PUSH3 0x329 JUMP JUMPDEST PUSH3 0x333 JUMP JUMPDEST PUSH3 0x329 JUMP JUMPDEST SWAP1 POP SWAP2 SWAP1 POP JUMP JUMPDEST PUSH1 0x0 DUP2 SWAP1 POP SWAP2 SWAP1 POP JUMP JUMPDEST PUSH3 0x37A DUP4 PUSH3 0x33D JUMP JUMPDEST PUSH3 0x392 PUSH3 0x389 DUP3 PUSH3 0x365 JUMP JUMPDEST DUP5 DUP5 SLOAD PUSH3 0x2D3 JUMP JUMPDEST DUP3 SSTORE POP POP POP POP JUMP JUMPDEST PUSH1 0x0 SWAP1 JUMP JUMPDEST PUSH3 0x3A9 PUSH3 0x39A JUMP JUMPDEST PUSH3 0x3B6 DUP2 DUP5 DUP5 PUSH3 0x36F JUMP JUMPDEST POP POP POP JUMP JUMPDEST JUMPDEST DUP2 DUP2 LT ISZERO PUSH3 0x3DE JUMPI PUSH3 0x3D2 PUSH1 0x0 DUP3 PUSH3 0x39F JUMP JUMPDEST PUSH1 0x1 DUP2 ADD SWAP1 POP PUSH3 0x3BC JUMP JUMPDEST POP POP JUMP JUMPDEST PUSH1 0x1F DUP3 GT ISZERO PUSH3 0x42D JUMPI PUSH3 0x3F7 DUP2 PUSH3 0x2A1 JUMP JUMPDEST PUSH3 0x402 DUP5 PUSH3 0x2B6 JUMP JUMPDEST DUP2 ADD PUSH1 0x20 DUP6 LT ISZERO PUSH3 0x412 JUMPI DUP2 SWAP1 POP JUMPDEST PUSH3 0x42A PUSH3 0x421 DUP6 PUSH3 0x2B6 JUMP JUMPDEST DUP4 ADD DUP3 PUSH3 0x3BB JUMP JUMPDEST POP POP JUMPDEST POP POP POP JUMP JUMPDEST PUSH1 0x0 DUP3 DUP3 SHR SWAP1 POP SWAP3 SWAP2 POP POP JUMP JUMPDEST PUSH1 0x0 PUSH3 0x452 PUSH1 0x0 NOT DUP5 PUSH1 0x8 MUL PUSH3 0x432 JUMP JUMPDEST NOT DUP1 DUP4 AND SWAP2 POP POP SWAP3 SWAP2 POP POP JUMP JUMPDEST PUSH1 0x0 PUSH3 0x46D DUP4 DUP4 PUSH3 0x43F JUMP JUMPDEST SWAP2 POP DUP3 PUSH1 0x2 MUL DUP3 OR SWAP1 POP SWAP3 SWAP2 POP POP JUMP JUMPDEST PUSH3 0x488 DUP3 PUSH3 0x203 JUMP JUMPDEST PUSH8 0xFFFFFFFFFFFFFFFF DUP2 GT ISZERO PUSH3 0x4A4 JUMPI PUSH3 0x4A3 PUSH3 0x20E JUMP JUMPDEST JUMPDEST PUSH3 0x4B0 DUP3 SLOAD PUSH3 0x26C JUMP JUMPDEST PUSH3 0x4BD DUP3 DUP3 DUP6 PUSH3 0x3E2 JUMP JUMPDEST PUSH1 0x0 PUSH1 0x20 SWAP1 POP PUSH1 0x1F DUP4 GT PUSH1 0x1 DUP2 EQ PUSH3 0x4F5 JUMPI PUSH1 0x0 DUP5 ISZERO PUSH3 0x4E0 JUMPI DUP3 DUP8 ADD MLOAD SWAP1 POP JUMPDEST PUSH3 0x4EC DUP6 DUP3 PUSH3 0x45F JUMP JUMPDEST DUP7 SSTORE POP PUSH3 0x55C JUMP JUMPDEST PUSH1 0x1F NOT DUP5 AND PUSH3 0x505 DUP7 PUSH3 0x2A1 JUMP JUMPDEST PUSH1 0x0 JUMPDEST DUP3 DUP2 LT ISZERO PUSH3 0x52F JUMPI DUP5 DUP10 ADD MLOAD DUP3 SSTORE PUSH1 0x1 DUP3 ADD SWAP2 POP PUSH1 0x20 DUP6 ADD SWAP5 POP PUSH1 0x20 DUP2 ADD SWAP1 POP PUSH3 0x508 JUMP JUMPDEST DUP7 DUP4 LT ISZERO PUSH3 0x54F JUMPI DUP5 DUP10 ADD MLOAD PUSH3 0x54B PUSH1 0x1F DUP10 AND DUP3 PUSH3 0x43F JUMP JUMPDEST DUP4 SSTORE POP JUMPDEST PUSH1 0x1 PUSH1 0x2 DUP9 MUL ADD DUP9 SSTORE POP POP POP JUMPDEST POP POP POP POP POP POP JUMP JUMPDEST PUSH2 0x33E7 DUP1 PUSH3 0x574 PUSH1 0x0 CODECOPY PUSH1 0x0 RETURN INVALID PUSH1 0x80 PUSH1 0x40 MSTORE PUSH1 0x4 CALLDATASIZE LT PUSH2 0xFD JUMPI PUSH1 0x0 CALLDATALOAD PUSH1 0xE0 SHR DUP1 PUSH4 0x715018A6 GT PUSH2 0x95 JUMPI DUP1 PUSH4 0xA22CB465 GT PUSH2 0x64 JUMPI DUP1 PUSH4 0xA22CB465 EQ PUSH2 0x339 JUMPI DUP1 PUSH4 0xCA0DCF16 EQ PUSH2 0x362 JUMPI DUP1 PUSH4 0xE985E9C5 EQ PUSH2 0x38D JUMPI DUP1 PUSH4 0xF242432A EQ PUSH2 0x3CA JUMPI DUP1 PUSH4 0xF2FDE38B EQ PUSH2 0x3F3 JUMPI PUSH2 0xFD JUMP JUMPDEST DUP1 PUSH4 0x715018A6 EQ PUSH2 0x28F JUMPI DUP1 PUSH4 0x7DCB0E5F EQ PUSH2 0x2A6 JUMPI DUP1 PUSH4 0x8DA5CB5B EQ PUSH2 0x2E3 JUMPI DUP1 PUSH4 0x8EFA8874 EQ PUSH2 0x30E JUMPI PUSH2 0xFD JUMP JUMPDEST DUP1 PUSH4 0x1B2EF1CA GT PUSH2 0xD1 JUMPI DUP1 PUSH4 0x1B2EF1CA EQ PUSH2 0x1E2 JUMPI DUP1 PUSH4 0x2EB2C2D6 EQ PUSH2 0x1FE JUMPI DUP1 PUSH4 0x4E1273F4 EQ PUSH2 0x227 JUMPI DUP1 PUSH4 0x4F02C420 EQ PUSH2 0x264 JUMPI PUSH2 0xFD JUMP JUMPDEST DUP1 PUSH3 0xFDD58E EQ PUSH2 0x102 JUMPI DUP1 PUSH4 0x1FFC9A7 EQ PUSH2 0x13F JUMPI DUP1 PUSH4 0x2FE5305 EQ PUSH2 0x17C JUMPI DUP1 PUSH4 0xE89341C EQ PUSH2 0x1A5 JUMPI JUMPDEST PUSH1 0x0 DUP1 REVERT JUMPDEST CALLVALUE DUP1 ISZERO PUSH2 0x10E JUMPI PUSH1 0x0 DUP1 REVERT JUMPDEST POP PUSH2 0x129 PUSH1 0x4 DUP1 CALLDATASIZE SUB DUP2 ADD SWAP1 PUSH2 0x124 SWAP2 SWAP1 PUSH2 0x1B66 JUMP JUMPDEST PUSH2 0x41C JUMP JUMPDEST PUSH1 0x40 MLOAD PUSH2 0x136 SWAP2 SWAP1 PUSH2 0x1BB5 JUMP JUMPDEST PUSH1 0x40 MLOAD DUP1 SWAP2 SUB SWAP1 RETURN JUMPDEST CALLVALUE DUP1 ISZERO PUSH2 0x14B JUMPI PUSH1 0x0 DUP1 REVERT JUMPDEST POP PUSH2 0x166 PUSH1 0x4 DUP1 CALLDATASIZE SUB DUP2 ADD SWAP1 PUSH2 0x161 SWAP2 SWAP1 PUSH2 0x1C28 JUMP JUMPDEST PUSH2 0x4E4 JUMP JUMPDEST PUSH1 0x40 MLOAD PUSH2 0x173 SWAP2 SWAP1 PUSH2 0x1C70 JUMP JUMPDEST PUSH1 0x40 MLOAD DUP1 SWAP2 SUB SWAP1 RETURN JUMPDEST CALLVALUE DUP1 ISZERO PUSH2 0x188 JUMPI PUSH1 0x0 DUP1 REVERT JUMPDEST POP PUSH2 0x1A3 PUSH1 0x4 DUP1 CALLDATASIZE SUB DUP2 ADD SWAP1 PUSH2 0x19E SWAP2 SWAP1 PUSH2 0x1DD1 JUMP JUMPDEST PUSH2 0x5C6 JUMP JUMPDEST STOP JUMPDEST CALLVALUE DUP1 ISZERO PUSH2 0x1B1 JUMPI PUSH1 0x0 DUP1 REVERT JUMPDEST POP PUSH2 0x1CC PUSH1 0x4 DUP1 CALLDATASIZE SUB DUP2 ADD SWAP1 PUSH2 0x1C7 SWAP2 SWAP1 PUSH2 0x1E1A JUMP JUMPDEST PUSH2 0x5DA JUMP JUMPDEST PUSH1 0x40 MLOAD PUSH2 0x1D9 SWAP2 SWAP1 PUSH2 0x1EC6 JUMP JUMPDEST PUSH1 0x40 MLOAD DUP1 SWAP2 SUB SWAP1 RETURN JUMPDEST PUSH2 0x1FC PUSH1 0x4 DUP1 CALLDATASIZE SUB DUP2 ADD SWAP1 PUSH2 0x1F7 SWAP2 SWAP1 PUSH2 0x1EE8 JUMP JUMPDEST PUSH2 0x66E JUMP JUMPDEST STOP JUMPDEST CALLVALUE DUP1 ISZERO PUSH2 0x20A JUMPI PUSH1 0x0 DUP1 REVERT JUMPDEST POP PUSH2 0x225 PUSH1 0x4 DUP1 CALLDATASIZE SUB DUP2 ADD SWAP1 PUSH2 0x220 SWAP2 SWAP1 PUSH2 0x2091 JUMP JUMPDEST PUSH2 0x7C6 JUMP JUMPDEST STOP JUMPDEST CALLVALUE DUP1 ISZERO PUSH2 0x233 JUMPI PUSH1 0x0 DUP1 REVERT JUMPDEST POP PUSH2 0x24E PUSH1 0x4 DUP1 CALLDATASIZE SUB DUP2 ADD SWAP1 PUSH2 0x249 SWAP2 SWAP1 PUSH2 0x2223 JUMP JUMPDEST PUSH2 0x867 JUMP JUMPDEST PUSH1 0x40 MLOAD PUSH2 0x25B SWAP2 SWAP1 PUSH2 0x2359 JUMP JUMPDEST PUSH1 0x40 MLOAD DUP1 SWAP2 SUB SWAP1 RETURN JUMPDEST CALLVALUE DUP1 ISZERO PUSH2 0x270 JUMPI PUSH1 0x0 DUP1 REVERT JUMPDEST POP PUSH2 0x279 PUSH2 0x980 JUMP JUMPDEST PUSH1 0x40 MLOAD PUSH2 0x286 SWAP2 SWAP1 PUSH2 0x1BB5 JUMP JUMPDEST PUSH1 0x40 MLOAD DUP1 SWAP2 SUB SWAP1 RETURN JUMPDEST CALLVALUE DUP1 ISZERO PUSH2 0x29B JUMPI PUSH1 0x0 DUP1 REVERT JUMPDEST POP PUSH2 0x2A4 PUSH2 0x986 JUMP JUMPDEST STOP JUMPDEST CALLVALUE DUP1 ISZERO PUSH2 0x2B2 JUMPI PUSH1 0x0 DUP1 REVERT JUMPDEST POP PUSH2 0x2CD PUSH1 0x4 DUP1 CALLDATASIZE SUB DUP2 ADD SWAP1 PUSH2 0x2C8 SWAP2 SWAP1 PUSH2 0x1E1A JUMP JUMPDEST PUSH2 0x99A JUMP JUMPDEST PUSH1 0x40 MLOAD PUSH2 0x2DA SWAP2 SWAP1 PUSH2 0x1BB5 JUMP JUMPDEST PUSH1 0x40 MLOAD DUP1 SWAP2 SUB SWAP1 RETURN JUMPDEST CALLVALUE DUP1 ISZERO PUSH2 0x2EF JUMPI PUSH1 0x0 DUP1 REVERT JUMPDEST POP PUSH2 0x2F8 PUSH2 0x9BE JUMP JUMPDEST PUSH1 0x40 MLOAD PUSH2 0x305 SWAP2 SWAP1 PUSH2 0x238A JUMP JUMPDEST PUSH1 0x40 MLOAD DUP1 SWAP2 SUB SWAP1 RETURN JUMPDEST CALLVALUE DUP1 ISZERO PUSH2 0x31A JUMPI PUSH1 0x0 DUP1 REVERT JUMPDEST POP PUSH2 0x323 PUSH2 0x9E8 JUMP JUMPDEST PUSH1 0x40 MLOAD PUSH2 0x330 SWAP2 SWAP1 PUSH2 0x1BB5 JUMP JUMPDEST PUSH1 0x40 MLOAD DUP1 SWAP2 SUB SWAP1 RETURN JUMPDEST CALLVALUE DUP1 ISZERO PUSH2 0x345 JUMPI PUSH1 0x0 DUP1 REVERT JUMPDEST POP PUSH2 0x360 PUSH1 0x4 DUP1 CALLDATASIZE SUB DUP2 ADD SWAP1 PUSH2 0x35B SWAP2 SWAP1 PUSH2 0x23D1 JUMP JUMPDEST PUSH2 0x9EE JUMP JUMPDEST STOP JUMPDEST CALLVALUE DUP1 ISZERO PUSH2 0x36E JUMPI PUSH1 0x0 DUP1 REVERT JUMPDEST POP PUSH2 0x377 PUSH2 0xA04 JUMP JUMPDEST PUSH1 0x40 MLOAD PUSH2 0x384 SWAP2 SWAP1 PUSH2 0x1BB5 JUMP JUMPDEST PUSH1 0x40 MLOAD DUP1 SWAP2 SUB SWAP1 RETURN JUMPDEST CALLVALUE DUP1 ISZERO PUSH2 0x399 JUMPI PUSH1 0x0 DUP1 REVERT JUMPDEST POP PUSH2 0x3B4 PUSH1 0x4 DUP1 CALLDATASIZE SUB DUP2 ADD SWAP1 PUSH2 0x3AF SWAP2 SWAP1 PUSH2 0x2411 JUMP JUMPDEST PUSH2 0xA0A JUMP JUMPDEST PUSH1 0x40 MLOAD PUSH2 0x3C1 SWAP2 SWAP1 PUSH2 0x1C70 JUMP JUMPDEST PUSH1 0x40 MLOAD DUP1 SWAP2 SUB SWAP1 RETURN JUMPDEST CALLVALUE DUP1 ISZERO PUSH2 0x3D6 JUMPI PUSH1 0x0 DUP1 REVERT JUMPDEST POP PUSH2 0x3F1 PUSH1 0x4 DUP1 CALLDATASIZE SUB DUP2 ADD SWAP1 PUSH2 0x3EC SWAP2 SWAP1 PUSH2 0x2451 JUMP JUMPDEST PUSH2 0xA9E JUMP JUMPDEST STOP JUMPDEST CALLVALUE DUP1 ISZERO PUSH2 0x3FF JUMPI PUSH1 0x0 DUP1 REVERT JUMPDEST POP PUSH2 0x41A PUSH1 0x4 DUP1 CALLDATASIZE SUB DUP2 ADD SWAP1 PUSH2 0x415 SWAP2 SWAP1 PUSH2 0x24E8 JUMP JUMPDEST PUSH2 0xB3F JUMP JUMPDEST STOP JUMPDEST PUSH1 0x0 DUP1 PUSH20 0xFFFFFFFFFFFFFFFFFFFFFFFFFFFFFFFFFFFFFFFF AND DUP4 PUSH20 0xFFFFFFFFFFFFFFFFFFFFFFFFFFFFFFFFFFFFFFFF AND SUB PUSH2 0x48C JUMPI PUSH1 0x40 MLOAD PUSH32 0x8C379A000000000000000000000000000000000000000000000000000000000 DUP2 MSTORE PUSH1 0x4 ADD PUSH2 0x483 SWAP1 PUSH2 0x2587 JUMP JUMPDEST PUSH1 0x40 MLOAD DUP1 SWAP2 SUB SWAP1 REVERT JUMPDEST PUSH1 0x0 DUP1 DUP4 DUP2 MSTORE PUSH1 0x20 ADD SWAP1 DUP2 MSTORE PUSH1 0x20 ADD PUSH1 0x0 KECCAK256 PUSH1 0x0 DUP5 PUSH20 0xFFFFFFFFFFFFFFFFFFFFFFFFFFFFFFFFFFFFFFFF AND PUSH20 0xFFFFFFFFFFFFFFFFFFFFFFFFFFFFFFFFFFFFFFFF AND DUP2 MSTORE PUSH1 0x20 ADD SWAP1 DUP2 MSTORE PUSH1 0x20 ADD PUSH1 0x0 KECCAK256 SLOAD SWAP1 POP SWAP3 SWAP2 POP POP JUMP JUMPDEST PUSH1 0x0 PUSH32 0xD9B67A2600000000000000000000000000000000000000000000000000000000 PUSH28 0xFFFFFFFFFFFFFFFFFFFFFFFFFFFFFFFFFFFFFFFFFFFFFFFFFFFFFFFF NOT AND DUP3 PUSH28 0xFFFFFFFFFFFFFFFFFFFFFFFFFFFFFFFFFFFFFFFFFFFFFFFFFFFFFFFF NOT AND EQ DUP1 PUSH2 0x5AF JUMPI POP PUSH32 0xE89341C00000000000000000000000000000000000000000000000000000000 PUSH28 0xFFFFFFFFFFFFFFFFFFFFFFFFFFFFFFFFFFFFFFFFFFFFFFFFFFFFFFFF NOT AND DUP3 PUSH28 0xFFFFFFFFFFFFFFFFFFFFFFFFFFFFFFFFFFFFFFFFFFFFFFFFFFFFFFFF NOT AND EQ JUMPDEST DUP1 PUSH2 0x5BF JUMPI POP PUSH2 0x5BE DUP3 PUSH2 0xBC2 JUMP JUMPDEST JUMPDEST SWAP1 POP SWAP2 SWAP1 POP JUMP JUMPDEST PUSH2 0x5CE PUSH2 0xC2C JUMP JUMPDEST PUSH2 0x5D7 DUP2 PUSH2 0xCAA JUMP JUMPDEST POP JUMP JUMPDEST PUSH1 0x60 PUSH1 0x2 DUP1 SLOAD PUSH2 0x5E9 SWAP1 PUSH2 0x25D6 JUMP JUMPDEST DUP1 PUSH1 0x1F ADD PUSH1 0x20 DUP1 SWAP2 DIV MUL PUSH1 0x20 ADD PUSH1 0x40 MLOAD SWAP1 DUP2 ADD PUSH1 0x40 MSTORE DUP1 SWAP3 SWAP2 SWAP1 DUP2 DUP2 MSTORE PUSH1 0x20 ADD DUP3 DUP1 SLOAD PUSH2 0x615 SWAP1 PUSH2 0x25D6 JUMP JUMPDEST DUP1 ISZERO PUSH2 0x662 JUMPI DUP1 PUSH1 0x1F LT PUSH2 0x637 JUMPI PUSH2 0x100 DUP1 DUP4 SLOAD DIV MUL DUP4 MSTORE SWAP2 PUSH1 0x20 ADD SWAP2 PUSH2 0x662 JUMP JUMPDEST DUP3 ADD SWAP2 SWAP1 PUSH1 0x0 MSTORE PUSH1 0x20 PUSH1 0x0 KECCAK256 SWAP1 JUMPDEST DUP2 SLOAD DUP2 MSTORE SWAP1 PUSH1 0x1 ADD SWAP1 PUSH1 0x20 ADD DUP1 DUP4 GT PUSH2 0x645 JUMPI DUP3 SWAP1 SUB PUSH1 0x1F AND DUP3 ADD SWAP2 JUMPDEST POP POP POP POP POP SWAP1 POP SWAP2 SWAP1 POP JUMP JUMPDEST PUSH1 0x6 DUP1 SLOAD SWAP1 POP DUP3 GT ISZERO PUSH2 0x6B6 JUMPI PUSH1 0x40 MLOAD PUSH32 0x8C379A000000000000000000000000000000000000000000000000000000000 DUP2 MSTORE PUSH1 0x4 ADD PUSH2 0x6AD SWAP1 PUSH2 0x2653 JUMP JUMPDEST PUSH1 0x40 MLOAD DUP1 SWAP2 SUB SWAP1 REVERT JUMPDEST PUSH1 0x0 DUP3 GT PUSH2 0x6F9 JUMPI PUSH1 0x40 MLOAD PUSH32 0x8C379A000000000000000000000000000000000000000000000000000000000 DUP2 MSTORE PUSH1 0x4 ADD PUSH2 0x6F0 SWAP1 PUSH2 0x2653 JUMP JUMPDEST PUSH1 0x40 MLOAD DUP1 SWAP2 SUB SWAP1 REVERT JUMPDEST PUSH1 0x4 SLOAD DUP2 PUSH2 0x707 SWAP2 SWAP1 PUSH2 0x26A2 JUMP JUMPDEST CALLVALUE LT ISZERO PUSH2 0x749 JUMPI PUSH1 0x40 MLOAD PUSH32 0x8C379A000000000000000000000000000000000000000000000000000000000 DUP2 MSTORE PUSH1 0x4 ADD PUSH2 0x740 SWAP1 PUSH2 0x2730 JUMP JUMPDEST PUSH1 0x40 MLOAD DUP1 SWAP2 SUB SWAP1 REVERT JUMPDEST PUSH1 0x7 SLOAD DUP2 PUSH1 0x1 PUSH1 0x5 SLOAD PUSH2 0x75C SWAP2 SWAP1 PUSH2 0x2750 JUMP JUMPDEST PUSH2 0x766 SWAP2 SWAP1 PUSH2 0x2784 JUMP JUMPDEST GT ISZERO PUSH2 0x7A7 JUMPI PUSH1 0x40 MLOAD PUSH32 0x8C379A000000000000000000000000000000000000000000000000000000000 DUP2 MSTORE PUSH1 0x4 ADD PUSH2 0x79E SWAP1 PUSH2 0x2804 JUMP JUMPDEST PUSH1 0x40 MLOAD DUP1 SWAP2 SUB SWAP1 REVERT JUMPDEST PUSH2 0x7C2 CALLER DUP4 DUP4 PUSH1 0x40 MLOAD DUP1 PUSH1 0x20 ADD PUSH1 0x40 MSTORE DUP1 PUSH1 0x0 DUP2 MSTORE POP PUSH2 0xCBD JUMP JUMPDEST POP POP JUMP JUMPDEST PUSH2 0x7CE PUSH2 0xE6D JUMP JUMPDEST PUSH20 0xFFFFFFFFFFFFFFFFFFFFFFFFFFFFFFFFFFFFFFFF AND DUP6 PUSH20 0xFFFFFFFFFFFFFFFFFFFFFFFFFFFFFFFFFFFFFFFF AND EQ DUP1 PUSH2 0x814 JUMPI POP PUSH2 0x813 DUP6 PUSH2 0x80E PUSH2 0xE6D JUMP JUMPDEST PUSH2 0xA0A JUMP JUMPDEST JUMPDEST PUSH2 0x853 JUMPI PUSH1 0x40 MLOAD PUSH32 0x8C379A000000000000000000000000000000000000000000000000000000000 DUP2 MSTORE PUSH1 0x4 ADD PUSH2 0x84A SWAP1 PUSH2 0x2896 JUMP JUMPDEST PUSH1 0x40 MLOAD DUP1 SWAP2 SUB SWAP1 REVERT JUMPDEST PUSH2 0x860 DUP6 DUP6 DUP6 DUP6 DUP6 PUSH2 0xE75 JUMP JUMPDEST POP POP POP POP POP JUMP JUMPDEST PUSH1 0x60 DUP2 MLOAD DUP4 MLOAD EQ PUSH2 0x8AD JUMPI PUSH1 0x40 MLOAD PUSH32 0x8C379A000000000000000000000000000000000000000000000000000000000 DUP2 MSTORE PUSH1 0x4 ADD PUSH2 0x8A4 SWAP1 PUSH2 0x2928 JUMP JUMPDEST PUSH1 0x40 MLOAD DUP1 SWAP2 SUB SWAP1 REVERT JUMPDEST PUSH1 0x0 DUP4 MLOAD PUSH8 0xFFFFFFFFFFFFFFFF DUP2 GT ISZERO PUSH2 0x8CA JUMPI PUSH2 0x8C9 PUSH2 0x1CA6 JUMP JUMPDEST JUMPDEST PUSH1 0x40 MLOAD SWAP1 DUP1 DUP3 MSTORE DUP1 PUSH1 0x20 MUL PUSH1 0x20 ADD DUP3 ADD PUSH1 0x40 MSTORE DUP1 ISZERO PUSH2 0x8F8 JUMPI DUP2 PUSH1 0x20 ADD PUSH1 0x20 DUP3 MUL DUP1 CALLDATASIZE DUP4 CALLDATACOPY DUP1 DUP3 ADD SWAP2 POP POP SWAP1 POP JUMPDEST POP SWAP1 POP PUSH1 0x0 JUMPDEST DUP5 MLOAD DUP2 LT ISZERO PUSH2 0x975 JUMPI PUSH2 0x945 DUP6 DUP3 DUP2 MLOAD DUP2 LT PUSH2 0x91D JUMPI PUSH2 0x91C PUSH2 0x2948 JUMP JUMPDEST JUMPDEST PUSH1 0x20 MUL PUSH1 0x20 ADD ADD MLOAD DUP6 DUP4 DUP2 MLOAD DUP2 LT PUSH2 0x938 JUMPI PUSH2 0x937 PUSH2 0x2948 JUMP JUMPDEST JUMPDEST PUSH1 0x20 MUL PUSH1 0x20 ADD ADD MLOAD PUSH2 0x41C JUMP JUMPDEST DUP3 DUP3 DUP2 MLOAD DUP2 LT PUSH2 0x958 JUMPI PUSH2 0x957 PUSH2 0x2948 JUMP JUMPDEST JUMPDEST PUSH1 0x20 MUL PUSH1 0x20 ADD ADD DUP2 DUP2 MSTORE POP POP DUP1 PUSH2 0x96E SWAP1 PUSH2 0x2977 JUMP JUMPDEST SWAP1 POP PUSH2 0x8FE JUMP JUMPDEST POP DUP1 SWAP2 POP POP SWAP3 SWAP2 POP POP JUMP JUMPDEST PUSH1 0x5 SLOAD DUP2 JUMP JUMPDEST PUSH2 0x98E PUSH2 0xC2C JUMP JUMPDEST PUSH2 0x998 PUSH1 0x0 PUSH2 0x1196 JUMP JUMPDEST JUMP JUMPDEST PUSH1 0x6 DUP2 DUP2 SLOAD DUP2 LT PUSH2 0x9AA JUMPI PUSH1 0x0 DUP1 REVERT JUMPDEST SWAP1 PUSH1 0x0 MSTORE PUSH1 0x20 PUSH1 0x0 KECCAK256 ADD PUSH1 0x0 SWAP2 POP SWAP1 POP SLOAD DUP2 JUMP JUMPDEST PUSH1 0x0 PUSH1 0x3 PUSH1 0x0 SWAP1 SLOAD SWAP1 PUSH2 0x100 EXP SWAP1 DIV PUSH20 0xFFFFFFFFFFFFFFFFFFFFFFFFFFFFFFFFFFFFFFFF AND SWAP1 POP SWAP1 JUMP JUMPDEST PUSH1 0x7 SLOAD DUP2 JUMP JUMPDEST PUSH2 0xA00 PUSH2 0x9F9 PUSH2 0xE6D JUMP JUMPDEST DUP4 DUP4 PUSH2 0x125C JUMP JUMPDEST POP POP JUMP JUMPDEST PUSH1 0x4 SLOAD DUP2 JUMP JUMPDEST PUSH1 0x0 PUSH1 0x1 PUSH1 0x0 DUP5 PUSH20 0xFFFFFFFFFFFFFFFFFFFFFFFFFFFFFFFFFFFFFFFF AND PUSH20 0xFFFFFFFFFFFFFFFFFFFFFFFFFFFFFFFFFFFFFFFF AND DUP2 MSTORE PUSH1 0x20 ADD SWAP1 DUP2 MSTORE PUSH1 0x20 ADD PUSH1 0x0 KECCAK256 PUSH1 0x0 DUP4 PUSH20 0xFFFFFFFFFFFFFFFFFFFFFFFFFFFFFFFFFFFFFFFF AND PUSH20 0xFFFFFFFFFFFFFFFFFFFFFFFFFFFFFFFFFFFFFFFF AND DUP2 MSTORE PUSH1 0x20 ADD SWAP1 DUP2 MSTORE PUSH1 0x20 ADD PUSH1 0x0 KECCAK256 PUSH1 0x0 SWAP1 SLOAD SWAP1 PUSH2 0x100 EXP SWAP1 DIV PUSH1 0xFF AND SWAP1 POP SWAP3 SWAP2 POP POP JUMP JUMPDEST PUSH2 0xAA6 PUSH2 0xE6D JUMP JUMPDEST PUSH20 0xFFFFFFFFFFFFFFFFFFFFFFFFFFFFFFFFFFFFFFFF AND DUP6 PUSH20 0xFFFFFFFFFFFFFFFFFFFFFFFFFFFFFFFFFFFFFFFF AND EQ DUP1 PUSH2 0xAEC JUMPI POP PUSH2 0xAEB DUP6 PUSH2 0xAE6 PUSH2 0xE6D JUMP JUMPDEST PUSH2 0xA0A JUMP JUMPDEST JUMPDEST PUSH2 0xB2B JUMPI PUSH1 0x40 MLOAD PUSH32 0x8C379A000000000000000000000000000000000000000000000000000000000 DUP2 MSTORE PUSH1 0x4 ADD PUSH2 0xB22 SWAP1 PUSH2 0x2896 JUMP JUMPDEST PUSH1 0x40 MLOAD DUP1 SWAP2 SUB SWAP1 REVERT JUMPDEST PUSH2 0xB38 DUP6 DUP6 DUP6 DUP6 DUP6 PUSH2 0x13C8 JUMP JUMPDEST POP POP POP POP POP JUMP JUMPDEST PUSH2 0xB47 PUSH2 0xC2C JUMP JUMPDEST PUSH1 0x0 PUSH20 0xFFFFFFFFFFFFFFFFFFFFFFFFFFFFFFFFFFFFFFFF AND DUP2 PUSH20 0xFFFFFFFFFFFFFFFFFFFFFFFFFFFFFFFFFFFFFFFF AND SUB PUSH2 0xBB6 JUMPI PUSH1 0x40 MLOAD PUSH32 0x8C379A000000000000000000000000000000000000000000000000000000000 DUP2 MSTORE PUSH1 0x4 ADD PUSH2 0xBAD SWAP1 PUSH2 0x2A31 JUMP JUMPDEST PUSH1 0x40 MLOAD DUP1 SWAP2 SUB SWAP1 REVERT JUMPDEST PUSH2 0xBBF DUP2 PUSH2 0x1196 JUMP JUMPDEST POP JUMP JUMPDEST PUSH1 0x0 PUSH32 0x1FFC9A700000000000000000000000000000000000000000000000000000000 PUSH28 0xFFFFFFFFFFFFFFFFFFFFFFFFFFFFFFFFFFFFFFFFFFFFFFFFFFFFFFFF NOT AND DUP3 PUSH28 0xFFFFFFFFFFFFFFFFFFFFFFFFFFFFFFFFFFFFFFFFFFFFFFFFFFFFFFFF NOT AND EQ SWAP1 POP SWAP2 SWAP1 POP JUMP JUMPDEST PUSH2 0xC34 PUSH2 0xE6D JUMP JUMPDEST PUSH20 0xFFFFFFFFFFFFFFFFFFFFFFFFFFFFFFFFFFFFFFFF AND PUSH2 0xC52 PUSH2 0x9BE JUMP JUMPDEST PUSH20 0xFFFFFFFFFFFFFFFFFFFFFFFFFFFFFFFFFFFFFFFF AND EQ PUSH2 0xCA8 JUMPI PUSH1 0x40 MLOAD PUSH32 0x8C379A000000000000000000000000000000000000000000000000000000000 DUP2 MSTORE PUSH1 0x4 ADD PUSH2 0xC9F SWAP1 PUSH2 0x2A9D JUMP JUMPDEST PUSH1 0x40 MLOAD DUP1 SWAP2 SUB SWAP1 REVERT JUMPDEST JUMP JUMPDEST DUP1 PUSH1 0x2 SWAP1 DUP2 PUSH2 0xCB9 SWAP2 SWAP1 PUSH2 0x2C69 JUMP JUMPDEST POP POP JUMP JUMPDEST PUSH1 0x0 PUSH20 0xFFFFFFFFFFFFFFFFFFFFFFFFFFFFFFFFFFFFFFFF AND DUP5 PUSH20 0xFFFFFFFFFFFFFFFFFFFFFFFFFFFFFFFFFFFFFFFF AND SUB PUSH2 0xD2C JUMPI PUSH1 0x40 MLOAD PUSH32 0x8C379A000000000000000000000000000000000000000000000000000000000 DUP2 MSTORE PUSH1 0x4 ADD PUSH2 0xD23 SWAP1 PUSH2 0x2DAD JUMP JUMPDEST PUSH1 0x40 MLOAD DUP1 SWAP2 SUB SWAP1 REVERT JUMPDEST PUSH1 0x0 PUSH2 0xD36 PUSH2 0xE6D JUMP JUMPDEST SWAP1 POP PUSH1 0x0 PUSH2 0xD43 DUP6 PUSH2 0x1663 JUMP JUMPDEST SWAP1 POP PUSH1 0x0 PUSH2 0xD50 DUP6 PUSH2 0x1663 JUMP JUMPDEST SWAP1 POP PUSH2 0xD61 DUP4 PUSH1 0x0 DUP10 DUP6 DUP6 DUP10 PUSH2 0x16DD JUMP JUMPDEST DUP5 PUSH1 0x0 DUP1 DUP9 DUP2 MSTORE PUSH1 0x20 ADD SWAP1 DUP2 MSTORE PUSH1 0x20 ADD PUSH1 0x0 KECCAK256 PUSH1 0x0 DUP10 PUSH20 0xFFFFFFFFFFFFFFFFFFFFFFFFFFFFFFFFFFFFFFFF AND PUSH20 0xFFFFFFFFFFFFFFFFFFFFFFFFFFFFFFFFFFFFFFFF AND DUP2 MSTORE PUSH1 0x20 ADD SWAP1 DUP2 MSTORE PUSH1 0x20 ADD PUSH1 0x0 KECCAK256 PUSH1 0x0 DUP3 DUP3 SLOAD PUSH2 0xDC0 SWAP2 SWAP1 PUSH2 0x2784 JUMP JUMPDEST SWAP3 POP POP DUP2 SWAP1 SSTORE POP DUP7 PUSH20 0xFFFFFFFFFFFFFFFFFFFFFFFFFFFFFFFFFFFFFFFF AND PUSH1 0x0 PUSH20 0xFFFFFFFFFFFFFFFFFFFFFFFFFFFFFFFFFFFFFFFF AND DUP5 PUSH20 0xFFFFFFFFFFFFFFFFFFFFFFFFFFFFFFFFFFFFFFFF AND PUSH32 0xC3D58168C5AE7397731D063D5BBF3D657854427343F4C083240F7AACAA2D0F62 DUP10 DUP10 PUSH1 0x40 MLOAD PUSH2 0xE3E SWAP3 SWAP2 SWAP1 PUSH2 0x2DCD JUMP JUMPDEST PUSH1 0x40 MLOAD DUP1 SWAP2 SUB SWAP1 LOG4 PUSH2 0xE55 DUP4 PUSH1 0x0 DUP10 DUP6 DUP6 DUP10 PUSH2 0x16E5 JUMP JUMPDEST PUSH2 0xE64 DUP4 PUSH1 0x0 DUP10 DUP10 DUP10 DUP10 PUSH2 0x16ED JUMP JUMPDEST POP POP POP POP POP POP POP JUMP JUMPDEST PUSH1 0x0 CALLER SWAP1 POP SWAP1 JUMP JUMPDEST DUP2 MLOAD DUP4 MLOAD EQ PUSH2 0xEB9 JUMPI PUSH1 0x40 MLOAD PUSH32 0x8C379A000000000000000000000000000000000000000000000000000000000 DUP2 MSTORE PUSH1 0x4 ADD PUSH2 0xEB0 SWAP1 PUSH2 0x2E68 JUMP JUMPDEST PUSH1 0x40 MLOAD DUP1 SWAP2 SUB SWAP1 REVERT JUMPDEST PUSH1 0x0 PUSH20 0xFFFFFFFFFFFFFFFFFFFFFFFFFFFFFFFFFFFFFFFF AND DUP5 PUSH20 0xFFFFFFFFFFFFFFFFFFFFFFFFFFFFFFFFFFFFFFFF AND SUB PUSH2 0xF28 JUMPI PUSH1 0x40 MLOAD PUSH32 0x8C379A000000000000000000000000000000000000000000000000000000000 DUP2 MSTORE PUSH1 0x4 ADD PUSH2 0xF1F SWAP1 PUSH2 0x2EFA JUMP JUMPDEST PUSH1 0x40 MLOAD DUP1 SWAP2 SUB SWAP1 REVERT JUMPDEST PUSH1 0x0 PUSH2 0xF32 PUSH2 0xE6D JUMP JUMPDEST SWAP1 POP PUSH2 0xF42 DUP2 DUP8 DUP8 DUP8 DUP8 DUP8 PUSH2 0x16DD JUMP JUMPDEST PUSH1 0x0 JUMPDEST DUP5 MLOAD DUP2 LT ISZERO PUSH2 0x10F3 JUMPI PUSH1 0x0 DUP6 DUP3 DUP2 MLOAD DUP2 LT PUSH2 0xF63 JUMPI PUSH2 0xF62 PUSH2 0x2948 JUMP JUMPDEST JUMPDEST PUSH1 0x20 MUL PUSH1 0x20 ADD ADD MLOAD SWAP1 POP PUSH1 0x0 DUP6 DUP4 DUP2 MLOAD DUP2 LT PUSH2 0xF82 JUMPI PUSH2 0xF81 PUSH2 0x2948 JUMP JUMPDEST JUMPDEST PUSH1 0x20 MUL PUSH1 0x20 ADD ADD MLOAD SWAP1 POP PUSH1 0x0 DUP1 PUSH1 0x0 DUP5 DUP2 MSTORE PUSH1 0x20 ADD SWAP1 DUP2 MSTORE PUSH1 0x20 ADD PUSH1 0x0 KECCAK256 PUSH1 0x0 DUP12 PUSH20 0xFFFFFFFFFFFFFFFFFFFFFFFFFFFFFFFFFFFFFFFF AND PUSH20 0xFFFFFFFFFFFFFFFFFFFFFFFFFFFFFFFFFFFFFFFF AND DUP2 MSTORE PUSH1 0x20 ADD SWAP1 DUP2 MSTORE PUSH1 0x20 ADD PUSH1 0x0 KECCAK256 SLOAD SWAP1 POP DUP2 DUP2 LT ISZERO PUSH2 0x1023 JUMPI PUSH1 0x40 MLOAD PUSH32 0x8C379A000000000000000000000000000000000000000000000000000000000 DUP2 MSTORE PUSH1 0x4 ADD PUSH2 0x101A SWAP1 PUSH2 0x2F8C JUMP JUMPDEST PUSH1 0x40 MLOAD DUP1 SWAP2 SUB SWAP1 REVERT JUMPDEST DUP2 DUP2 SUB PUSH1 0x0 DUP1 DUP6 DUP2 MSTORE PUSH1 0x20 ADD SWAP1 DUP2 MSTORE PUSH1 0x20 ADD PUSH1 0x0 KECCAK256 PUSH1 0x0 DUP13 PUSH20 0xFFFFFFFFFFFFFFFFFFFFFFFFFFFFFFFFFFFFFFFF AND PUSH20 0xFFFFFFFFFFFFFFFFFFFFFFFFFFFFFFFFFFFFFFFF AND DUP2 MSTORE PUSH1 0x20 ADD SWAP1 DUP2 MSTORE PUSH1 0x20 ADD PUSH1 0x0 KECCAK256 DUP2 SWAP1 SSTORE POP DUP2 PUSH1 0x0 DUP1 DUP6 DUP2 MSTORE PUSH1 0x20 ADD SWAP1 DUP2 MSTORE PUSH1 0x20 ADD PUSH1 0x0 KECCAK256 PUSH1 0x0 DUP12 PUSH20 0xFFFFFFFFFFFFFFFFFFFFFFFFFFFFFFFFFFFFFFFF AND PUSH20 0xFFFFFFFFFFFFFFFFFFFFFFFFFFFFFFFFFFFFFFFF AND DUP2 MSTORE PUSH1 0x20 ADD SWAP1 DUP2 MSTORE PUSH1 0x20 ADD PUSH1 0x0 KECCAK256 PUSH1 0x0 DUP3 DUP3 SLOAD PUSH2 0x10D8 SWAP2 SWAP1 PUSH2 0x2784 JUMP JUMPDEST SWAP3 POP POP DUP2 SWAP1 SSTORE POP POP POP POP DUP1 PUSH2 0x10EC SWAP1 PUSH2 0x2977 JUMP JUMPDEST SWAP1 POP PUSH2 0xF45 JUMP JUMPDEST POP DUP5 PUSH20 0xFFFFFFFFFFFFFFFFFFFFFFFFFFFFFFFFFFFFFFFF AND DUP7 PUSH20 0xFFFFFFFFFFFFFFFFFFFFFFFFFFFFFFFFFFFFFFFF AND DUP3 PUSH20 0xFFFFFFFFFFFFFFFFFFFFFFFFFFFFFFFFFFFFFFFF AND PUSH32 0x4A39DC06D4C0DBC64B70AF90FD698A233A518AA5D07E595D983B8C0526C8F7FB DUP8 DUP8 PUSH1 0x40 MLOAD PUSH2 0x116A SWAP3 SWAP2 SWAP1 PUSH2 0x2FAC JUMP JUMPDEST PUSH1 0x40 MLOAD DUP1 SWAP2 SUB SWAP1 LOG4 PUSH2 0x1180 DUP2 DUP8 DUP8 DUP8 DUP8 DUP8 PUSH2 0x16E5 JUMP JUMPDEST PUSH2 0x118E DUP2 DUP8 DUP8 DUP8 DUP8 DUP8 PUSH2 0x18C4 JUMP JUMPDEST POP POP POP POP POP POP JUMP JUMPDEST PUSH1 0x0 PUSH1 0x3 PUSH1 0x0 SWAP1 SLOAD SWAP1 PUSH2 0x100 EXP SWAP1 DIV PUSH20 0xFFFFFFFFFFFFFFFFFFFFFFFFFFFFFFFFFFFFFFFF AND SWAP1 POP DUP2 PUSH1 0x3 PUSH1 0x0 PUSH2 0x100 EXP DUP2 SLOAD DUP2 PUSH20 0xFFFFFFFFFFFFFFFFFFFFFFFFFFFFFFFFFFFFFFFF MUL NOT AND SWAP1 DUP4 PUSH20 0xFFFFFFFFFFFFFFFFFFFFFFFFFFFFFFFFFFFFFFFF AND MUL OR SWAP1 SSTORE POP DUP2 PUSH20 0xFFFFFFFFFFFFFFFFFFFFFFFFFFFFFFFFFFFFFFFF AND DUP2 PUSH20 0xFFFFFFFFFFFFFFFFFFFFFFFFFFFFFFFFFFFFFFFF AND PUSH32 0x8BE0079C531659141344CD1FD0A4F28419497F9722A3DAAFE3B4186F6B6457E0 PUSH1 0x40 MLOAD PUSH1 0x40 MLOAD DUP1 SWAP2 SUB SWAP1 LOG3 POP POP JUMP JUMPDEST DUP2 PUSH20 0xFFFFFFFFFFFFFFFFFFFFFFFFFFFFFFFFFFFFFFFF AND DUP4 PUSH20 0xFFFFFFFFFFFFFFFFFFFFFFFFFFFFFFFFFFFFFFFF AND SUB PUSH2 0x12CA JUMPI PUSH1 0x40 MLOAD PUSH32 0x8C379A000000000000000000000000000000000000000000000000000000000 DUP2 MSTORE PUSH1 0x4 ADD PUSH2 0x12C1 SWAP1 PUSH2 0x3055 JUMP JUMPDEST PUSH1 0x40 MLOAD DUP1 SWAP2 SUB SWAP1 REVERT JUMPDEST DUP1 PUSH1 0x1 PUSH1 0x0 DUP6 PUSH20 0xFFFFFFFFFFFFFFFFFFFFFFFFFFFFFFFFFFFFFFFF AND PUSH20 0xFFFFFFFFFFFFFFFFFFFFFFFFFFFFFFFFFFFFFFFF AND DUP2 MSTORE PUSH1 0x20 ADD SWAP1 DUP2 MSTORE PUSH1 0x20 ADD PUSH1 0x0 KECCAK256 PUSH1 0x0 DUP5 PUSH20 0xFFFFFFFFFFFFFFFFFFFFFFFFFFFFFFFFFFFFFFFF AND PUSH20 0xFFFFFFFFFFFFFFFFFFFFFFFFFFFFFFFFFFFFFFFF AND DUP2 MSTORE PUSH1 0x20 ADD SWAP1 DUP2 MSTORE PUSH1 0x20 ADD PUSH1 0x0 KECCAK256 PUSH1 0x0 PUSH2 0x100 EXP DUP2 SLOAD DUP2 PUSH1 0xFF MUL NOT AND SWAP1 DUP4 ISZERO ISZERO MUL OR SWAP1 SSTORE POP DUP2 PUSH20 0xFFFFFFFFFFFFFFFFFFFFFFFFFFFFFFFFFFFFFFFF AND DUP4 PUSH20 0xFFFFFFFFFFFFFFFFFFFFFFFFFFFFFFFFFFFFFFFF AND PUSH32 0x17307EAB39AB6107E8899845AD3D59BD9653F200F220920489CA2B5937696C31 DUP4 PUSH1 0x40 MLOAD PUSH2 0x13BB SWAP2 SWAP1 PUSH2 0x1C70 JUMP JUMPDEST PUSH1 0x40 MLOAD DUP1 SWAP2 SUB SWAP1 LOG3 POP POP POP JUMP JUMPDEST PUSH1 0x0 PUSH20 0xFFFFFFFFFFFFFFFFFFFFFFFFFFFFFFFFFFFFFFFF AND DUP5 PUSH20 0xFFFFFFFFFFFFFFFFFFFFFFFFFFFFFFFFFFFFFFFF AND SUB PUSH2 0x1437 JUMPI PUSH1 0x40 MLOAD PUSH32 0x8C379A000000000000000000000000000000000000000000000000000000000 DUP2 MSTORE PUSH1 0x4 ADD PUSH2 0x142E SWAP1 PUSH2 0x2EFA JUMP JUMPDEST PUSH1 0x40 MLOAD DUP1 SWAP2 SUB SWAP1 REVERT JUMPDEST PUSH1 0x0 PUSH2 0x1441 PUSH2 0xE6D JUMP JUMPDEST SWAP1 POP PUSH1 0x0 PUSH2 0x144E DUP6 PUSH2 0x1663 JUMP JUMPDEST SWAP1 POP PUSH1 0x0 PUSH2 0x145B DUP6 PUSH2 0x1663 JUMP JUMPDEST SWAP1 POP PUSH2 0x146B DUP4 DUP10 DUP10 DUP6 DUP6 DUP10 PUSH2 0x16DD JUMP JUMPDEST PUSH1 0x0 DUP1 PUSH1 0x0 DUP9 DUP2 MSTORE PUSH1 0x20 ADD SWAP1 DUP2 MSTORE PUSH1 0x20 ADD PUSH1 0x0 KECCAK256 PUSH1 0x0 DUP11 PUSH20 0xFFFFFFFFFFFFFFFFFFFFFFFFFFFFFFFFFFFFFFFF AND PUSH20 0xFFFFFFFFFFFFFFFFFFFFFFFFFFFFFFFFFFFFFFFF AND DUP2 MSTORE PUSH1 0x20 ADD SWAP1 DUP2 MSTORE PUSH1 0x20 ADD PUSH1 0x0 KECCAK256 SLOAD SWAP1 POP DUP6 DUP2 LT ISZERO PUSH2 0x1502 JUMPI PUSH1 0x40 MLOAD PUSH32 0x8C379A000000000000000000000000000000000000000000000000000000000 DUP2 MSTORE PUSH1 0x4 ADD PUSH2 0x14F9 SWAP1 PUSH2 0x2F8C JUMP JUMPDEST PUSH1 0x40 MLOAD DUP1 SWAP2 SUB SWAP1 REVERT JUMPDEST DUP6 DUP2 SUB PUSH1 0x0 DUP1 DUP10 DUP2 MSTORE PUSH1 0x20 ADD SWAP1 DUP2 MSTORE PUSH1 0x20 ADD PUSH1 0x0 KECCAK256 PUSH1 0x0 DUP12 PUSH20 0xFFFFFFFFFFFFFFFFFFFFFFFFFFFFFFFFFFFFFFFF AND PUSH20 0xFFFFFFFFFFFFFFFFFFFFFFFFFFFFFFFFFFFFFFFF AND DUP2 MSTORE PUSH1 0x20 ADD SWAP1 DUP2 MSTORE PUSH1 0x20 ADD PUSH1 0x0 KECCAK256 DUP2 SWAP1 SSTORE POP DUP6 PUSH1 0x0 DUP1 DUP10 DUP2 MSTORE PUSH1 0x20 ADD SWAP1 DUP2 MSTORE PUSH1 0x20 ADD PUSH1 0x0 KECCAK256 PUSH1 0x0 DUP11 PUSH20 0xFFFFFFFFFFFFFFFFFFFFFFFFFFFFFFFFFFFFFFFF AND PUSH20 0xFFFFFFFFFFFFFFFFFFFFFFFFFFFFFFFFFFFFFFFF AND DUP2 MSTORE PUSH1 0x20 ADD SWAP1 DUP2 MSTORE PUSH1 0x20 ADD PUSH1 0x0 KECCAK256 PUSH1 0x0 DUP3 DUP3 SLOAD PUSH2 0x15B7 SWAP2 SWAP1 PUSH2 0x2784 JUMP JUMPDEST SWAP3 POP POP DUP2 SWAP1 SSTORE POP DUP8 PUSH20 0xFFFFFFFFFFFFFFFFFFFFFFFFFFFFFFFFFFFFFFFF AND DUP10 PUSH20 0xFFFFFFFFFFFFFFFFFFFFFFFFFFFFFFFFFFFFFFFF AND DUP6 PUSH20 0xFFFFFFFFFFFFFFFFFFFFFFFFFFFFFFFFFFFFFFFF AND PUSH32 0xC3D58168C5AE7397731D063D5BBF3D657854427343F4C083240F7AACAA2D0F62 DUP11 DUP11 PUSH1 0x40 MLOAD PUSH2 0x1634 SWAP3 SWAP2 SWAP1 PUSH2 0x2DCD JUMP JUMPDEST PUSH1 0x40 MLOAD DUP1 SWAP2 SUB SWAP1 LOG4 PUSH2 0x164A DUP5 DUP11 DUP11 DUP7 DUP7 DUP11 PUSH2 0x16E5 JUMP JUMPDEST PUSH2 0x1658 DUP5 DUP11 DUP11 DUP11 DUP11 DUP11 PUSH2 0x16ED JUMP JUMPDEST POP POP POP POP POP POP POP POP POP JUMP JUMPDEST PUSH1 0x60 PUSH1 0x0 PUSH1 0x1 PUSH8 0xFFFFFFFFFFFFFFFF DUP2 GT ISZERO PUSH2 0x1682 JUMPI PUSH2 0x1681 PUSH2 0x1CA6 JUMP JUMPDEST JUMPDEST PUSH1 0x40 MLOAD SWAP1 DUP1 DUP3 MSTORE DUP1 PUSH1 0x20 MUL PUSH1 0x20 ADD DUP3 ADD PUSH1 0x40 MSTORE DUP1 ISZERO PUSH2 0x16B0 JUMPI DUP2 PUSH1 0x20 ADD PUSH1 0x20 DUP3 MUL DUP1 CALLDATASIZE DUP4 CALLDATACOPY DUP1 DUP3 ADD SWAP2 POP POP SWAP1 POP JUMPDEST POP SWAP1 POP DUP3 DUP2 PUSH1 0x0 DUP2 MLOAD DUP2 LT PUSH2 0x16C8 JUMPI PUSH2 0x16C7 PUSH2 0x2948 JUMP JUMPDEST JUMPDEST PUSH1 0x20 MUL PUSH1 0x20 ADD ADD DUP2 DUP2 MSTORE POP POP DUP1 SWAP2 POP POP SWAP2 SWAP1 POP JUMP JUMPDEST POP POP POP POP POP POP JUMP JUMPDEST POP POP POP POP POP POP JUMP JUMPDEST PUSH2 0x170C DUP5 PUSH20 0xFFFFFFFFFFFFFFFFFFFFFFFFFFFFFFFFFFFFFFFF AND PUSH2 0x1A9B JUMP JUMPDEST ISZERO PUSH2 0x18BC JUMPI DUP4 PUSH20 0xFFFFFFFFFFFFFFFFFFFFFFFFFFFFFFFFFFFFFFFF AND PUSH4 0xF23A6E61 DUP8 DUP8 DUP7 DUP7 DUP7 PUSH1 0x40 MLOAD DUP7 PUSH4 0xFFFFFFFF AND PUSH1 0xE0 SHL DUP2 MSTORE PUSH1 0x4 ADD PUSH2 0x1752 SWAP6 SWAP5 SWAP4 SWAP3 SWAP2 SWAP1 PUSH2 0x30CA JUMP JUMPDEST PUSH1 0x20 PUSH1 0x40 MLOAD DUP1 DUP4 SUB DUP2 PUSH1 0x0 DUP8 GAS CALL SWAP3 POP POP POP DUP1 ISZERO PUSH2 0x178E JUMPI POP PUSH1 0x40 MLOAD RETURNDATASIZE PUSH1 0x1F NOT PUSH1 0x1F DUP3 ADD AND DUP3 ADD DUP1 PUSH1 0x40 MSTORE POP DUP2 ADD SWAP1 PUSH2 0x178B SWAP2 SWAP1 PUSH2 0x3139 JUMP JUMPDEST PUSH1 0x1 JUMPDEST PUSH2 0x1833 JUMPI PUSH2 0x179A PUSH2 0x3173 JUMP JUMPDEST DUP1 PUSH4 0x8C379A0 SUB PUSH2 0x17F6 JUMPI POP PUSH2 0x17AE PUSH2 0x3195 JUMP JUMPDEST DUP1 PUSH2 0x17B9 JUMPI POP PUSH2 0x17F8 JUMP JUMPDEST DUP1 PUSH1 0x40 MLOAD PUSH32 0x8C379A000000000000000000000000000000000000000000000000000000000 DUP2 MSTORE PUSH1 0x4 ADD PUSH2 0x17ED SWAP2 SWAP1 PUSH2 0x1EC6 JUMP JUMPDEST PUSH1 0x40 MLOAD DUP1 SWAP2 SUB SWAP1 REVERT JUMPDEST POP JUMPDEST PUSH1 0x40 MLOAD PUSH32 0x8C379A000000000000000000000000000000000000000000000000000000000 DUP2 MSTORE PUSH1 0x4 ADD PUSH2 0x182A SWAP1 PUSH2 0x3297 JUMP JUMPDEST PUSH1 0x40 MLOAD DUP1 SWAP2 SUB SWAP1 REVERT JUMPDEST PUSH4 0xF23A6E61 PUSH1 0xE0 SHL PUSH28 0xFFFFFFFFFFFFFFFFFFFFFFFFFFFFFFFFFFFFFFFFFFFFFFFFFFFFFFFF NOT AND DUP2 PUSH28 0xFFFFFFFFFFFFFFFFFFFFFFFFFFFFFFFFFFFFFFFFFFFFFFFFFFFFFFFF NOT AND EQ PUSH2 0x18BA JUMPI PUSH1 0x40 MLOAD PUSH32 0x8C379A000000000000000000000000000000000000000000000000000000000 DUP2 MSTORE PUSH1 0x4 ADD PUSH2 0x18B1 SWAP1 PUSH2 0x3329 JUMP JUMPDEST PUSH1 0x40 MLOAD DUP1 SWAP2 SUB SWAP1 REVERT JUMPDEST POP JUMPDEST POP POP POP POP POP POP JUMP JUMPDEST PUSH2 0x18E3 DUP5 PUSH20 0xFFFFFFFFFFFFFFFFFFFFFFFFFFFFFFFFFFFFFFFF AND PUSH2 0x1A9B JUMP JUMPDEST ISZERO PUSH2 0x1A93 JUMPI DUP4 PUSH20 0xFFFFFFFFFFFFFFFFFFFFFFFFFFFFFFFFFFFFFFFF AND PUSH4 0xBC197C81 DUP8 DUP8 DUP7 DUP7 DUP7 PUSH1 0x40 MLOAD DUP7 PUSH4 0xFFFFFFFF AND PUSH1 0xE0 SHL DUP2 MSTORE PUSH1 0x4 ADD PUSH2 0x1929 SWAP6 SWAP5 SWAP4 SWAP3 SWAP2 SWAP1 PUSH2 0x3349 JUMP JUMPDEST PUSH1 0x20 PUSH1 0x40 MLOAD DUP1 DUP4 SUB DUP2 PUSH1 0x0 DUP8 GAS CALL SWAP3 POP POP POP DUP1 ISZERO PUSH2 0x1965 JUMPI POP PUSH1 0x40 MLOAD RETURNDATASIZE PUSH1 0x1F NOT PUSH1 0x1F DUP3 ADD AND DUP3 ADD DUP1 PUSH1 0x40 MSTORE POP DUP2 ADD SWAP1 PUSH2 0x1962 SWAP2 SWAP1 PUSH2 0x3139 JUMP JUMPDEST PUSH1 0x1 JUMPDEST PUSH2 0x1A0A JUMPI PUSH2 0x1971 PUSH2 0x3173 JUMP JUMPDEST DUP1 PUSH4 0x8C379A0 SUB PUSH2 0x19CD JUMPI POP PUSH2 0x1985 PUSH2 0x3195 JUMP JUMPDEST DUP1 PUSH2 0x1990 JUMPI POP PUSH2 0x19CF JUMP JUMPDEST DUP1 PUSH1 0x40 MLOAD PUSH32 0x8C379A000000000000000000000000000000000000000000000000000000000 DUP2 MSTORE PUSH1 0x4 ADD PUSH2 0x19C4 SWAP2 SWAP1 PUSH2 0x1EC6 JUMP JUMPDEST PUSH1 0x40 MLOAD DUP1 SWAP2 SUB SWAP1 REVERT JUMPDEST POP JUMPDEST PUSH1 0x40 MLOAD PUSH32 0x8C379A000000000000000000000000000000000000000000000000000000000 DUP2 MSTORE PUSH1 0x4 ADD PUSH2 0x1A01 SWAP1 PUSH2 0x3297 JUMP JUMPDEST PUSH1 0x40 MLOAD DUP1 SWAP2 SUB SWAP1 REVERT JUMPDEST PUSH4 0xBC197C81 PUSH1 0xE0 SHL PUSH28 0xFFFFFFFFFFFFFFFFFFFFFFFFFFFFFFFFFFFFFFFFFFFFFFFFFFFFFFFF NOT AND DUP2 PUSH28 0xFFFFFFFFFFFFFFFFFFFFFFFFFFFFFFFFFFFFFFFFFFFFFFFFFFFFFFFF NOT AND EQ PUSH2 0x1A91 JUMPI PUSH1 0x40 MLOAD PUSH32 0x8C379A000000000000000000000000000000000000000000000000000000000 DUP2 MSTORE PUSH1 0x4 ADD PUSH2 0x1A88 SWAP1 PUSH2 0x3329 JUMP JUMPDEST PUSH1 0x40 MLOAD DUP1 SWAP2 SUB SWAP1 REVERT JUMPDEST POP JUMPDEST POP POP POP POP POP POP JUMP JUMPDEST PUSH1 0x0 DUP1 DUP3 PUSH20 0xFFFFFFFFFFFFFFFFFFFFFFFFFFFFFFFFFFFFFFFF AND EXTCODESIZE GT SWAP1 POP SWAP2 SWAP1 POP JUMP JUMPDEST PUSH1 0x0 PUSH1 0x40 MLOAD SWAP1 POP SWAP1 JUMP JUMPDEST PUSH1 0x0 DUP1 REVERT JUMPDEST PUSH1 0x0 DUP1 REVERT JUMPDEST PUSH1 0x0 PUSH20 0xFFFFFFFFFFFFFFFFFFFFFFFFFFFFFFFFFFFFFFFF DUP3 AND SWAP1 POP SWAP2 SWAP1 POP JUMP JUMPDEST PUSH1 0x0 PUSH2 0x1AFD DUP3 PUSH2 0x1AD2 JUMP JUMPDEST SWAP1 POP SWAP2 SWAP1 POP JUMP JUMPDEST PUSH2 0x1B0D DUP2 PUSH2 0x1AF2 JUMP JUMPDEST DUP2 EQ PUSH2 0x1B18 JUMPI PUSH1 0x0 DUP1 REVERT JUMPDEST POP JUMP JUMPDEST PUSH1 0x0 DUP2 CALLDATALOAD SWAP1 POP PUSH2 0x1B2A DUP2 PUSH2 0x1B04 JUMP JUMPDEST SWAP3 SWAP2 POP POP JUMP JUMPDEST PUSH1 0x0 DUP2 SWAP1 POP SWAP2 SWAP1 POP JUMP JUMPDEST PUSH2 0x1B43 DUP2 PUSH2 0x1B30 JUMP JUMPDEST DUP2 EQ PUSH2 0x1B4E JUMPI PUSH1 0x0 DUP1 REVERT JUMPDEST POP JUMP JUMPDEST PUSH1 0x0 DUP2 CALLDATALOAD SWAP1 POP PUSH2 0x1B60 DUP2 PUSH2 0x1B3A JUMP JUMPDEST SWAP3 SWAP2 POP POP JUMP JUMPDEST PUSH1 0x0 DUP1 PUSH1 0x40 DUP4 DUP6 SUB SLT ISZERO PUSH2 0x1B7D JUMPI PUSH2 0x1B7C PUSH2 0x1AC8 JUMP JUMPDEST JUMPDEST PUSH1 0x0 PUSH2 0x1B8B DUP6 DUP3 DUP7 ADD PUSH2 0x1B1B JUMP JUMPDEST SWAP3 POP POP PUSH1 0x20 PUSH2 0x1B9C DUP6 DUP3 DUP7 ADD PUSH2 0x1B51 JUMP JUMPDEST SWAP2 POP POP SWAP3 POP SWAP3 SWAP1 POP JUMP JUMPDEST PUSH2 0x1BAF DUP2 PUSH2 0x1B30 JUMP JUMPDEST DUP3 MSTORE POP POP JUMP JUMPDEST PUSH1 0x0 PUSH1 0x20 DUP3 ADD SWAP1 POP PUSH2 0x1BCA PUSH1 0x0 DUP4 ADD DUP5 PUSH2 0x1BA6 JUMP JUMPDEST SWAP3 SWAP2 POP POP JUMP JUMPDEST PUSH1 0x0 PUSH32 0xFFFFFFFF00000000000000000000000000000000000000000000000000000000 DUP3 AND SWAP1 POP SWAP2 SWAP1 POP JUMP JUMPDEST PUSH2 0x1C05 DUP2 PUSH2 0x1BD0 JUMP JUMPDEST DUP2 EQ PUSH2 0x1C10 JUMPI PUSH1 0x0 DUP1 REVERT JUMPDEST POP JUMP JUMPDEST PUSH1 0x0 DUP2 CALLDATALOAD SWAP1 POP PUSH2 0x1C22 DUP2 PUSH2 0x1BFC JUMP JUMPDEST SWAP3 SWAP2 POP POP JUMP JUMPDEST PUSH1 0x0 PUSH1 0x20 DUP3 DUP5 SUB SLT ISZERO PUSH2 0x1C3E JUMPI PUSH2 0x1C3D PUSH2 0x1AC8 JUMP JUMPDEST JUMPDEST PUSH1 0x0 PUSH2 0x1C4C DUP5 DUP3 DUP6 ADD PUSH2 0x1C13 JUMP JUMPDEST SWAP2 POP POP SWAP3 SWAP2 POP POP JUMP JUMPDEST PUSH1 0x0 DUP2 ISZERO ISZERO SWAP1 POP SWAP2 SWAP1 POP JUMP JUMPDEST PUSH2 0x1C6A DUP2 PUSH2 0x1C55 JUMP JUMPDEST DUP3 MSTORE POP POP JUMP JUMPDEST PUSH1 0x0 PUSH1 0x20 DUP3 ADD SWAP1 POP PUSH2 0x1C85 PUSH1 0x0 DUP4 ADD DUP5 PUSH2 0x1C61 JUMP JUMPDEST SWAP3 SWAP2 POP POP JUMP JUMPDEST PUSH1 0x0 DUP1 REVERT JUMPDEST PUSH1 0x0 DUP1 REVERT JUMPDEST PUSH1 0x0 PUSH1 0x1F NOT PUSH1 0x1F DUP4 ADD AND SWAP1 POP SWAP2 SWAP1 POP JUMP JUMPDEST PUSH32 0x4E487B7100000000000000000000000000000000000000000000000000000000 PUSH1 0x0 MSTORE PUSH1 0x41 PUSH1 0x4 MSTORE PUSH1 0x24 PUSH1 0x0 REVERT JUMPDEST PUSH2 0x1CDE DUP3 PUSH2 0x1C95 JUMP JUMPDEST DUP2 ADD DUP2 DUP2 LT PUSH8 0xFFFFFFFFFFFFFFFF DUP3 GT OR ISZERO PUSH2 0x1CFD JUMPI PUSH2 0x1CFC PUSH2 0x1CA6 JUMP JUMPDEST JUMPDEST DUP1 PUSH1 0x40 MSTORE POP POP POP JUMP JUMPDEST PUSH1 0x0 PUSH2 0x1D10 PUSH2 0x1ABE JUMP JUMPDEST SWAP1 POP PUSH2 0x1D1C DUP3 DUP3 PUSH2 0x1CD5 JUMP JUMPDEST SWAP2 SWAP1 POP JUMP JUMPDEST PUSH1 0x0 PUSH8 0xFFFFFFFFFFFFFFFF DUP3 GT ISZERO PUSH2 0x1D3C JUMPI PUSH2 0x1D3B PUSH2 0x1CA6 JUMP JUMPDEST JUMPDEST PUSH2 0x1D45 DUP3 PUSH2 0x1C95 JUMP JUMPDEST SWAP1 POP PUSH1 0x20 DUP2 ADD SWAP1 POP SWAP2 SWAP1 POP JUMP JUMPDEST DUP3 DUP2 DUP4 CALLDATACOPY PUSH1 0x0 DUP4 DUP4 ADD MSTORE POP POP POP JUMP JUMPDEST PUSH1 0x0 PUSH2 0x1D74 PUSH2 0x1D6F DUP5 PUSH2 0x1D21 JUMP JUMPDEST PUSH2 0x1D06 JUMP JUMPDEST SWAP1 POP DUP3 DUP2 MSTORE PUSH1 0x20 DUP2 ADD DUP5 DUP5 DUP5 ADD GT ISZERO PUSH2 0x1D90 JUMPI PUSH2 0x1D8F PUSH2 0x1C90 JUMP JUMPDEST JUMPDEST PUSH2 0x1D9B DUP5 DUP3 DUP6 PUSH2 0x1D52 JUMP JUMPDEST POP SWAP4 SWAP3 POP POP POP JUMP JUMPDEST PUSH1 0x0 DUP3 PUSH1 0x1F DUP4 ADD SLT PUSH2 0x1DB8 JUMPI PUSH2 0x1DB7 PUSH2 0x1C8B JUMP JUMPDEST JUMPDEST DUP2 CALLDATALOAD PUSH2 0x1DC8 DUP5 DUP3 PUSH1 0x20 DUP7 ADD PUSH2 0x1D61 JUMP JUMPDEST SWAP2 POP POP SWAP3 SWAP2 POP POP JUMP JUMPDEST PUSH1 0x0 PUSH1 0x20 DUP3 DUP5 SUB SLT ISZERO PUSH2 0x1DE7 JUMPI PUSH2 0x1DE6 PUSH2 0x1AC8 JUMP JUMPDEST JUMPDEST PUSH1 0x0 DUP3 ADD CALLDATALOAD PUSH8 0xFFFFFFFFFFFFFFFF DUP2 GT ISZERO PUSH2 0x1E05 JUMPI PUSH2 0x1E04 PUSH2 0x1ACD JUMP JUMPDEST JUMPDEST PUSH2 0x1E11 DUP5 DUP3 DUP6 ADD PUSH2 0x1DA3 JUMP JUMPDEST SWAP2 POP POP SWAP3 SWAP2 POP POP JUMP JUMPDEST PUSH1 0x0 PUSH1 0x20 DUP3 DUP5 SUB SLT ISZERO PUSH2 0x1E30 JUMPI PUSH2 0x1E2F PUSH2 0x1AC8 JUMP JUMPDEST JUMPDEST PUSH1 0x0 PUSH2 0x1E3E DUP5 DUP3 DUP6 ADD PUSH2 0x1B51 JUMP JUMPDEST SWAP2 POP POP SWAP3 SWAP2 POP POP JUMP JUMPDEST PUSH1 0x0 DUP2 MLOAD SWAP1 POP SWAP2 SWAP1 POP JUMP JUMPDEST PUSH1 0x0 DUP3 DUP3 MSTORE PUSH1 0x20 DUP3 ADD SWAP1 POP SWAP3 SWAP2 POP POP JUMP JUMPDEST PUSH1 0x0 JUMPDEST DUP4 DUP2 LT ISZERO PUSH2 0x1E81 JUMPI DUP1 DUP3 ADD MLOAD DUP2 DUP5 ADD MSTORE PUSH1 0x20 DUP2 ADD SWAP1 POP PUSH2 0x1E66 JUMP JUMPDEST PUSH1 0x0 DUP5 DUP5 ADD MSTORE POP POP POP POP JUMP JUMPDEST PUSH1 0x0 PUSH2 0x1E98 DUP3 PUSH2 0x1E47 JUMP JUMPDEST PUSH2 0x1EA2 DUP2 DUP6 PUSH2 0x1E52 JUMP JUMPDEST SWAP4 POP PUSH2 0x1EB2 DUP2 DUP6 PUSH1 0x20 DUP7 ADD PUSH2 0x1E63 JUMP JUMPDEST PUSH2 0x1EBB DUP2 PUSH2 0x1C95 JUMP JUMPDEST DUP5 ADD SWAP2 POP POP SWAP3 SWAP2 POP POP JUMP JUMPDEST PUSH1 0x0 PUSH1 0x20 DUP3 ADD SWAP1 POP DUP2 DUP2 SUB PUSH1 0x0 DUP4 ADD MSTORE PUSH2 0x1EE0 DUP2 DUP5 PUSH2 0x1E8D JUMP JUMPDEST SWAP1 POP SWAP3 SWAP2 POP POP JUMP JUMPDEST PUSH1 0x0 DUP1 PUSH1 0x40 DUP4 DUP6 SUB SLT ISZERO PUSH2 0x1EFF JUMPI PUSH2 0x1EFE PUSH2 0x1AC8 JUMP JUMPDEST JUMPDEST PUSH1 0x0 PUSH2 0x1F0D DUP6 DUP3 DUP7 ADD PUSH2 0x1B51 JUMP JUMPDEST SWAP3 POP POP PUSH1 0x20 PUSH2 0x1F1E DUP6 DUP3 DUP7 ADD PUSH2 0x1B51 JUMP JUMPDEST SWAP2 POP POP SWAP3 POP SWAP3 SWAP1 POP JUMP JUMPDEST PUSH1 0x0 PUSH8 0xFFFFFFFFFFFFFFFF DUP3 GT ISZERO PUSH2 0x1F43 JUMPI PUSH2 0x1F42 PUSH2 0x1CA6 JUMP JUMPDEST JUMPDEST PUSH1 0x20 DUP3 MUL SWAP1 POP PUSH1 0x20 DUP2 ADD SWAP1 POP SWAP2 SWAP1 POP JUMP JUMPDEST PUSH1 0x0 DUP1 REVERT JUMPDEST PUSH1 0x0 PUSH2 0x1F6C PUSH2 0x1F67 DUP5 PUSH2 0x1F28 JUMP JUMPDEST PUSH2 0x1D06 JUMP JUMPDEST SWAP1 POP DUP1 DUP4 DUP3 MSTORE PUSH1 0x20 DUP3 ADD SWAP1 POP PUSH1 0x20 DUP5 MUL DUP4 ADD DUP6 DUP2 GT ISZERO PUSH2 0x1F8F JUMPI PUSH2 0x1F8E PUSH2 0x1F54 JUMP JUMPDEST JUMPDEST DUP4 JUMPDEST DUP2 DUP2 LT ISZERO PUSH2 0x1FB8 JUMPI DUP1 PUSH2 0x1FA4 DUP9 DUP3 PUSH2 0x1B51 JUMP JUMPDEST DUP5 MSTORE PUSH1 0x20 DUP5 ADD SWAP4 POP POP PUSH1 0x20 DUP2 ADD SWAP1 POP PUSH2 0x1F91 JUMP JUMPDEST POP POP POP SWAP4 SWAP3 POP POP POP JUMP JUMPDEST PUSH1 0x0 DUP3 PUSH1 0x1F DUP4 ADD SLT PUSH2 0x1FD7 JUMPI PUSH2 0x1FD6 PUSH2 0x1C8B JUMP JUMPDEST JUMPDEST DUP2 CALLDATALOAD PUSH2 0x1FE7 DUP5 DUP3 PUSH1 0x20 DUP7 ADD PUSH2 0x1F59 JUMP JUMPDEST SWAP2 POP POP SWAP3 SWAP2 POP POP JUMP JUMPDEST PUSH1 0x0 PUSH8 0xFFFFFFFFFFFFFFFF DUP3 GT ISZERO PUSH2 0x200B JUMPI PUSH2 0x200A PUSH2 0x1CA6 JUMP JUMPDEST JUMPDEST PUSH2 0x2014 DUP3 PUSH2 0x1C95 JUMP JUMPDEST SWAP1 POP PUSH1 0x20 DUP2 ADD SWAP1 POP SWAP2 SWAP1 POP JUMP JUMPDEST PUSH1 0x0 PUSH2 0x2034 PUSH2 0x202F DUP5 PUSH2 0x1FF0 JUMP JUMPDEST PUSH2 0x1D06 JUMP JUMPDEST SWAP1 POP DUP3 DUP2 MSTORE PUSH1 0x20 DUP2 ADD DUP5 DUP5 DUP5 ADD GT ISZERO PUSH2 0x2050 JUMPI PUSH2 0x204F PUSH2 0x1C90 JUMP JUMPDEST JUMPDEST PUSH2 0x205B DUP5 DUP3 DUP6 PUSH2 0x1D52 JUMP JUMPDEST POP SWAP4 SWAP3 POP POP POP JUMP JUMPDEST PUSH1 0x0 DUP3 PUSH1 0x1F DUP4 ADD SLT PUSH2 0x2078 JUMPI PUSH2 0x2077 PUSH2 0x1C8B JUMP JUMPDEST JUMPDEST DUP2 CALLDATALOAD PUSH2 0x2088 DUP5 DUP3 PUSH1 0x20 DUP7 ADD PUSH2 0x2021 JUMP JUMPDEST SWAP2 POP POP SWAP3 SWAP2 POP POP JUMP JUMPDEST PUSH1 0x0 DUP1 PUSH1 0x0 DUP1 PUSH1 0x0 PUSH1 0xA0 DUP7 DUP9 SUB SLT ISZERO PUSH2 0x20AD JUMPI PUSH2 0x20AC PUSH2 0x1AC8 JUMP JUMPDEST JUMPDEST PUSH1 0x0 PUSH2 0x20BB DUP9 DUP3 DUP10 ADD PUSH2 0x1B1B JUMP JUMPDEST SWAP6 POP POP PUSH1 0x20 PUSH2 0x20CC DUP9 DUP3 DUP10 ADD PUSH2 0x1B1B JUMP JUMPDEST SWAP5 POP POP PUSH1 0x40 DUP7 ADD CALLDATALOAD PUSH8 0xFFFFFFFFFFFFFFFF DUP2 GT ISZERO PUSH2 0x20ED JUMPI PUSH2 0x20EC PUSH2 0x1ACD JUMP JUMPDEST JUMPDEST PUSH2 0x20F9 DUP9 DUP3 DUP10 ADD PUSH2 0x1FC2 JUMP JUMPDEST SWAP4 POP POP PUSH1 0x60 DUP7 ADD CALLDATALOAD PUSH8 0xFFFFFFFFFFFFFFFF DUP2 GT ISZERO PUSH2 0x211A JUMPI PUSH2 0x2119 PUSH2 0x1ACD JUMP JUMPDEST JUMPDEST PUSH2 0x2126 DUP9 DUP3 DUP10 ADD PUSH2 0x1FC2 JUMP JUMPDEST SWAP3 POP POP PUSH1 0x80 DUP7 ADD CALLDATALOAD PUSH8 0xFFFFFFFFFFFFFFFF DUP2 GT ISZERO PUSH2 0x2147 JUMPI PUSH2 0x2146 PUSH2 0x1ACD JUMP JUMPDEST JUMPDEST PUSH2 0x2153 DUP9 DUP3 DUP10 ADD PUSH2 0x2063 JUMP JUMPDEST SWAP2 POP POP SWAP3 SWAP6 POP SWAP3 SWAP6 SWAP1 SWAP4 POP JUMP JUMPDEST PUSH1 0x0 PUSH8 0xFFFFFFFFFFFFFFFF DUP3 GT ISZERO PUSH2 0x217B JUMPI PUSH2 0x217A PUSH2 0x1CA6 JUMP JUMPDEST JUMPDEST PUSH1 0x20 DUP3 MUL SWAP1 POP PUSH1 0x20 DUP2 ADD SWAP1 POP SWAP2 SWAP1 POP JUMP JUMPDEST PUSH1 0x0 PUSH2 0x219F PUSH2 0x219A DUP5 PUSH2 0x2160 JUMP JUMPDEST PUSH2 0x1D06 JUMP JUMPDEST SWAP1 POP DUP1 DUP4 DUP3 MSTORE PUSH1 0x20 DUP3 ADD SWAP1 POP PUSH1 0x20 DUP5 MUL DUP4 ADD DUP6 DUP2 GT ISZERO PUSH2 0x21C2 JUMPI PUSH2 0x21C1 PUSH2 0x1F54 JUMP JUMPDEST JUMPDEST DUP4 JUMPDEST DUP2 DUP2 LT ISZERO PUSH2 0x21EB JUMPI DUP1 PUSH2 0x21D7 DUP9 DUP3 PUSH2 0x1B1B JUMP JUMPDEST DUP5 MSTORE PUSH1 0x20 DUP5 ADD SWAP4 POP POP PUSH1 0x20 DUP2 ADD SWAP1 POP PUSH2 0x21C4 JUMP JUMPDEST POP POP POP SWAP4 SWAP3 POP POP POP JUMP JUMPDEST PUSH1 0x0 DUP3 PUSH1 0x1F DUP4 ADD SLT PUSH2 0x220A JUMPI PUSH2 0x2209 PUSH2 0x1C8B JUMP JUMPDEST JUMPDEST DUP2 CALLDATALOAD PUSH2 0x221A DUP5 DUP3 PUSH1 0x20 DUP7 ADD PUSH2 0x218C JUMP JUMPDEST SWAP2 POP POP SWAP3 SWAP2 POP POP JUMP JUMPDEST PUSH1 0x0 DUP1 PUSH1 0x40 DUP4 DUP6 SUB SLT ISZERO PUSH2 0x223A JUMPI PUSH2 0x2239 PUSH2 0x1AC8 JUMP JUMPDEST JUMPDEST PUSH1 0x0 DUP4 ADD CALLDATALOAD PUSH8 0xFFFFFFFFFFFFFFFF DUP2 GT ISZERO PUSH2 0x2258 JUMPI PUSH2 0x2257 PUSH2 0x1ACD JUMP JUMPDEST JUMPDEST PUSH2 0x2264 DUP6 DUP3 DUP7 ADD PUSH2 0x21F5 JUMP JUMPDEST SWAP3 POP POP PUSH1 0x20 DUP4 ADD CALLDATALOAD PUSH8 0xFFFFFFFFFFFFFFFF DUP2 GT ISZERO PUSH2 0x2285 JUMPI PUSH2 0x2284 PUSH2 0x1ACD JUMP JUMPDEST JUMPDEST PUSH2 0x2291 DUP6 DUP3 DUP7 ADD PUSH2 0x1FC2 JUMP JUMPDEST SWAP2 POP POP SWAP3 POP SWAP3 SWAP1 POP JUMP JUMPDEST PUSH1 0x0 DUP2 MLOAD SWAP1 POP SWAP2 SWAP1 POP JUMP JUMPDEST PUSH1 0x0 DUP3 DUP3 MSTORE PUSH1 0x20 DUP3 ADD SWAP1 POP SWAP3 SWAP2 POP POP JUMP JUMPDEST PUSH1 0x0 DUP2 SWAP1 POP PUSH1 0x20 DUP3 ADD SWAP1 POP SWAP2 SWAP1 POP JUMP JUMPDEST PUSH2 0x22D0 DUP2 PUSH2 0x1B30 JUMP JUMPDEST DUP3 MSTORE POP POP JUMP JUMPDEST PUSH1 0x0 PUSH2 0x22E2 DUP4 DUP4 PUSH2 0x22C7 JUMP JUMPDEST PUSH1 0x20 DUP4 ADD SWAP1 POP SWAP3 SWAP2 POP POP JUMP JUMPDEST PUSH1 0x0 PUSH1 0x20 DUP3 ADD SWAP1 POP SWAP2 SWAP1 POP JUMP JUMPDEST PUSH1 0x0 PUSH2 0x2306 DUP3 PUSH2 0x229B JUMP JUMPDEST PUSH2 0x2310 DUP2 DUP6 PUSH2 0x22A6 JUMP JUMPDEST SWAP4 POP PUSH2 0x231B DUP4 PUSH2 0x22B7 JUMP JUMPDEST DUP1 PUSH1 0x0 JUMPDEST DUP4 DUP2 LT ISZERO PUSH2 0x234C JUMPI DUP2 MLOAD PUSH2 0x2333 DUP9 DUP3 PUSH2 0x22D6 JUMP JUMPDEST SWAP8 POP PUSH2 0x233E DUP4 PUSH2 0x22EE JUMP JUMPDEST SWAP3 POP POP PUSH1 0x1 DUP2 ADD SWAP1 POP PUSH2 0x231F JUMP JUMPDEST POP DUP6 SWAP4 POP POP POP POP SWAP3 SWAP2 POP POP JUMP JUMPDEST PUSH1 0x0 PUSH1 0x20 DUP3 ADD SWAP1 POP DUP2 DUP2 SUB PUSH1 0x0 DUP4 ADD MSTORE PUSH2 0x2373 DUP2 DUP5 PUSH2 0x22FB JUMP JUMPDEST SWAP1 POP SWAP3 SWAP2 POP POP JUMP JUMPDEST PUSH2 0x2384 DUP2 PUSH2 0x1AF2 JUMP JUMPDEST DUP3 MSTORE POP POP JUMP JUMPDEST PUSH1 0x0 PUSH1 0x20 DUP3 ADD SWAP1 POP PUSH2 0x239F PUSH1 0x0 DUP4 ADD DUP5 PUSH2 0x237B JUMP JUMPDEST SWAP3 SWAP2 POP POP JUMP JUMPDEST PUSH2 0x23AE DUP2 PUSH2 0x1C55 JUMP JUMPDEST DUP2 EQ PUSH2 0x23B9 JUMPI PUSH1 0x0 DUP1 REVERT JUMPDEST POP JUMP JUMPDEST PUSH1 0x0 DUP2 CALLDATALOAD SWAP1 POP PUSH2 0x23CB DUP2 PUSH2 0x23A5 JUMP JUMPDEST SWAP3 SWAP2 POP POP JUMP JUMPDEST PUSH1 0x0 DUP1 PUSH1 0x40 DUP4 DUP6 SUB SLT ISZERO PUSH2 0x23E8 JUMPI PUSH2 0x23E7 PUSH2 0x1AC8 JUMP JUMPDEST JUMPDEST PUSH1 0x0 PUSH2 0x23F6 DUP6 DUP3 DUP7 ADD PUSH2 0x1B1B JUMP JUMPDEST SWAP3 POP POP PUSH1 0x20 PUSH2 0x2407 DUP6 DUP3 DUP7 ADD PUSH2 0x23BC JUMP JUMPDEST SWAP2 POP POP SWAP3 POP SWAP3 SWAP1 POP JUMP JUMPDEST PUSH1 0x0 DUP1 PUSH1 0x40 DUP4 DUP6 SUB SLT ISZERO PUSH2 0x2428 JUMPI PUSH2 0x2427 PUSH2 0x1AC8 JUMP JUMPDEST JUMPDEST PUSH1 0x0 PUSH2 0x2436 DUP6 DUP3 DUP7 ADD PUSH2 0x1B1B JUMP JUMPDEST SWAP3 POP POP PUSH1 0x20 PUSH2 0x2447 DUP6 DUP3 DUP7 ADD PUSH2 0x1B1B JUMP JUMPDEST SWAP2 POP POP SWAP3 POP SWAP3 SWAP1 POP JUMP JUMPDEST PUSH1 0x0 DUP1 PUSH1 0x0 DUP1 PUSH1 0x0 PUSH1 0xA0 DUP7 DUP9 SUB SLT ISZERO PUSH2 0x246D JUMPI PUSH2 0x246C PUSH2 0x1AC8 JUMP JUMPDEST JUMPDEST PUSH1 0x0 PUSH2 0x247B DUP9 DUP3 DUP10 ADD PUSH2 0x1B1B JUMP JUMPDEST SWAP6 POP POP PUSH1 0x20 PUSH2 0x248C DUP9 DUP3 DUP10 ADD PUSH2 0x1B1B JUMP JUMPDEST SWAP5 POP POP PUSH1 0x40 PUSH2 0x249D DUP9 DUP3 DUP10 ADD PUSH2 0x1B51 JUMP JUMPDEST SWAP4 POP POP PUSH1 0x60 PUSH2 0x24AE DUP9 DUP3 DUP10 ADD PUSH2 0x1B51 JUMP JUMPDEST SWAP3 POP POP PUSH1 0x80 DUP7 ADD CALLDATALOAD PUSH8 0xFFFFFFFFFFFFFFFF DUP2 GT ISZERO PUSH2 0x24CF JUMPI PUSH2 0x24CE PUSH2 0x1ACD JUMP JUMPDEST JUMPDEST PUSH2 0x24DB DUP9 DUP3 DUP10 ADD PUSH2 0x2063 JUMP JUMPDEST SWAP2 POP POP SWAP3 SWAP6 POP SWAP3 SWAP6 SWAP1 SWAP4 POP JUMP JUMPDEST PUSH1 0x0 PUSH1 0x20 DUP3 DUP5 SUB SLT ISZERO PUSH2 0x24FE JUMPI PUSH2 0x24FD PUSH2 0x1AC8 JUMP JUMPDEST JUMPDEST PUSH1 0x0 PUSH2 0x250C DUP5 DUP3 DUP6 ADD PUSH2 0x1B1B JUMP JUMPDEST SWAP2 POP POP SWAP3 SWAP2 POP POP JUMP JUMPDEST PUSH32 0x455243313135353A2061646472657373207A65726F206973206E6F7420612076 PUSH1 0x0 DUP3 ADD MSTORE PUSH32 0x616C6964206F776E657200000000000000000000000000000000000000000000 PUSH1 0x20 DUP3 ADD MSTORE POP JUMP JUMPDEST PUSH1 0x0 PUSH2 0x2571 PUSH1 0x2A DUP4 PUSH2 0x1E52 JUMP JUMPDEST SWAP2 POP PUSH2 0x257C DUP3 PUSH2 0x2515 JUMP JUMPDEST PUSH1 0x40 DUP3 ADD SWAP1 POP SWAP2 SWAP1 POP JUMP JUMPDEST PUSH1 0x0 PUSH1 0x20 DUP3 ADD SWAP1 POP DUP2 DUP2 SUB PUSH1 0x0 DUP4 ADD MSTORE PUSH2 0x25A0 DUP2 PUSH2 0x2564 JUMP JUMPDEST SWAP1 POP SWAP2 SWAP1 POP JUMP JUMPDEST PUSH32 0x4E487B7100000000000000000000000000000000000000000000000000000000 PUSH1 0x0 MSTORE PUSH1 0x22 PUSH1 0x4 MSTORE PUSH1 0x24 PUSH1 0x0 REVERT JUMPDEST PUSH1 0x0 PUSH1 0x2 DUP3 DIV SWAP1 POP PUSH1 0x1 DUP3 AND DUP1 PUSH2 0x25EE JUMPI PUSH1 0x7F DUP3 AND SWAP2 POP JUMPDEST PUSH1 0x20 DUP3 LT DUP2 SUB PUSH2 0x2601 JUMPI PUSH2 0x2600 PUSH2 0x25A7 JUMP JUMPDEST JUMPDEST POP SWAP2 SWAP1 POP JUMP JUMPDEST PUSH32 0x546F6B656E20646F65736E277420657869737400000000000000000000000000 PUSH1 0x0 DUP3 ADD MSTORE POP JUMP JUMPDEST PUSH1 0x0 PUSH2 0x263D PUSH1 0x13 DUP4 PUSH2 0x1E52 JUMP JUMPDEST SWAP2 POP PUSH2 0x2648 DUP3 PUSH2 0x2607 JUMP JUMPDEST PUSH1 0x20 DUP3 ADD SWAP1 POP SWAP2 SWAP1 POP JUMP JUMPDEST PUSH1 0x0 PUSH1 0x20 DUP3 ADD SWAP1 POP DUP2 DUP2 SUB PUSH1 0x0 DUP4 ADD MSTORE PUSH2 0x266C DUP2 PUSH2 0x2630 JUMP JUMPDEST SWAP1 POP SWAP2 SWAP1 POP JUMP JUMPDEST PUSH32 0x4E487B7100000000000000000000000000000000000000000000000000000000 PUSH1 0x0 MSTORE PUSH1 0x11 PUSH1 0x4 MSTORE PUSH1 0x24 PUSH1 0x0 REVERT JUMPDEST PUSH1 0x0 PUSH2 0x26AD DUP3 PUSH2 0x1B30 JUMP JUMPDEST SWAP2 POP PUSH2 0x26B8 DUP4 PUSH2 0x1B30 JUMP JUMPDEST SWAP3 POP DUP3 DUP3 MUL PUSH2 0x26C6 DUP2 PUSH2 0x1B30 JUMP JUMPDEST SWAP2 POP DUP3 DUP3 DIV DUP5 EQ DUP4 ISZERO OR PUSH2 0x26DD JUMPI PUSH2 0x26DC PUSH2 0x2673 JUMP JUMPDEST JUMPDEST POP SWAP3 SWAP2 POP POP JUMP JUMPDEST PUSH32 0x4E6F7420656E6F7567682065746865722073656E740000000000000000000000 PUSH1 0x0 DUP3 ADD MSTORE POP JUMP JUMPDEST PUSH1 0x0 PUSH2 0x271A PUSH1 0x15 DUP4 PUSH2 0x1E52 JUMP JUMPDEST SWAP2 POP PUSH2 0x2725 DUP3 PUSH2 0x26E4 JUMP JUMPDEST PUSH1 0x20 DUP3 ADD SWAP1 POP SWAP2 SWAP1 POP JUMP JUMPDEST PUSH1 0x0 PUSH1 0x20 DUP3 ADD SWAP1 POP DUP2 DUP2 SUB PUSH1 0x0 DUP4 ADD MSTORE PUSH2 0x2749 DUP2 PUSH2 0x270D JUMP JUMPDEST SWAP1 POP SWAP2 SWAP1 POP JUMP JUMPDEST PUSH1 0x0 PUSH2 0x275B DUP3 PUSH2 0x1B30 JUMP JUMPDEST SWAP2 POP PUSH2 0x2766 DUP4 PUSH2 0x1B30 JUMP JUMPDEST SWAP3 POP DUP3 DUP3 SUB SWAP1 POP DUP2 DUP2 GT ISZERO PUSH2 0x277E JUMPI PUSH2 0x277D PUSH2 0x2673 JUMP JUMPDEST JUMPDEST SWAP3 SWAP2 POP POP JUMP JUMPDEST PUSH1 0x0 PUSH2 0x278F DUP3 PUSH2 0x1B30 JUMP JUMPDEST SWAP2 POP PUSH2 0x279A DUP4 PUSH2 0x1B30 JUMP JUMPDEST SWAP3 POP DUP3 DUP3 ADD SWAP1 POP DUP1 DUP3 GT ISZERO PUSH2 0x27B2 JUMPI PUSH2 0x27B1 PUSH2 0x2673 JUMP JUMPDEST JUMPDEST SWAP3 SWAP2 POP POP JUMP JUMPDEST PUSH32 0x6E6F7420656E6F7567687420737570706C79206C656674000000000000000000 PUSH1 0x0 DUP3 ADD MSTORE POP JUMP JUMPDEST PUSH1 0x0 PUSH2 0x27EE PUSH1 0x17 DUP4 PUSH2 0x1E52 JUMP JUMPDEST SWAP2 POP PUSH2 0x27F9 DUP3 PUSH2 0x27B8 JUMP JUMPDEST PUSH1 0x20 DUP3 ADD SWAP1 POP SWAP2 SWAP1 POP JUMP JUMPDEST PUSH1 0x0 PUSH1 0x20 DUP3 ADD SWAP1 POP DUP2 DUP2 SUB PUSH1 0x0 DUP4 ADD MSTORE PUSH2 0x281D DUP2 PUSH2 0x27E1 JUMP JUMPDEST SWAP1 POP SWAP2 SWAP1 POP JUMP JUMPDEST PUSH32 0x455243313135353A2063616C6C6572206973206E6F7420746F6B656E206F776E PUSH1 0x0 DUP3 ADD MSTORE PUSH32 0x6572206F7220617070726F766564000000000000000000000000000000000000 PUSH1 0x20 DUP3 ADD MSTORE POP JUMP JUMPDEST PUSH1 0x0 PUSH2 0x2880 PUSH1 0x2E DUP4 PUSH2 0x1E52 JUMP JUMPDEST SWAP2 POP PUSH2 0x288B DUP3 PUSH2 0x2824 JUMP JUMPDEST PUSH1 0x40 DUP3 ADD SWAP1 POP SWAP2 SWAP1 POP JUMP JUMPDEST PUSH1 0x0 PUSH1 0x20 DUP3 ADD SWAP1 POP DUP2 DUP2 SUB PUSH1 0x0 DUP4 ADD MSTORE PUSH2 0x28AF DUP2 PUSH2 0x2873 JUMP JUMPDEST SWAP1 POP SWAP2 SWAP1 POP JUMP JUMPDEST PUSH32 0x455243313135353A206163636F756E747320616E6420696473206C656E677468 PUSH1 0x0 DUP3 ADD MSTORE PUSH32 0x206D69736D617463680000000000000000000000000000000000000000000000 PUSH1 0x20 DUP3 ADD MSTORE POP JUMP JUMPDEST PUSH1 0x0 PUSH2 0x2912 PUSH1 0x29 DUP4 PUSH2 0x1E52 JUMP JUMPDEST SWAP2 POP PUSH2 0x291D DUP3 PUSH2 0x28B6 JUMP JUMPDEST PUSH1 0x40 DUP3 ADD SWAP1 POP SWAP2 SWAP1 POP JUMP JUMPDEST PUSH1 0x0 PUSH1 0x20 DUP3 ADD SWAP1 POP DUP2 DUP2 SUB PUSH1 0x0 DUP4 ADD MSTORE PUSH2 0x2941 DUP2 PUSH2 0x2905 JUMP JUMPDEST SWAP1 POP SWAP2 SWAP1 POP JUMP JUMPDEST PUSH32 0x4E487B7100000000000000000000000000000000000000000000000000000000 PUSH1 0x0 MSTORE PUSH1 0x32 PUSH1 0x4 MSTORE PUSH1 0x24 PUSH1 0x0 REVERT JUMPDEST PUSH1 0x0 PUSH2 0x2982 DUP3 PUSH2 0x1B30 JUMP JUMPDEST SWAP2 POP PUSH32 0xFFFFFFFFFFFFFFFFFFFFFFFFFFFFFFFFFFFFFFFFFFFFFFFFFFFFFFFFFFFFFFFF DUP3 SUB PUSH2 0x29B4 JUMPI PUSH2 0x29B3 PUSH2 0x2673 JUMP JUMPDEST JUMPDEST PUSH1 0x1 DUP3 ADD SWAP1 POP SWAP2 SWAP1 POP JUMP JUMPDEST PUSH32 0x4F776E61626C653A206E6577206F776E657220697320746865207A65726F2061 PUSH1 0x0 DUP3 ADD MSTORE PUSH32 0x6464726573730000000000000000000000000000000000000000000000000000 PUSH1 0x20 DUP3 ADD MSTORE POP JUMP JUMPDEST PUSH1 0x0 PUSH2 0x2A1B PUSH1 0x26 DUP4 PUSH2 0x1E52 JUMP JUMPDEST SWAP2 POP PUSH2 0x2A26 DUP3 PUSH2 0x29BF JUMP JUMPDEST PUSH1 0x40 DUP3 ADD SWAP1 POP SWAP2 SWAP1 POP JUMP JUMPDEST PUSH1 0x0 PUSH1 0x20 DUP3 ADD SWAP1 POP DUP2 DUP2 SUB PUSH1 0x0 DUP4 ADD MSTORE PUSH2 0x2A4A DUP2 PUSH2 0x2A0E JUMP JUMPDEST SWAP1 POP SWAP2 SWAP1 POP JUMP JUMPDEST PUSH32 0x4F776E61626C653A2063616C6C6572206973206E6F7420746865206F776E6572 PUSH1 0x0 DUP3 ADD MSTORE POP JUMP JUMPDEST PUSH1 0x0 PUSH2 0x2A87 PUSH1 0x20 DUP4 PUSH2 0x1E52 JUMP JUMPDEST SWAP2 POP PUSH2 0x2A92 DUP3 PUSH2 0x2A51 JUMP JUMPDEST PUSH1 0x20 DUP3 ADD SWAP1 POP SWAP2 SWAP1 POP JUMP JUMPDEST PUSH1 0x0 PUSH1 0x20 DUP3 ADD SWAP1 POP DUP2 DUP2 SUB PUSH1 0x0 DUP4 ADD MSTORE PUSH2 0x2AB6 DUP2 PUSH2 0x2A7A JUMP JUMPDEST SWAP1 POP SWAP2 SWAP1 POP JUMP JUMPDEST PUSH1 0x0 DUP2 SWAP1 POP DUP2 PUSH1 0x0 MSTORE PUSH1 0x20 PUSH1 0x0 KECCAK256 SWAP1 POP SWAP2 SWAP1 POP JUMP JUMPDEST PUSH1 0x0 PUSH1 0x20 PUSH1 0x1F DUP4 ADD DIV SWAP1 POP SWAP2 SWAP1 POP JUMP JUMPDEST PUSH1 0x0 DUP3 DUP3 SHL SWAP1 POP SWAP3 SWAP2 POP POP JUMP JUMPDEST PUSH1 0x0 PUSH1 0x8 DUP4 MUL PUSH2 0x2B1F PUSH32 0xFFFFFFFFFFFFFFFFFFFFFFFFFFFFFFFFFFFFFFFFFFFFFFFFFFFFFFFFFFFFFFFF DUP3 PUSH2 0x2AE2 JUMP JUMPDEST PUSH2 0x2B29 DUP7 DUP4 PUSH2 0x2AE2 JUMP JUMPDEST SWAP6 POP DUP1 NOT DUP5 AND SWAP4 POP DUP1 DUP7 AND DUP5 OR SWAP3 POP POP POP SWAP4 SWAP3 POP POP POP JUMP JUMPDEST PUSH1 0x0 DUP2 SWAP1 POP SWAP2 SWAP1 POP JUMP JUMPDEST PUSH1 0x0 PUSH2 0x2B66 PUSH2 0x2B61 PUSH2 0x2B5C DUP5 PUSH2 0x1B30 JUMP JUMPDEST PUSH2 0x2B41 JUMP JUMPDEST PUSH2 0x1B30 JUMP JUMPDEST SWAP1 POP SWAP2 SWAP1 POP JUMP JUMPDEST PUSH1 0x0 DUP2 SWAP1 POP SWAP2 SWAP1 POP JUMP JUMPDEST PUSH2 0x2B80 DUP4 PUSH2 0x2B4B JUMP JUMPDEST PUSH2 0x2B94 PUSH2 0x2B8C DUP3 PUSH2 0x2B6D JUMP JUMPDEST DUP5 DUP5 SLOAD PUSH2 0x2AEF JUMP JUMPDEST DUP3 SSTORE POP POP POP POP JUMP JUMPDEST PUSH1 0x0 SWAP1 JUMP JUMPDEST PUSH2 0x2BA9 PUSH2 0x2B9C JUMP JUMPDEST PUSH2 0x2BB4 DUP2 DUP5 DUP5 PUSH2 0x2B77 JUMP JUMPDEST POP POP POP JUMP JUMPDEST JUMPDEST DUP2 DUP2 LT ISZERO PUSH2 0x2BD8 JUMPI PUSH2 0x2BCD PUSH1 0x0 DUP3 PUSH2 0x2BA1 JUMP JUMPDEST PUSH1 0x1 DUP2 ADD SWAP1 POP PUSH2 0x2BBA JUMP JUMPDEST POP POP JUMP JUMPDEST PUSH1 0x1F DUP3 GT ISZERO PUSH2 0x2C1D JUMPI PUSH2 0x2BEE DUP2 PUSH2 0x2ABD JUMP JUMPDEST PUSH2 0x2BF7 DUP5 PUSH2 0x2AD2 JUMP JUMPDEST DUP2 ADD PUSH1 0x20 DUP6 LT ISZERO PUSH2 0x2C06 JUMPI DUP2 SWAP1 POP JUMPDEST PUSH2 0x2C1A PUSH2 0x2C12 DUP6 PUSH2 0x2AD2 JUMP JUMPDEST DUP4 ADD DUP3 PUSH2 0x2BB9 JUMP JUMPDEST POP POP JUMPDEST POP POP POP JUMP JUMPDEST PUSH1 0x0 DUP3 DUP3 SHR SWAP1 POP SWAP3 SWAP2 POP POP JUMP JUMPDEST PUSH1 0x0 PUSH2 0x2C40 PUSH1 0x0 NOT DUP5 PUSH1 0x8 MUL PUSH2 0x2C22 JUMP JUMPDEST NOT DUP1 DUP4 AND SWAP2 POP POP SWAP3 SWAP2 POP POP JUMP JUMPDEST PUSH1 0x0 PUSH2 0x2C59 DUP4 DUP4 PUSH2 0x2C2F JUMP JUMPDEST SWAP2 POP DUP3 PUSH1 0x2 MUL DUP3 OR SWAP1 POP SWAP3 SWAP2 POP POP JUMP JUMPDEST PUSH2 0x2C72 DUP3 PUSH2 0x1E47 JUMP JUMPDEST PUSH8 0xFFFFFFFFFFFFFFFF DUP2 GT ISZERO PUSH2 0x2C8B JUMPI PUSH2 0x2C8A PUSH2 0x1CA6 JUMP JUMPDEST JUMPDEST PUSH2 0x2C95 DUP3 SLOAD PUSH2 0x25D6 JUMP JUMPDEST PUSH2 0x2CA0 DUP3 DUP3 DUP6 PUSH2 0x2BDC JUMP JUMPDEST PUSH1 0x0 PUSH1 0x20 SWAP1 POP PUSH1 0x1F DUP4 GT PUSH1 0x1 DUP2 EQ PUSH2 0x2CD3 JUMPI PUSH1 0x0 DUP5 ISZERO PUSH2 0x2CC1 JUMPI DUP3 DUP8 ADD MLOAD SWAP1 POP JUMPDEST PUSH2 0x2CCB DUP6 DUP3 PUSH2 0x2C4D JUMP JUMPDEST DUP7 SSTORE POP PUSH2 0x2D33 JUMP JUMPDEST PUSH1 0x1F NOT DUP5 AND PUSH2 0x2CE1 DUP7 PUSH2 0x2ABD JUMP JUMPDEST PUSH1 0x0 JUMPDEST DUP3 DUP2 LT ISZERO PUSH2 0x2D09 JUMPI DUP5 DUP10 ADD MLOAD DUP3 SSTORE PUSH1 0x1 DUP3 ADD SWAP2 POP PUSH1 0x20 DUP6 ADD SWAP5 POP PUSH1 0x20 DUP2 ADD SWAP1 POP PUSH2 0x2CE4 JUMP JUMPDEST DUP7 DUP4 LT ISZERO PUSH2 0x2D26 JUMPI DUP5 DUP10 ADD MLOAD PUSH2 0x2D22 PUSH1 0x1F DUP10 AND DUP3 PUSH2 0x2C2F JUMP JUMPDEST DUP4 SSTORE POP JUMPDEST PUSH1 0x1 PUSH1 0x2 DUP9 MUL ADD DUP9 SSTORE POP POP POP JUMPDEST POP POP POP POP POP POP JUMP JUMPDEST PUSH32 0x455243313135353A206D696E7420746F20746865207A65726F20616464726573 PUSH1 0x0 DUP3 ADD MSTORE PUSH32 0x7300000000000000000000000000000000000000000000000000000000000000 PUSH1 0x20 DUP3 ADD MSTORE POP JUMP JUMPDEST PUSH1 0x0 PUSH2 0x2D97 PUSH1 0x21 DUP4 PUSH2 0x1E52 JUMP JUMPDEST SWAP2 POP PUSH2 0x2DA2 DUP3 PUSH2 0x2D3B JUMP JUMPDEST PUSH1 0x40 DUP3 ADD SWAP1 POP SWAP2 SWAP1 POP JUMP JUMPDEST PUSH1 0x0 PUSH1 0x20 DUP3 ADD SWAP1 POP DUP2 DUP2 SUB PUSH1 0x0 DUP4 ADD MSTORE PUSH2 0x2DC6 DUP2 PUSH2 0x2D8A JUMP JUMPDEST SWAP1 POP SWAP2 SWAP1 POP JUMP JUMPDEST PUSH1 0x0 PUSH1 0x40 DUP3 ADD SWAP1 POP PUSH2 0x2DE2 PUSH1 0x0 DUP4 ADD DUP6 PUSH2 0x1BA6 JUMP JUMPDEST PUSH2 0x2DEF PUSH1 0x20 DUP4 ADD DUP5 PUSH2 0x1BA6 JUMP JUMPDEST SWAP4 SWAP3 POP POP POP JUMP JUMPDEST PUSH32 0x455243313135353A2069647320616E6420616D6F756E7473206C656E67746820 PUSH1 0x0 DUP3 ADD MSTORE PUSH32 0x6D69736D61746368000000000000000000000000000000000000000000000000 PUSH1 0x20 DUP3 ADD MSTORE POP JUMP JUMPDEST PUSH1 0x0 PUSH2 0x2E52 PUSH1 0x28 DUP4 PUSH2 0x1E52 JUMP JUMPDEST SWAP2 POP PUSH2 0x2E5D DUP3 PUSH2 0x2DF6 JUMP JUMPDEST PUSH1 0x40 DUP3 ADD SWAP1 POP SWAP2 SWAP1 POP JUMP JUMPDEST PUSH1 0x0 PUSH1 0x20 DUP3 ADD SWAP1 POP DUP2 DUP2 SUB PUSH1 0x0 DUP4 ADD MSTORE PUSH2 0x2E81 DUP2 PUSH2 0x2E45 JUMP JUMPDEST SWAP1 POP SWAP2 SWAP1 POP JUMP JUMPDEST PUSH32 0x455243313135353A207472616E7366657220746F20746865207A65726F206164 PUSH1 0x0 DUP3 ADD MSTORE PUSH32 0x6472657373000000000000000000000000000000000000000000000000000000 PUSH1 0x20 DUP3 ADD MSTORE POP JUMP JUMPDEST PUSH1 0x0 PUSH2 0x2EE4 PUSH1 0x25 DUP4 PUSH2 0x1E52 JUMP JUMPDEST SWAP2 POP PUSH2 0x2EEF DUP3 PUSH2 0x2E88 JUMP JUMPDEST PUSH1 0x40 DUP3 ADD SWAP1 POP SWAP2 SWAP1 POP JUMP JUMPDEST PUSH1 0x0 PUSH1 0x20 DUP3 ADD SWAP1 POP DUP2 DUP2 SUB PUSH1 0x0 DUP4 ADD MSTORE PUSH2 0x2F13 DUP2 PUSH2 0x2ED7 JUMP JUMPDEST SWAP1 POP SWAP2 SWAP1 POP JUMP JUMPDEST PUSH32 0x455243313135353A20696E73756666696369656E742062616C616E636520666F PUSH1 0x0 DUP3 ADD MSTORE PUSH32 0x72207472616E7366657200000000000000000000000000000000000000000000 PUSH1 0x20 DUP3 ADD MSTORE POP JUMP JUMPDEST PUSH1 0x0 PUSH2 0x2F76 PUSH1 0x2A DUP4 PUSH2 0x1E52 JUMP JUMPDEST SWAP2 POP PUSH2 0x2F81 DUP3 PUSH2 0x2F1A JUMP JUMPDEST PUSH1 0x40 DUP3 ADD SWAP1 POP SWAP2 SWAP1 POP JUMP JUMPDEST PUSH1 0x0 PUSH1 0x20 DUP3 ADD SWAP1 POP DUP2 DUP2 SUB PUSH1 0x0 DUP4 ADD MSTORE PUSH2 0x2FA5 DUP2 PUSH2 0x2F69 JUMP JUMPDEST SWAP1 POP SWAP2 SWAP1 POP JUMP JUMPDEST PUSH1 0x0 PUSH1 0x40 DUP3 ADD SWAP1 POP DUP2 DUP2 SUB PUSH1 0x0 DUP4 ADD MSTORE PUSH2 0x2FC6 DUP2 DUP6 PUSH2 0x22FB JUMP JUMPDEST SWAP1 POP DUP2 DUP2 SUB PUSH1 0x20 DUP4 ADD MSTORE PUSH2 0x2FDA DUP2 DUP5 PUSH2 0x22FB JUMP JUMPDEST SWAP1 POP SWAP4 SWAP3 POP POP POP JUMP JUMPDEST PUSH32 0x455243313135353A2073657474696E6720617070726F76616C20737461747573 PUSH1 0x0 DUP3 ADD MSTORE PUSH32 0x20666F722073656C660000000000000000000000000000000000000000000000 PUSH1 0x20 DUP3 ADD MSTORE POP JUMP JUMPDEST PUSH1 0x0 PUSH2 0x303F PUSH1 0x29 DUP4 PUSH2 0x1E52 JUMP JUMPDEST SWAP2 POP PUSH2 0x304A DUP3 PUSH2 0x2FE3 JUMP JUMPDEST PUSH1 0x40 DUP3 ADD SWAP1 POP SWAP2 SWAP1 POP JUMP JUMPDEST PUSH1 0x0 PUSH1 0x20 DUP3 ADD SWAP1 POP DUP2 DUP2 SUB PUSH1 0x0 DUP4 ADD MSTORE PUSH2 0x306E DUP2 PUSH2 0x3032 JUMP JUMPDEST SWAP1 POP SWAP2 SWAP1 POP JUMP JUMPDEST PUSH1 0x0 DUP2 MLOAD SWAP1 POP SWAP2 SWAP1 POP JUMP JUMPDEST PUSH1 0x0 DUP3 DUP3 MSTORE PUSH1 0x20 DUP3 ADD SWAP1 POP SWAP3 SWAP2 POP POP JUMP JUMPDEST PUSH1 0x0 PUSH2 0x309C DUP3 PUSH2 0x3075 JUMP JUMPDEST PUSH2 0x30A6 DUP2 DUP6 PUSH2 0x3080 JUMP JUMPDEST SWAP4 POP PUSH2 0x30B6 DUP2 DUP6 PUSH1 0x20 DUP7 ADD PUSH2 0x1E63 JUMP JUMPDEST PUSH2 0x30BF DUP2 PUSH2 0x1C95 JUMP JUMPDEST DUP5 ADD SWAP2 POP POP SWAP3 SWAP2 POP POP JUMP JUMPDEST PUSH1 0x0 PUSH1 0xA0 DUP3 ADD SWAP1 POP PUSH2 0x30DF PUSH1 0x0 DUP4 ADD DUP9 PUSH2 0x237B JUMP JUMPDEST PUSH2 0x30EC PUSH1 0x20 DUP4 ADD DUP8 PUSH2 0x237B JUMP JUMPDEST PUSH2 0x30F9 PUSH1 0x40 DUP4 ADD DUP7 PUSH2 0x1BA6 JUMP JUMPDEST PUSH2 0x3106 PUSH1 0x60 DUP4 ADD DUP6 PUSH2 0x1BA6 JUMP JUMPDEST DUP2 DUP2 SUB PUSH1 0x80 DUP4 ADD MSTORE PUSH2 0x3118 DUP2 DUP5 PUSH2 0x3091 JUMP JUMPDEST SWAP1 POP SWAP7 SWAP6 POP POP POP POP POP POP JUMP JUMPDEST PUSH1 0x0 DUP2 MLOAD SWAP1 POP PUSH2 0x3133 DUP2 PUSH2 0x1BFC JUMP JUMPDEST SWAP3 SWAP2 POP POP JUMP JUMPDEST PUSH1 0x0 PUSH1 0x20 DUP3 DUP5 SUB SLT ISZERO PUSH2 0x314F JUMPI PUSH2 0x314E PUSH2 0x1AC8 JUMP JUMPDEST JUMPDEST PUSH1 0x0 PUSH2 0x315D DUP5 DUP3 DUP6 ADD PUSH2 0x3124 JUMP JUMPDEST SWAP2 POP POP SWAP3 SWAP2 POP POP JUMP JUMPDEST PUSH1 0x0 DUP2 PUSH1 0xE0 SHR SWAP1 POP SWAP2 SWAP1 POP JUMP JUMPDEST PUSH1 0x0 PUSH1 0x3 RETURNDATASIZE GT ISZERO PUSH2 0x3192 JUMPI PUSH1 0x4 PUSH1 0x0 DUP1 RETURNDATACOPY PUSH2 0x318F PUSH1 0x0 MLOAD PUSH2 0x3166 JUMP JUMPDEST SWAP1 POP JUMPDEST SWAP1 JUMP JUMPDEST PUSH1 0x0 PUSH1 0x44 RETURNDATASIZE LT PUSH2 0x3222 JUMPI PUSH2 0x31A7 PUSH2 0x1ABE JUMP JUMPDEST PUSH1 0x4 RETURNDATASIZE SUB PUSH1 0x4 DUP3 RETURNDATACOPY DUP1 MLOAD RETURNDATASIZE PUSH1 0x24 DUP3 ADD GT PUSH8 0xFFFFFFFFFFFFFFFF DUP3 GT OR ISZERO PUSH2 0x31CF JUMPI POP POP PUSH2 0x3222 JUMP JUMPDEST DUP1 DUP3 ADD DUP1 MLOAD PUSH8 0xFFFFFFFFFFFFFFFF DUP2 GT ISZERO PUSH2 0x31ED JUMPI POP POP POP POP PUSH2 0x3222 JUMP JUMPDEST DUP1 PUSH1 0x20 DUP4 ADD ADD PUSH1 0x4 RETURNDATASIZE SUB DUP6 ADD DUP2 GT ISZERO PUSH2 0x320A JUMPI POP POP POP POP POP PUSH2 0x3222 JUMP JUMPDEST PUSH2 0x3219 DUP3 PUSH1 0x20 ADD DUP6 ADD DUP7 PUSH2 0x1CD5 JUMP JUMPDEST DUP3 SWAP6 POP POP POP POP POP POP JUMPDEST SWAP1 JUMP JUMPDEST PUSH32 0x455243313135353A207472616E7366657220746F206E6F6E2D45524331313535 PUSH1 0x0 DUP3 ADD MSTORE PUSH32 0x526563656976657220696D706C656D656E746572000000000000000000000000 PUSH1 0x20 DUP3 ADD MSTORE POP JUMP JUMPDEST PUSH1 0x0 PUSH2 0x3281 PUSH1 0x34 DUP4 PUSH2 0x1E52 JUMP JUMPDEST SWAP2 POP PUSH2 0x328C DUP3 PUSH2 0x3225 JUMP JUMPDEST PUSH1 0x40 DUP3 ADD SWAP1 POP SWAP2 SWAP1 POP JUMP JUMPDEST PUSH1 0x0 PUSH1 0x20 DUP3 ADD SWAP1 POP DUP2 DUP2 SUB PUSH1 0x0 DUP4 ADD MSTORE PUSH2 0x32B0 DUP2 PUSH2 0x3274 JUMP JUMPDEST SWAP1 POP SWAP2 SWAP1 POP JUMP JUMPDEST PUSH32 0x455243313135353A204552433131353552656365697665722072656A65637465 PUSH1 0x0 DUP3 ADD MSTORE PUSH32 0x6420746F6B656E73000000000000000000000000000000000000000000000000 PUSH1 0x20 DUP3 ADD MSTORE POP JUMP JUMPDEST PUSH1 0x0 PUSH2 0x3313 PUSH1 0x28 DUP4 PUSH2 0x1E52 JUMP JUMPDEST SWAP2 POP PUSH2 0x331E DUP3 PUSH2 0x32B7 JUMP JUMPDEST PUSH1 0x40 DUP3 ADD SWAP1 POP SWAP2 SWAP1 POP JUMP JUMPDEST PUSH1 0x0 PUSH1 0x20 DUP3 ADD SWAP1 POP DUP2 DUP2 SUB PUSH1 0x0 DUP4 ADD MSTORE PUSH2 0x3342 DUP2 PUSH2 0x3306 JUMP JUMPDEST SWAP1 POP SWAP2 SWAP1 POP JUMP JUMPDEST PUSH1 0x0 PUSH1 0xA0 DUP3 ADD SWAP1 POP PUSH2 0x335E PUSH1 0x0 DUP4 ADD DUP9 PUSH2 0x237B JUMP JUMPDEST PUSH2 0x336B PUSH1 0x20 DUP4 ADD DUP8 PUSH2 0x237B JUMP JUMPDEST DUP2 DUP2 SUB PUSH1 0x40 DUP4 ADD MSTORE PUSH2 0x337D DUP2 DUP7 PUSH2 0x22FB JUMP JUMPDEST SWAP1 POP DUP2 DUP2 SUB PUSH1 0x60 DUP4 ADD MSTORE PUSH2 0x3391 DUP2 DUP6 PUSH2 0x22FB JUMP JUMPDEST SWAP1 POP DUP2 DUP2 SUB PUSH1 0x80 DUP4 ADD MSTORE PUSH2 0x33A5 DUP2 DUP5 PUSH2 0x3091 JUMP JUMPDEST SWAP1 POP SWAP7 SWAP6 POP POP POP POP POP POP JUMP INVALID LOG2 PUSH5 0x6970667358 0x22 SLT KECCAK256 0xB6 SWAP13 PUSH13 0x2DA91CBA9342CB65762586B4EF SWAP13 CALLVALUE 0x1F 0xC0 BASEFEE ISZERO MSIZE 0xAA DUP9 DUP11 0x25 0xB0 ADD 0xE6 LOG4 0x2F PUSH5 0x736F6C6343 STOP ADDMOD GT STOP CALLER "},"methodIdentifiers":{"balanceOf(address,uint256)":"00fdd58e","balanceOfBatch(address[],uint256[])":"4e1273f4","isApprovedForAll(address,address)":"e985e9c5","mint(uint256,uint256)":"1b2ef1ca","mintRate()":"ca0dcf16","minted()":"4f02c420","owner()":"8da5cb5b","renounceOwnership()":"715018a6","safeBatchTransferFrom(address,address,uint256[],uint256[],bytes)":"2eb2c2d6","safeTransferFrom(address,address,uint256,uint256,bytes)":"f242432a","setApprovalForAll(address,bool)":"a22cb465","setURI(string)":"02fe5305","supplies()":"8efa8874","supportsInterface(bytes4)":"01ffc9a7","tokenId(uint256)":"7dcb0e5f","transferOwnership(address)":"f2fde38b","uri(uint256)":"0e89341c"}}}}}