{
  "_format": "hh-sol-artifact-1",
  "contractName": "MintNFT_ERC1155",
  "sourceName": "contracts/MintNFT_ERC1155.sol",
  "abi": [
    {
      "inputs": [
        {
          "internalType": "string",
          "name": "NftName",
          "type": "string"
        },
        {
          "internalType": "string",
          "name": "NftSymbol",
          "type": "string"
        }
      ],
      "stateMutability": "nonpayable",
      "type": "constructor"
    },
    {
      "anonymous": false,
      "inputs": [
        {
          "indexed": true,
          "internalType": "address",
          "name": "account",
          "type": "address"
        },
        {
          "indexed": true,
          "internalType": "address",
          "name": "operator",
          "type": "address"
        },
        {
          "indexed": false,
          "internalType": "bool",
          "name": "approved",
          "type": "bool"
        }
      ],
      "name": "ApprovalForAll",
      "type": "event"
    },
    {
      "anonymous": false,
      "inputs": [
        {
          "indexed": true,
          "internalType": "address",
          "name": "previousOwner",
          "type": "address"
        },
        {
          "indexed": true,
          "internalType": "address",
          "name": "newOwner",
          "type": "address"
        }
      ],
      "name": "OwnershipTransferred",
      "type": "event"
    },
    {
      "anonymous": false,
      "inputs": [
        {
          "indexed": true,
          "internalType": "address",
          "name": "operator",
          "type": "address"
        },
        {
          "indexed": true,
          "internalType": "address",
          "name": "from",
          "type": "address"
        },
        {
          "indexed": true,
          "internalType": "address",
          "name": "to",
          "type": "address"
        },
        {
          "indexed": false,
          "internalType": "uint256[]",
          "name": "ids",
          "type": "uint256[]"
        },
        {
          "indexed": false,
          "internalType": "uint256[]",
          "name": "values",
          "type": "uint256[]"
        }
      ],
      "name": "TransferBatch",
      "type": "event"
    },
    {
      "anonymous": false,
      "inputs": [
        {
          "indexed": true,
          "internalType": "address",
          "name": "operator",
          "type": "address"
        },
        {
          "indexed": true,
          "internalType": "address",
          "name": "from",
          "type": "address"
        },
        {
          "indexed": true,
          "internalType": "address",
          "name": "to",
          "type": "address"
        },
        {
          "indexed": false,
          "internalType": "uint256",
          "name": "id",
          "type": "uint256"
        },
        {
          "indexed": false,
          "internalType": "uint256",
          "name": "value",
          "type": "uint256"
        }
      ],
      "name": "TransferSingle",
      "type": "event"
    },
    {
      "anonymous": false,
      "inputs": [
        {
          "indexed": false,
          "internalType": "string",
          "name": "value",
          "type": "string"
        },
        {
          "indexed": true,
          "internalType": "uint256",
          "name": "id",
          "type": "uint256"
        }
      ],
      "name": "URI",
      "type": "event"
    },
    {
      "inputs": [],
      "name": "EditionPrice",
      "outputs": [
        {
          "internalType": "uint256",
          "name": "",
          "type": "uint256"
        }
      ],
      "stateMutability": "view",
      "type": "function"
    },
    {
      "inputs": [
        {
          "internalType": "address",
          "name": "account",
          "type": "address"
        },
        {
          "internalType": "uint256",
          "name": "id",
          "type": "uint256"
        }
      ],
      "name": "balanceOf",
      "outputs": [
        {
          "internalType": "uint256",
          "name": "",
          "type": "uint256"
        }
      ],
      "stateMutability": "view",
      "type": "function"
    },
    {
      "inputs": [
        {
          "internalType": "address[]",
          "name": "accounts",
          "type": "address[]"
        },
        {
          "internalType": "uint256[]",
          "name": "ids",
          "type": "uint256[]"
        }
      ],
      "name": "balanceOfBatch",
      "outputs": [
        {
          "internalType": "uint256[]",
          "name": "",
          "type": "uint256[]"
        }
      ],
      "stateMutability": "view",
      "type": "function"
    },
    {
      "inputs": [
        {
          "internalType": "uint256",
          "name": "id",
          "type": "uint256"
        }
      ],
      "name": "exists",
      "outputs": [
        {
          "internalType": "bool",
          "name": "",
          "type": "bool"
        }
      ],
      "stateMutability": "view",
      "type": "function"
    },
    {
      "inputs": [
        {
          "internalType": "address",
          "name": "account",
          "type": "address"
        },
        {
          "internalType": "address",
          "name": "operator",
          "type": "address"
        }
      ],
      "name": "isApprovedForAll",
      "outputs": [
        {
          "internalType": "bool",
          "name": "",
          "type": "bool"
        }
      ],
      "stateMutability": "view",
      "type": "function"
    },
    {
      "inputs": [
        {
          "internalType": "address",
          "name": "account",
          "type": "address"
        },
        {
          "internalType": "uint256",
          "name": "edition",
          "type": "uint256"
        },
        {
          "internalType": "string",
          "name": "uri",
          "type": "string"
        }
      ],
      "name": "mint",
      "outputs": [],
      "stateMutability": "payable",
      "type": "function"
    },
    {
      "inputs": [
        {
          "internalType": "address",
          "name": "to",
          "type": "address"
        },
        {
          "internalType": "uint256[]",
          "name": "ids",
          "type": "uint256[]"
        },
        {
          "internalType": "uint256[]",
          "name": "editions",
          "type": "uint256[]"
        }
      ],
      "name": "mintBatch",
      "outputs": [],
      "stateMutability": "payable",
      "type": "function"
    },
    {
      "inputs": [],
      "name": "name",
      "outputs": [
        {
          "internalType": "string",
          "name": "",
          "type": "string"
        }
      ],
      "stateMutability": "view",
      "type": "function"
    },
    {
      "inputs": [],
      "name": "owner",
      "outputs": [
        {
          "internalType": "address",
          "name": "",
          "type": "address"
        }
      ],
      "stateMutability": "view",
      "type": "function"
    },
    {
      "inputs": [],
      "name": "renounceOwnership",
      "outputs": [],
      "stateMutability": "nonpayable",
      "type": "function"
    },
    {
      "inputs": [
        {
          "internalType": "address",
          "name": "from",
          "type": "address"
        },
        {
          "internalType": "address",
          "name": "to",
          "type": "address"
        },
        {
          "internalType": "uint256[]",
          "name": "ids",
          "type": "uint256[]"
        },
        {
          "internalType": "uint256[]",
          "name": "amounts",
          "type": "uint256[]"
        },
        {
          "internalType": "bytes",
          "name": "data",
          "type": "bytes"
        }
      ],
      "name": "safeBatchTransferFrom",
      "outputs": [],
      "stateMutability": "nonpayable",
      "type": "function"
    },
    {
      "inputs": [
        {
          "internalType": "address",
          "name": "from",
          "type": "address"
        },
        {
          "internalType": "address",
          "name": "to",
          "type": "address"
        },
        {
          "internalType": "uint256",
          "name": "id",
          "type": "uint256"
        },
        {
          "internalType": "uint256",
          "name": "amount",
          "type": "uint256"
        },
        {
          "internalType": "bytes",
          "name": "data",
          "type": "bytes"
        }
      ],
      "name": "safeTransferFrom",
      "outputs": [],
      "stateMutability": "nonpayable",
      "type": "function"
    },
    {
      "inputs": [
        {
          "internalType": "address",
          "name": "operator",
          "type": "address"
        },
        {
          "internalType": "bool",
          "name": "approved",
          "type": "bool"
        }
      ],
      "name": "setApprovalForAll",
      "outputs": [],
      "stateMutability": "nonpayable",
      "type": "function"
    },
    {
      "inputs": [
        {
          "internalType": "bytes4",
          "name": "interfaceId",
          "type": "bytes4"
        }
      ],
      "name": "supportsInterface",
      "outputs": [
        {
          "internalType": "bool",
          "name": "",
          "type": "bool"
        }
      ],
      "stateMutability": "view",
      "type": "function"
    },
    {
      "inputs": [],
      "name": "symbol",
      "outputs": [
        {
          "internalType": "string",
          "name": "",
          "type": "string"
        }
      ],
      "stateMutability": "view",
      "type": "function"
    },
    {
      "inputs": [
        {
          "internalType": "uint256",
          "name": "id",
          "type": "uint256"
        }
      ],
      "name": "totalSupply",
      "outputs": [
        {
          "internalType": "uint256",
          "name": "",
          "type": "uint256"
        }
      ],
      "stateMutability": "view",
      "type": "function"
    },
    {
      "inputs": [
        {
          "internalType": "address",
          "name": "newOwner",
          "type": "address"
        }
      ],
      "name": "transferOwnership",
      "outputs": [],
      "stateMutability": "nonpayable",
      "type": "function"
    },
    {
      "inputs": [
        {
          "internalType": "uint256",
          "name": "",
          "type": "uint256"
        }
      ],
      "name": "uri",
      "outputs": [
        {
          "internalType": "string",
          "name": "",
          "type": "string"
        }
      ],
      "stateMutability": "view",
      "type": "function"
    }
  ],
  "bytecode": "0x6080604052655af3107a40006006553480156200001b57600080fd5b5060405162003fdb38038062003fdb833981810160405281019062000041919062000325565b604051806020016040528060008152506200006281620000af60201b60201c565b506200008362000077620000c460201b60201c565b620000cc60201b60201c565b8160079081620000949190620005f5565b508060089081620000a69190620005f5565b505050620006dc565b8060029081620000c09190620005f5565b5050565b600033905090565b6000600360009054906101000a900473ffffffffffffffffffffffffffffffffffffffff16905081600360006101000a81548173ffffffffffffffffffffffffffffffffffffffff021916908373ffffffffffffffffffffffffffffffffffffffff1602179055508173ffffffffffffffffffffffffffffffffffffffff168173ffffffffffffffffffffffffffffffffffffffff167f8be0079c531659141344cd1fd0a4f28419497f9722a3daafe3b4186f6b6457e060405160405180910390a35050565b6000604051905090565b600080fd5b600080fd5b600080fd5b600080fd5b6000601f19601f8301169050919050565b7f4e487b7100000000000000000000000000000000000000000000000000000000600052604160045260246000fd5b620001fb82620001b0565b810181811067ffffffffffffffff821117156200021d576200021c620001c1565b5b80604052505050565b60006200023262000192565b9050620002408282620001f0565b919050565b600067ffffffffffffffff821115620002635762000262620001c1565b5b6200026e82620001b0565b9050602081019050919050565b60005b838110156200029b5780820151818401526020810190506200027e565b60008484015250505050565b6000620002be620002b88462000245565b62000226565b905082815260208101848484011115620002dd57620002dc620001ab565b5b620002ea8482856200027b565b509392505050565b600082601f8301126200030a5762000309620001a6565b5b81516200031c848260208601620002a7565b91505092915050565b600080604083850312156200033f576200033e6200019c565b5b600083015167ffffffffffffffff81111562000360576200035f620001a1565b5b6200036e85828601620002f2565b925050602083015167ffffffffffffffff811115620003925762000391620001a1565b5b620003a085828601620002f2565b9150509250929050565b600081519050919050565b7f4e487b7100000000000000000000000000000000000000000000000000000000600052602260045260246000fd5b60006002820490506001821680620003fd57607f821691505b602082108103620004135762000412620003b5565b5b50919050565b60008190508160005260206000209050919050565b60006020601f8301049050919050565b600082821b905092915050565b6000600883026200047d7fffffffffffffffffffffffffffffffffffffffffffffffffffffffffffffffff826200043e565b6200048986836200043e565b95508019841693508086168417925050509392505050565b6000819050919050565b6000819050919050565b6000620004d6620004d0620004ca84620004a1565b620004ab565b620004a1565b9050919050565b6000819050919050565b620004f283620004b5565b6200050a6200050182620004dd565b8484546200044b565b825550505050565b600090565b6200052162000512565b6200052e818484620004e7565b505050565b5b8181101562000556576200054a60008262000517565b60018101905062000534565b5050565b601f821115620005a5576200056f8162000419565b6200057a846200042e565b810160208510156200058a578190505b620005a262000599856200042e565b83018262000533565b50505b505050565b600082821c905092915050565b6000620005ca60001984600802620005aa565b1980831691505092915050565b6000620005e58383620005b7565b9150826002028217905092915050565b6200060082620003aa565b67ffffffffffffffff8111156200061c576200061b620001c1565b5b620006288254620003e4565b620006358282856200055a565b600060209050601f8311600181146200066d576000841562000658578287015190505b620006648582620005d7565b865550620006d4565b601f1984166200067d8662000419565b60005b82811015620006a75784890151825560018201915060208501945060208101905062000680565b86831015620006c75784890151620006c3601f891682620005b7565b8355505b6001600288020188555050505b505050505050565b6138ef80620006ec6000396000f3fe6080604052600436106101085760003560e01c80638da5cb5b11610095578063d3fc986411610064578063d3fc986414610390578063d81d0a15146103ac578063e985e9c5146103c8578063f242432a14610405578063f2fde38b1461042e57610108565b80638da5cb5b146102d457806395d89b41146102ff578063a22cb4651461032a578063bd85b0391461035357610108565b80632eb2c2d6116100dc5780632eb2c2d6146101ef5780634e1273f4146102185780634f558e7914610255578063715018a61461029257806386e7e099146102a957610108565b8062fdd58e1461010d57806301ffc9a71461014a57806306fdde03146101875780630e89341c146101b2575b600080fd5b34801561011957600080fd5b50610134600480360381019061012f9190612051565b610457565b60405161014191906120a0565b60405180910390f35b34801561015657600080fd5b50610171600480360381019061016c9190612113565b61051f565b60405161017e919061215b565b60405180910390f35b34801561019357600080fd5b5061019c610601565b6040516101a99190612206565b60405180910390f35b3480156101be57600080fd5b506101d960048036038101906101d49190612228565b61068f565b6040516101e69190612206565b60405180910390f35b3480156101fb57600080fd5b5061021660048036038101906102119190612452565b610723565b005b34801561022457600080fd5b5061023f600480360381019061023a91906125e4565b6107c4565b60405161024c919061271a565b60405180910390f35b34801561026157600080fd5b5061027c60048036038101906102779190612228565b6108dd565b604051610289919061215b565b60405180910390f35b34801561029e57600080fd5b506102a76108f1565b005b3480156102b557600080fd5b506102be610905565b6040516102cb91906120a0565b60405180910390f35b3480156102e057600080fd5b506102e961090b565b6040516102f6919061274b565b60405180910390f35b34801561030b57600080fd5b50610314610935565b6040516103219190612206565b60405180910390f35b34801561033657600080fd5b50610351600480360381019061034c9190612792565b6109c3565b005b34801561035f57600080fd5b5061037a60048036038101906103759190612228565b6109d9565b60405161038791906120a0565b60405180910390f35b6103aa60048036038101906103a59190612873565b6109f6565b005b6103c660048036038101906103c191906128e2565b610a9f565b005b3480156103d457600080fd5b506103ef60048036038101906103ea919061296d565b610abf565b6040516103fc919061215b565b60405180910390f35b34801561041157600080fd5b5061042c600480360381019061042791906129ad565b610b53565b005b34801561043a57600080fd5b5061045560048036038101906104509190612a44565b610bf4565b005b60008073ffffffffffffffffffffffffffffffffffffffff168373ffffffffffffffffffffffffffffffffffffffff16036104c7576040517f08c379a00000000000000000000000000000000000000000000000000000000081526004016104be90612ae3565b60405180910390fd5b60008083815260200190815260200160002060008473ffffffffffffffffffffffffffffffffffffffff1673ffffffffffffffffffffffffffffffffffffffff16815260200190815260200160002054905092915050565b60007fd9b67a26000000000000000000000000000000000000000000000000000000007bffffffffffffffffffffffffffffffffffffffffffffffffffffffff1916827bffffffffffffffffffffffffffffffffffffffffffffffffffffffff191614806105ea57507f0e89341c000000000000000000000000000000000000000000000000000000007bffffffffffffffffffffffffffffffffffffffffffffffffffffffff1916827bffffffffffffffffffffffffffffffffffffffffffffffffffffffff1916145b806105fa57506105f982610c77565b5b9050919050565b6007805461060e90612b32565b80601f016020809104026020016040519081016040528092919081815260200182805461063a90612b32565b80156106875780601f1061065c57610100808354040283529160200191610687565b820191906000526020600020905b81548152906001019060200180831161066a57829003601f168201915b505050505081565b60606002805461069e90612b32565b80601f01602080910402602001604051908101604052809291908181526020018280546106ca90612b32565b80156107175780601f106106ec57610100808354040283529160200191610717565b820191906000526020600020905b8154815290600101906020018083116106fa57829003601f168201915b50505050509050919050565b61072b610ce1565b73ffffffffffffffffffffffffffffffffffffffff168573ffffffffffffffffffffffffffffffffffffffff16148061077157506107708561076b610ce1565b610abf565b5b6107b0576040517f08c379a00000000000000000000000000000000000000000000000000000000081526004016107a790612bd5565b60405180910390fd5b6107bd8585858585610ce9565b5050505050565b6060815183511461080a576040517f08c379a000000000000000000000000000000000000000000000000000000000815260040161080190612c67565b60405180910390fd5b6000835167ffffffffffffffff8111156108275761082661225a565b5b6040519080825280602002602001820160405280156108555781602001602082028036833780820191505090505b50905060005b84518110156108d2576108a285828151811061087a57610879612c87565b5b602002602001015185838151811061089557610894612c87565b5b6020026020010151610457565b8282815181106108b5576108b4612c87565b5b602002602001018181525050806108cb90612ce5565b905061085b565b508091505092915050565b6000806108e9836109d9565b119050919050565b6108f961100a565b6109036000611088565b565b60065481565b6000600360009054906101000a900473ffffffffffffffffffffffffffffffffffffffff16905090565b6008805461094290612b32565b80601f016020809104026020016040519081016040528092919081815260200182805461096e90612b32565b80156109bb5780601f10610990576101008083540402835291602001916109bb565b820191906000526020600020905b81548152906001019060200180831161099e57829003601f168201915b505050505081565b6109d56109ce610ce1565b838361114e565b5050565b600060046000838152602001908152602001600020549050919050565b610a0060056112ba565b6000610a0c60056112d0565b905082600654610a1c9190612d2d565b3373ffffffffffffffffffffffffffffffffffffffff16311015610a75576040517f08c379a0000000000000000000000000000000000000000000000000000000008152600401610a6c90612de1565b60405180910390fd5b610a90848285604051806020016040528060008152506112de565b610a998261148e565b50505050565b610aba838383604051806020016040528060008152506114a1565b505050565b6000600160008473ffffffffffffffffffffffffffffffffffffffff1673ffffffffffffffffffffffffffffffffffffffff16815260200190815260200160002060008373ffffffffffffffffffffffffffffffffffffffff1673ffffffffffffffffffffffffffffffffffffffff16815260200190815260200160002060009054906101000a900460ff16905092915050565b610b5b610ce1565b73ffffffffffffffffffffffffffffffffffffffff168573ffffffffffffffffffffffffffffffffffffffff161480610ba15750610ba085610b9b610ce1565b610abf565b5b610be0576040517f08c379a0000000000000000000000000000000000000000000000000000000008152600401610bd790612bd5565b60405180910390fd5b610bed85858585856116cd565b5050505050565b610bfc61100a565b600073ffffffffffffffffffffffffffffffffffffffff168173ffffffffffffffffffffffffffffffffffffffff1603610c6b576040517f08c379a0000000000000000000000000000000000000000000000000000000008152600401610c6290612e73565b60405180910390fd5b610c7481611088565b50565b60007f01ffc9a7000000000000000000000000000000000000000000000000000000007bffffffffffffffffffffffffffffffffffffffffffffffffffffffff1916827bffffffffffffffffffffffffffffffffffffffffffffffffffffffff1916149050919050565b600033905090565b8151835114610d2d576040517f08c379a0000000000000000000000000000000000000000000000000000000008152600401610d2490612f05565b60405180910390fd5b600073ffffffffffffffffffffffffffffffffffffffff168473ffffffffffffffffffffffffffffffffffffffff1603610d9c576040517f08c379a0000000000000000000000000000000000000000000000000000000008152600401610d9390612f97565b60405180910390fd5b6000610da6610ce1565b9050610db6818787878787611968565b60005b8451811015610f67576000858281518110610dd757610dd6612c87565b5b602002602001015190506000858381518110610df657610df5612c87565b5b60200260200101519050600080600084815260200190815260200160002060008b73ffffffffffffffffffffffffffffffffffffffff1673ffffffffffffffffffffffffffffffffffffffff16815260200190815260200160002054905081811015610e97576040517f08c379a0000000000000000000000000000000000000000000000000000000008152600401610e8e90613029565b60405180910390fd5b81810360008085815260200190815260200160002060008c73ffffffffffffffffffffffffffffffffffffffff1673ffffffffffffffffffffffffffffffffffffffff168152602001908152602001600020819055508160008085815260200190815260200160002060008b73ffffffffffffffffffffffffffffffffffffffff1673ffffffffffffffffffffffffffffffffffffffff1681526020019081526020016000206000828254610f4c9190613049565b9250508190555050505080610f6090612ce5565b9050610db9565b508473ffffffffffffffffffffffffffffffffffffffff168673ffffffffffffffffffffffffffffffffffffffff168273ffffffffffffffffffffffffffffffffffffffff167f4a39dc06d4c0dbc64b70af90fd698a233a518aa5d07e595d983b8c0526c8f7fb8787604051610fde92919061307d565b60405180910390a4610ff481878787878761197e565b611002818787878787611986565b505050505050565b611012610ce1565b73ffffffffffffffffffffffffffffffffffffffff1661103061090b565b73ffffffffffffffffffffffffffffffffffffffff1614611086576040517f08c379a000000000000000000000000000000000000000000000000000000000815260040161107d90613100565b60405180910390fd5b565b6000600360009054906101000a900473ffffffffffffffffffffffffffffffffffffffff16905081600360006101000a81548173ffffffffffffffffffffffffffffffffffffffff021916908373ffffffffffffffffffffffffffffffffffffffff1602179055508173ffffffffffffffffffffffffffffffffffffffff168173ffffffffffffffffffffffffffffffffffffffff167f8be0079c531659141344cd1fd0a4f28419497f9722a3daafe3b4186f6b6457e060405160405180910390a35050565b8173ffffffffffffffffffffffffffffffffffffffff168373ffffffffffffffffffffffffffffffffffffffff16036111bc576040517f08c379a00000000000000000000000000000000000000000000000000000000081526004016111b390613192565b60405180910390fd5b80600160008573ffffffffffffffffffffffffffffffffffffffff1673ffffffffffffffffffffffffffffffffffffffff16815260200190815260200160002060008473ffffffffffffffffffffffffffffffffffffffff1673ffffffffffffffffffffffffffffffffffffffff16815260200190815260200160002060006101000a81548160ff0219169083151502179055508173ffffffffffffffffffffffffffffffffffffffff168373ffffffffffffffffffffffffffffffffffffffff167f17307eab39ab6107e8899845ad3d59bd9653f200f220920489ca2b5937696c31836040516112ad919061215b565b60405180910390a3505050565b6001816000016000828254019250508190555050565b600081600001549050919050565b600073ffffffffffffffffffffffffffffffffffffffff168473ffffffffffffffffffffffffffffffffffffffff160361134d576040517f08c379a000000000000000000000000000000000000000000000000000000000815260040161134490613224565b60405180910390fd5b6000611357610ce1565b9050600061136485611b5d565b9050600061137185611b5d565b905061138283600089858589611968565b8460008088815260200190815260200160002060008973ffffffffffffffffffffffffffffffffffffffff1673ffffffffffffffffffffffffffffffffffffffff16815260200190815260200160002060008282546113e19190613049565b925050819055508673ffffffffffffffffffffffffffffffffffffffff16600073ffffffffffffffffffffffffffffffffffffffff168473ffffffffffffffffffffffffffffffffffffffff167fc3d58168c5ae7397731d063d5bbf3d657854427343f4c083240f7aacaa2d0f62898960405161145f929190613244565b60405180910390a46114768360008985858961197e565b61148583600089898989611bd7565b50505050505050565b806002908161149d9190613419565b5050565b600073ffffffffffffffffffffffffffffffffffffffff168473ffffffffffffffffffffffffffffffffffffffff1603611510576040517f08c379a000000000000000000000000000000000000000000000000000000000815260040161150790613224565b60405180910390fd5b8151835114611554576040517f08c379a000000000000000000000000000000000000000000000000000000000815260040161154b90612f05565b60405180910390fd5b600061155e610ce1565b905061156f81600087878787611968565b60005b84518110156116285783818151811061158e5761158d612c87565b5b60200260200101516000808784815181106115ac576115ab612c87565b5b6020026020010151815260200190815260200160002060008873ffffffffffffffffffffffffffffffffffffffff1673ffffffffffffffffffffffffffffffffffffffff168152602001908152602001600020600082825461160e9190613049565b92505081905550808061162090612ce5565b915050611572565b508473ffffffffffffffffffffffffffffffffffffffff16600073ffffffffffffffffffffffffffffffffffffffff168273ffffffffffffffffffffffffffffffffffffffff167f4a39dc06d4c0dbc64b70af90fd698a233a518aa5d07e595d983b8c0526c8f7fb87876040516116a092919061307d565b60405180910390a46116b78160008787878761197e565b6116c681600087878787611986565b5050505050565b600073ffffffffffffffffffffffffffffffffffffffff168473ffffffffffffffffffffffffffffffffffffffff160361173c576040517f08c379a000000000000000000000000000000000000000000000000000000000815260040161173390612f97565b60405180910390fd5b6000611746610ce1565b9050600061175385611b5d565b9050600061176085611b5d565b9050611770838989858589611968565b600080600088815260200190815260200160002060008a73ffffffffffffffffffffffffffffffffffffffff1673ffffffffffffffffffffffffffffffffffffffff16815260200190815260200160002054905085811015611807576040517f08c379a00000000000000000000000000000000000000000000000000000000081526004016117fe90613029565b60405180910390fd5b85810360008089815260200190815260200160002060008b73ffffffffffffffffffffffffffffffffffffffff1673ffffffffffffffffffffffffffffffffffffffff168152602001908152602001600020819055508560008089815260200190815260200160002060008a73ffffffffffffffffffffffffffffffffffffffff1673ffffffffffffffffffffffffffffffffffffffff16815260200190815260200160002060008282546118bc9190613049565b925050819055508773ffffffffffffffffffffffffffffffffffffffff168973ffffffffffffffffffffffffffffffffffffffff168573ffffffffffffffffffffffffffffffffffffffff167fc3d58168c5ae7397731d063d5bbf3d657854427343f4c083240f7aacaa2d0f628a8a604051611939929190613244565b60405180910390a461194f848a8a86868a61197e565b61195d848a8a8a8a8a611bd7565b505050505050505050565b611976868686868686611dae565b505050505050565b505050505050565b6119a58473ffffffffffffffffffffffffffffffffffffffff16611f7e565b15611b55578373ffffffffffffffffffffffffffffffffffffffff1663bc197c8187878686866040518663ffffffff1660e01b81526004016119eb959493929190613540565b6020604051808303816000875af1925050508015611a2757506040513d601f19601f82011682018060405250810190611a2491906135bd565b60015b611acc57611a336135f7565b806308c379a003611a8f5750611a47613619565b80611a525750611a91565b806040517f08c379a0000000000000000000000000000000000000000000000000000000008152600401611a869190612206565b60405180910390fd5b505b6040517f08c379a0000000000000000000000000000000000000000000000000000000008152600401611ac39061371b565b60405180910390fd5b63bc197c8160e01b7bffffffffffffffffffffffffffffffffffffffffffffffffffffffff1916817bffffffffffffffffffffffffffffffffffffffffffffffffffffffff191614611b53576040517f08c379a0000000000000000000000000000000000000000000000000000000008152600401611b4a906137ad565b60405180910390fd5b505b505050505050565b60606000600167ffffffffffffffff811115611b7c57611b7b61225a565b5b604051908082528060200260200182016040528015611baa5781602001602082028036833780820191505090505b5090508281600081518110611bc257611bc1612c87565b5b60200260200101818152505080915050919050565b611bf68473ffffffffffffffffffffffffffffffffffffffff16611f7e565b15611da6578373ffffffffffffffffffffffffffffffffffffffff1663f23a6e6187878686866040518663ffffffff1660e01b8152600401611c3c9594939291906137cd565b6020604051808303816000875af1925050508015611c7857506040513d601f19601f82011682018060405250810190611c7591906135bd565b60015b611d1d57611c846135f7565b806308c379a003611ce05750611c98613619565b80611ca35750611ce2565b806040517f08c379a0000000000000000000000000000000000000000000000000000000008152600401611cd79190612206565b60405180910390fd5b505b6040517f08c379a0000000000000000000000000000000000000000000000000000000008152600401611d149061371b565b60405180910390fd5b63f23a6e6160e01b7bffffffffffffffffffffffffffffffffffffffffffffffffffffffff1916817bffffffffffffffffffffffffffffffffffffffffffffffffffffffff191614611da4576040517f08c379a0000000000000000000000000000000000000000000000000000000008152600401611d9b906137ad565b60405180910390fd5b505b505050505050565b611dbc868686868686611fa1565b600073ffffffffffffffffffffffffffffffffffffffff168573ffffffffffffffffffffffffffffffffffffffff1603611e6d5760005b8351811015611e6b57828181518110611e0f57611e0e612c87565b5b602002602001015160046000868481518110611e2e57611e2d612c87565b5b602002602001015181526020019081526020016000206000828254611e539190613049565b9250508190555080611e6490612ce5565b9050611df3565b505b600073ffffffffffffffffffffffffffffffffffffffff168473ffffffffffffffffffffffffffffffffffffffff1603611f765760005b8351811015611f74576000848281518110611ec257611ec1612c87565b5b602002602001015190506000848381518110611ee157611ee0612c87565b5b6020026020010151905060006004600084815260200190815260200160002054905081811015611f46576040517f08c379a0000000000000000000000000000000000000000000000000000000008152600401611f3d90613899565b60405180910390fd5b818103600460008581526020019081526020016000208190555050505080611f6d90612ce5565b9050611ea4565b505b505050505050565b6000808273ffffffffffffffffffffffffffffffffffffffff163b119050919050565b505050505050565b6000604051905090565b600080fd5b600080fd5b600073ffffffffffffffffffffffffffffffffffffffff82169050919050565b6000611fe882611fbd565b9050919050565b611ff881611fdd565b811461200357600080fd5b50565b60008135905061201581611fef565b92915050565b6000819050919050565b61202e8161201b565b811461203957600080fd5b50565b60008135905061204b81612025565b92915050565b6000806040838503121561206857612067611fb3565b5b600061207685828601612006565b92505060206120878582860161203c565b9150509250929050565b61209a8161201b565b82525050565b60006020820190506120b56000830184612091565b92915050565b60007fffffffff0000000000000000000000000000000000000000000000000000000082169050919050565b6120f0816120bb565b81146120fb57600080fd5b50565b60008135905061210d816120e7565b92915050565b60006020828403121561212957612128611fb3565b5b6000612137848285016120fe565b91505092915050565b60008115159050919050565b61215581612140565b82525050565b6000602082019050612170600083018461214c565b92915050565b600081519050919050565b600082825260208201905092915050565b60005b838110156121b0578082015181840152602081019050612195565b60008484015250505050565b6000601f19601f8301169050919050565b60006121d882612176565b6121e28185612181565b93506121f2818560208601612192565b6121fb816121bc565b840191505092915050565b6000602082019050818103600083015261222081846121cd565b905092915050565b60006020828403121561223e5761223d611fb3565b5b600061224c8482850161203c565b91505092915050565b600080fd5b7f4e487b7100000000000000000000000000000000000000000000000000000000600052604160045260246000fd5b612292826121bc565b810181811067ffffffffffffffff821117156122b1576122b061225a565b5b80604052505050565b60006122c4611fa9565b90506122d08282612289565b919050565b600067ffffffffffffffff8211156122f0576122ef61225a565b5b602082029050602081019050919050565b600080fd5b6000612319612314846122d5565b6122ba565b9050808382526020820190506020840283018581111561233c5761233b612301565b5b835b818110156123655780612351888261203c565b84526020840193505060208101905061233e565b5050509392505050565b600082601f83011261238457612383612255565b5b8135612394848260208601612306565b91505092915050565b600080fd5b600067ffffffffffffffff8211156123bd576123bc61225a565b5b6123c6826121bc565b9050602081019050919050565b82818337600083830152505050565b60006123f56123f0846123a2565b6122ba565b9050828152602081018484840111156124115761241061239d565b5b61241c8482856123d3565b509392505050565b600082601f83011261243957612438612255565b5b81356124498482602086016123e2565b91505092915050565b600080600080600060a0868803121561246e5761246d611fb3565b5b600061247c88828901612006565b955050602061248d88828901612006565b945050604086013567ffffffffffffffff8111156124ae576124ad611fb8565b5b6124ba8882890161236f565b935050606086013567ffffffffffffffff8111156124db576124da611fb8565b5b6124e78882890161236f565b925050608086013567ffffffffffffffff81111561250857612507611fb8565b5b61251488828901612424565b9150509295509295909350565b600067ffffffffffffffff82111561253c5761253b61225a565b5b602082029050602081019050919050565b600061256061255b84612521565b6122ba565b9050808382526020820190506020840283018581111561258357612582612301565b5b835b818110156125ac57806125988882612006565b845260208401935050602081019050612585565b5050509392505050565b600082601f8301126125cb576125ca612255565b5b81356125db84826020860161254d565b91505092915050565b600080604083850312156125fb576125fa611fb3565b5b600083013567ffffffffffffffff81111561261957612618611fb8565b5b612625858286016125b6565b925050602083013567ffffffffffffffff81111561264657612645611fb8565b5b6126528582860161236f565b9150509250929050565b600081519050919050565b600082825260208201905092915050565b6000819050602082019050919050565b6126918161201b565b82525050565b60006126a38383612688565b60208301905092915050565b6000602082019050919050565b60006126c78261265c565b6126d18185612667565b93506126dc83612678565b8060005b8381101561270d5781516126f48882612697565b97506126ff836126af565b9250506001810190506126e0565b5085935050505092915050565b6000602082019050818103600083015261273481846126bc565b905092915050565b61274581611fdd565b82525050565b6000602082019050612760600083018461273c565b92915050565b61276f81612140565b811461277a57600080fd5b50565b60008135905061278c81612766565b92915050565b600080604083850312156127a9576127a8611fb3565b5b60006127b785828601612006565b92505060206127c88582860161277d565b9150509250929050565b600067ffffffffffffffff8211156127ed576127ec61225a565b5b6127f6826121bc565b9050602081019050919050565b6000612816612811846127d2565b6122ba565b9050828152602081018484840111156128325761283161239d565b5b61283d8482856123d3565b509392505050565b600082601f83011261285a57612859612255565b5b813561286a848260208601612803565b91505092915050565b60008060006060848603121561288c5761288b611fb3565b5b600061289a86828701612006565b93505060206128ab8682870161203c565b925050604084013567ffffffffffffffff8111156128cc576128cb611fb8565b5b6128d886828701612845565b9150509250925092565b6000806000606084860312156128fb576128fa611fb3565b5b600061290986828701612006565b935050602084013567ffffffffffffffff81111561292a57612929611fb8565b5b6129368682870161236f565b925050604084013567ffffffffffffffff81111561295757612956611fb8565b5b6129638682870161236f565b9150509250925092565b6000806040838503121561298457612983611fb3565b5b600061299285828601612006565b92505060206129a385828601612006565b9150509250929050565b600080600080600060a086880312156129c9576129c8611fb3565b5b60006129d788828901612006565b95505060206129e888828901612006565b94505060406129f98882890161203c565b9350506060612a0a8882890161203c565b925050608086013567ffffffffffffffff811115612a2b57612a2a611fb8565b5b612a3788828901612424565b9150509295509295909350565b600060208284031215612a5a57612a59611fb3565b5b6000612a6884828501612006565b91505092915050565b7f455243313135353a2061646472657373207a65726f206973206e6f742061207660008201527f616c6964206f776e657200000000000000000000000000000000000000000000602082015250565b6000612acd602a83612181565b9150612ad882612a71565b604082019050919050565b60006020820190508181036000830152612afc81612ac0565b9050919050565b7f4e487b7100000000000000000000000000000000000000000000000000000000600052602260045260246000fd5b60006002820490506001821680612b4a57607f821691505b602082108103612b5d57612b5c612b03565b5b50919050565b7f455243313135353a2063616c6c6572206973206e6f7420746f6b656e206f776e60008201527f6572206f7220617070726f766564000000000000000000000000000000000000602082015250565b6000612bbf602e83612181565b9150612bca82612b63565b604082019050919050565b60006020820190508181036000830152612bee81612bb2565b9050919050565b7f455243313135353a206163636f756e747320616e6420696473206c656e67746860008201527f206d69736d617463680000000000000000000000000000000000000000000000602082015250565b6000612c51602983612181565b9150612c5c82612bf5565b604082019050919050565b60006020820190508181036000830152612c8081612c44565b9050919050565b7f4e487b7100000000000000000000000000000000000000000000000000000000600052603260045260246000fd5b7f4e487b7100000000000000000000000000000000000000000000000000000000600052601160045260246000fd5b6000612cf08261201b565b91507fffffffffffffffffffffffffffffffffffffffffffffffffffffffffffffffff8203612d2257612d21612cb6565b5b600182019050919050565b6000612d388261201b565b9150612d438361201b565b9250828202612d518161201b565b91508282048414831517612d6857612d67612cb6565b5b5092915050565b7f796f7520646f6e2774206861766520656e6f75676820657468657220746f207060008201527f6572666f726d2074686973207472616e73616374696f6e000000000000000000602082015250565b6000612dcb603783612181565b9150612dd682612d6f565b604082019050919050565b60006020820190508181036000830152612dfa81612dbe565b9050919050565b7f4f776e61626c653a206e6577206f776e657220697320746865207a65726f206160008201527f6464726573730000000000000000000000000000000000000000000000000000602082015250565b6000612e5d602683612181565b9150612e6882612e01565b604082019050919050565b60006020820190508181036000830152612e8c81612e50565b9050919050565b7f455243313135353a2069647320616e6420616d6f756e7473206c656e6774682060008201527f6d69736d61746368000000000000000000000000000000000000000000000000602082015250565b6000612eef602883612181565b9150612efa82612e93565b604082019050919050565b60006020820190508181036000830152612f1e81612ee2565b9050919050565b7f455243313135353a207472616e7366657220746f20746865207a65726f20616460008201527f6472657373000000000000000000000000000000000000000000000000000000602082015250565b6000612f81602583612181565b9150612f8c82612f25565b604082019050919050565b60006020820190508181036000830152612fb081612f74565b9050919050565b7f455243313135353a20696e73756666696369656e742062616c616e636520666f60008201527f72207472616e7366657200000000000000000000000000000000000000000000602082015250565b6000613013602a83612181565b915061301e82612fb7565b604082019050919050565b6000602082019050818103600083015261304281613006565b9050919050565b60006130548261201b565b915061305f8361201b565b925082820190508082111561307757613076612cb6565b5b92915050565b6000604082019050818103600083015261309781856126bc565b905081810360208301526130ab81846126bc565b90509392505050565b7f4f776e61626c653a2063616c6c6572206973206e6f7420746865206f776e6572600082015250565b60006130ea602083612181565b91506130f5826130b4565b602082019050919050565b60006020820190508181036000830152613119816130dd565b9050919050565b7f455243313135353a2073657474696e6720617070726f76616c2073746174757360008201527f20666f722073656c660000000000000000000000000000000000000000000000602082015250565b600061317c602983612181565b915061318782613120565b604082019050919050565b600060208201905081810360008301526131ab8161316f565b9050919050565b7f455243313135353a206d696e7420746f20746865207a65726f2061646472657360008201527f7300000000000000000000000000000000000000000000000000000000000000602082015250565b600061320e602183612181565b9150613219826131b2565b604082019050919050565b6000602082019050818103600083015261323d81613201565b9050919050565b60006040820190506132596000830185612091565b6132666020830184612091565b9392505050565b60008190508160005260206000209050919050565b60006020601f8301049050919050565b600082821b905092915050565b6000600883026132cf7fffffffffffffffffffffffffffffffffffffffffffffffffffffffffffffffff82613292565b6132d98683613292565b95508019841693508086168417925050509392505050565b6000819050919050565b600061331661331161330c8461201b565b6132f1565b61201b565b9050919050565b6000819050919050565b613330836132fb565b61334461333c8261331d565b84845461329f565b825550505050565b600090565b61335961334c565b613364818484613327565b505050565b5b818110156133885761337d600082613351565b60018101905061336a565b5050565b601f8211156133cd5761339e8161326d565b6133a784613282565b810160208510156133b6578190505b6133ca6133c285613282565b830182613369565b50505b505050565b600082821c905092915050565b60006133f0600019846008026133d2565b1980831691505092915050565b600061340983836133df565b9150826002028217905092915050565b61342282612176565b67ffffffffffffffff81111561343b5761343a61225a565b5b6134458254612b32565b61345082828561338c565b600060209050601f8311600181146134835760008415613471578287015190505b61347b85826133fd565b8655506134e3565b601f1984166134918661326d565b60005b828110156134b957848901518255600182019150602085019450602081019050613494565b868310156134d657848901516134d2601f8916826133df565b8355505b6001600288020188555050505b505050505050565b600081519050919050565b600082825260208201905092915050565b6000613512826134eb565b61351c81856134f6565b935061352c818560208601612192565b613535816121bc565b840191505092915050565b600060a082019050613555600083018861273c565b613562602083018761273c565b818103604083015261357481866126bc565b9050818103606083015261358881856126bc565b9050818103608083015261359c8184613507565b90509695505050505050565b6000815190506135b7816120e7565b92915050565b6000602082840312156135d3576135d2611fb3565b5b60006135e1848285016135a8565b91505092915050565b60008160e01c9050919050565b600060033d11156136165760046000803e6136136000516135ea565b90505b90565b600060443d106136a65761362b611fa9565b60043d036004823e80513d602482011167ffffffffffffffff821117156136535750506136a6565b808201805167ffffffffffffffff81111561367157505050506136a6565b80602083010160043d03850181111561368e5750505050506136a6565b61369d82602001850186612289565b82955050505050505b90565b7f455243313135353a207472616e7366657220746f206e6f6e2d4552433131353560008201527f526563656976657220696d706c656d656e746572000000000000000000000000602082015250565b6000613705603483612181565b9150613710826136a9565b604082019050919050565b60006020820190508181036000830152613734816136f8565b9050919050565b7f455243313135353a204552433131353552656365697665722072656a6563746560008201527f6420746f6b656e73000000000000000000000000000000000000000000000000602082015250565b6000613797602883612181565b91506137a28261373b565b604082019050919050565b600060208201905081810360008301526137c68161378a565b9050919050565b600060a0820190506137e2600083018861273c565b6137ef602083018761273c565b6137fc6040830186612091565b6138096060830185612091565b818103608083015261381b8184613507565b90509695505050505050565b7f455243313135353a206275726e20616d6f756e74206578636565647320746f7460008201527f616c537570706c79000000000000000000000000000000000000000000000000602082015250565b6000613883602883612181565b915061388e82613827565b604082019050919050565b600060208201905081810360008301526138b281613876565b905091905056fea2646970667358221220e4fac7bc61aaf9a9d2c123395baa13cf35357e40341606a2a3eec7092bf7d4b264736f6c63430008110033",
  "linkReferences": {},
  "deployedLinkReferences": {}
}